:020000022000DC
:106000000000042061630200C1630200C363020058
:10601000C5630200C7630200C963020000000000FC
:10602000000000000000000000000000CB63020040
:10603000CD63020000000000CF630200D1630200C4
:1060400091AD0200D36302001DBB0200D3630200C6
:10605000D3630200D363020035B80200D3630200A9
:10606000D3630200D3630200D3630200D363020050
:10607000D3630200D3630200D3630200D363020040
:10608000D3630200E9860200D3630200D3630200F7
:1060900029870200D36302007D3F0300D36302001F
:1060A000D3630200D3630200D3630200D363020010
:1060B000D3630200D3630200000000000000000070
:1060C000D3630200D3630200D3630200D3630200F0
:1060D000D3630200D3630200D3630200D3630200E0
:1060E000D3630200D3630200D36302000000000008
:1060F00000000000D363020000000000D363020030
:10610000000000000000000000000000000000008F
:10611000000000000000000000000000000000007F
:10612000000000000000000000000000000000006F
:10613000000000000000000000000000000000005F
:10614000000000000000000000000000000000004F
:10615000000000000000000000000000000000003F
:10616000000000000000000000000000000000002F
:10617000000000000000000000000000000000001F
:10618000000000000000000000000000000000000F
:1061900000000000000000000000000000000000FF
:1061A00000000000000000000000000000000000EF
:1061B00000000000000000000000000000000000DF
:1061C00000000000000000000000000000000000CF
:1061D00000000000000000000000000000000000BF
:1061E00000000000000000000000000000000000AF
:1061F000000000000000000000000000000000009F
:10620000364937480A1A02D0072291438D4635494C
:1062100035480A1A06D00722914381F309880222E1
:1062200082F3148831483249324A00F045F8324846
:106230003249334A00F040F832483349334A00F0DB
:106240003BF833483349344A00F036F83348344990
:10625000344A00F031F834483449354A00F02CF81B
:1062600034483549354A00F027F835483549002289
:1062700000F02DF834483549002200F028F8344861
:106280003449091A082903DB002202600430016046
:10629000314A90471F482049884205D0026804309F
:1062A00003B4904703BCF7E700208646EC46002085
:1062B00000212A4A9047FEE7884207D0521A05D0AB
:1062C000037801300B700131013AF9D170478842EF
:1062D00002D002700130FAE770470000000004208D
:1062E00000E003200000042000000420E871030007
:1062F00068120120F43F0120D8630200D863020035
:10630000904E0300E871030068120120681201201A
:10631000045103000451030004510300045103001D
:10632000045103000451030004510300045103000D
:10633000E8710300749F0300F43F0120F43F012043
:10634000F43F01205C6501205C6501205C65012053
:106350005C6501205C6501208963020061F2020036
:106360001048804710484FF00701884385460F4882
:1063700080470F48016841F470010160BFF34F8FFF
:10638000BFF36F8FFFF73CBF0A480B490B4A8842A7
:1063900007D0521A05D0037801300B700131013A51
:1063A000F9D17047D563020000000420F9A402006F
:1063B00088ED00E0045103006812012068120120FA
:1063C000FEE7FEE7FEE7FEE7FEE7FEE7FEE7FEE7A5
:0863D000FEE7FEE7704700BF85
:1063D80000B585B00190019B002B0AD0074B43F014
:1063E80001030393019B9B010293039B0298984727
:1063F80000E000BF05B05DF804FB00BF10510300CA
:1064080000B583B00190019B002B0AD04FF47A703D
:10641800FFF7DEFF019B013B0193019B002BF5D1A8
:1064280000E000BF03B05DF804FB08B509F0F8FE12
:1064380000BF08BD00B589B0039002910192019B8D
:10644800002B33D00023079303230693029A079B5C
:106458001344019A1946002009F094FE0590079A02
:10646800059B13440793019A059BD31A0193059B37
:10647800002B13D10F4B1B7883F00103DBB2002BE9
:1064880013D10120FFF7BCFF069B013B0693069B37
:10649800002B03D1074B00221A7007E0054B01229D
:1064A8001A70019B002BD1D100E000BF00BF09B0DA
:1064B8005DF804FBF43F012000B585B0039002911C
:1064C800054B00934023054A0299039800F012F8FF
:1064D80000BF05B05DF804FB3D640200F83F0120F1
:1064E80082B0019000BF02B0704782B0019000BF37
:1064F80002B0704700B5A1B00590049103920293D1
:10650800049803F0C1FE039B1593029B1693002386
:10651800179300238DF8603000231993229B1A9358
:1065280000231F930FA91F9B0822049803F086FFDE
:1065380008231F93119B1293BDF84030ADF84C30DF
:10654800BDF84230ADF84E3000238DF851309DF83B
:106558003C3003F00303DBB2012B26D10F9BC3F3BE
:1065680095231C939DF83C30C3F3C203DBB28DF82E
:106578005030BDF83C30C3F38313DBB21B931B9B35
:106588009A0009A91F9B049803F058FF1B9B9B00C6
:106598001F9A13441F9312AA09A915AB0093134617
:1065A8001B9A1C9800F0A6FF2FE09DF83C3003F0E2
:1065B8000303DBB2022B28D1BDF83E30C3F38913A5
:1065C8009BB21E939DF83C30C3F3C203DBB28DF837
:1065D80050301E9B082B28BF08231D9307A91F9B1B
:1065E8001D9A049803F02AFF1F9A1D9B13441F93BA
:1065F8001E9A1D9BD31A1E9315AB12AA07A81D99A4
:1066080001F01AF81E9B002BE3D1049803F04BFE0F
:1066180000BF21B05DF804FB82B00190019BDB68EC
:1066280001225A7100BF02B07047000000B583B064
:106638004FF0FF330193FFF7F8FE0421084800F0FC
:1066480075FE0190019B002B03DA0649412007F0F3
:1066580073F80348FFF7E0FF00BF03B05DF804FBE1
:10666800F45003002851030000B583B00190009155
:10667800019B1B681B6800990198984700BF03B0ED
:106688005DF804FB00B583B00190019B1B685B6853
:106698000198984700BF03B05DF804FB00B583B0CC
:1066A8000190019B1B689B680198984700BF03B045
:1066B8005DF804FB82B001900B468DF80330019B16
:1066C800DB689DF803201A7100BF02B0704782B0E2
:1066D8000190019BDB681B79184602B0704782B0B5
:1066E8000190019BDB6801225A7100BF02B070471C
:1066F80082B00190019BDB685B79184602B0704755
:1067080000B585B001900091154BFF229A60144B9B
:1067180000221A60124B00225A60114B0022C3F863
:1067280018240F4B0022C3F814240D4B002283F8C1
:1067380020240C4803F00DFD0390039B002B01D08F
:10674800039B08E0084803F099FE084A084BD31A4F
:10675800DB0802930023184605B05DF804FB00BF70
:10676800A0410120C050030090510300C050030015
:1067780048500300024A034BD31ADB0818467047F7
:10678800C05003004850030000B587B001900B4685
:106798008DF803309DF80330002B1FD0FFF7EAFF78
:1067A80004900023059313E0059B9B000E4A1344B5
:1067B8000393039B1B881A46019B1B689A4204D1CA
:1067C800019B059A1A60002309E0059B0133059394
:1067D800059A049B9A42E7D3052300E00023184654
:1067E80007B05DF804FB00BF6812012000B585B052
:1067F80001900B468DF803309DF8032001AB11463C
:106808001846FFF7C1FF0346002B07D1019BDB00A9
:10681800054A13440393039B1B6800E000231846B2
:1068280005B05DF804FB00BF4850030084B0019038
:106838000B468DF80330019BDB00174A1344029383
:106848009DF80330013B032B1CD801A252F823F01A
:1068580069680200716802007968020083680200B2
:1068680002238DF80F3011E004238DF80F300DE06E
:10687800029B1B798DF80F3008E0029B5B798DF83D
:106888000F3003E000238DF80F3000BF9DF80F3064
:10689800184604B0704700BF4850030084B0019008
:1068A800009100238DF80F30019B1B7803F004033F
:1068B800DBB2002B24D0019B1B78C3F30103DBB2AE
:1068C800012B02D0022B0CD017E0009B1B68019A09
:1068D8001288C2F38312D2B213449A1C009B1A6026
:1068E8000BE0009B1B68019A5288C2F3891292B28E
:1068F80013449A1C009B1A6000BF01238DF80F30C7
:106908009DF80F30184604B07047000000B58BB0F2
:106918000023ADF826303E4802F0BDF93D4802F0AC
:10692800BAF93D4B5B6804933B4B9B680693049A0A
:10693800069B134002339B00374A134404330893E1
:1069480004AB19460898FFF7A9FF0346002B09D0A6
:10695800049A069B134002339B002F4A13440433C6
:106968000893EDE700BF0023079311E0049B5A1C2E
:106978000492069A1340079A920001A90A442649EC
:1069880002339B000B445B681360079B013307933A
:10699800079B012BEAD99DF80430C3F30103DBB24E
:1069A800012B10D0022B1CD1BDF80A30ADF82630CF
:1069B800BDF80630C3F389139BB203339A08049BCE
:1069C8001344049313E0BDF80A30ADF82630BDF83F
:1069D8000430C3F38313DBB21A46049B13440493B5
:1069E80005E00E494FF4BF7006F0A6FE00BF094847
:1069F80002F05DF90590059B002B02D0049B064A26
:106A08005360BDF8263018460BB05DF804FB00BF94
:106A1800B8450120B4450120A0410120A051030040
:106A280000B585B00021074802F0A6F80390039B43
:106A38000293029B83F310030193019B184605B050
:106A48005DF804FBBC45012000B589B003900291B4
:106A580001920093039B1B0C0793FFF7E1FF06903D
:106A6800FFF788FE0246079B934204D3214940F270
:106A7800A31006F061FE069B1904009B5A1C0A9B92
:106A88001340079A0A431C4902339B000B445A607F
:106A9800009A0A9B134002339B00174A134404339D
:106AA8000593039B03F00703D9B2059A137861F3A2
:106AB800C5031370019B03F00F03D9B2059A13881D
:106AC80061F389131380029BC3F31501059A1368B8
:106AD80061F39F231360059A1378012161F3010381
:106AE8001370059A13786FF38203137000BF09B00F
:106AF8005DF804FBA0510300A041012000B58DB052
:106B08000390029113468DF80730039B02330A93D2
:106B180001238DF8273000238DF81B300DF11B035E
:106B2800184601F02DFF404B1A68029B1A603E4B35
:106B38009A683D4B59683C4B1B68CB1A1344013388
:106B48000B9314E00121394802F075F8FFF7DEFED7
:106B580007900799354802F06EF8334B9A68324B24
:106B68005968314B1B68CB1A134401330B930A9AAB
:106B78000B9B9A42E6D89DF82730002B48D000237B
:106B880005939DF80730002B17D09DF8143001228B
:106B980062F301038DF814309DF8143043F00403B8
:106BA8008DF81430039B03F00F03DAB2BDF81430EC
:106BB80062F38913ADF8143016E09DF81430022200
:106BC80062F301038DF814309DF8143043F0040388
:106BD8008DF81430039BC3F309039AB2BDF816303D
:106BE80062F38F13ADF816300F4B1A680E4B9B6883
:106BF800134002339B000C4A134404330893059A4C
:106C0800089B1A60084B1A680A9B1344064A1360CB
:106C18009DF81B30184601F0C9FE9DF8273018462C
:106C28000DB05DF804FB00BFA0410120BC45012068
:106C380000B58BB005900491039202931F4B9B689B
:106C4800079306AB012219460298FFF757FF034640
:106C5800002B24D0069B023309930023089311E0EC
:106C6800089B9B00039A1A44099B591C0991079990
:106C78000B401268114902339B000B445A60089B71
:106C880001330893089A029B9A42E9D3069A079B14
:106C980000931346029A04990598FFF7D5FE074B0F
:106CA80093F82034002B05D000BF00F039F90346D3
:106CB800002BFAD100BF0BB05DF804FBA041012006
:106CC80000B583B00190009100230022009901983B
:106CD800FFF7AEFF00BF03B05DF804FB00B587B057
:106CE800039002910192019B059305AA0123029941
:106CF8000398FFF79DFF00BF07B05DF804FB00B5E0
:106D080087B00390029101920093019B0493009B2A
:106D1800059304AA022302990398FFF789FF00BF8D
:106D280007B05DF804FB00B589B0039002910192A9
:106D38000093019B0593009B06930A9B079305AA62
:106D4800032302990398FFF773FF00BF09B05DF8AA
:106D580004FB00B58BB00390029101920093019B54
:106D68000593009B06930C9B07930D9B08930E9B22
:106D7800099305AA052302990398FFF759FF00BF55
:106D88000BB05DF804FB00B58BB003900291019243
:106D98000093019B0493009B05930C9B06930D9B0A
:106DA80007930E9B08930F9B099304AA0623029945
:106DB8000398FFF73DFF00BF0BB05DF804FB000030
:106DC80000B58DB0039002911346ADF806304B4BD9
:106DD8009B680B93BDF8063003339B0805A9002276
:106DE8001846FFF78BFE0346002B78D0059B0A93C5
:106DF800059B02330593414B9A6805990B9B0B4001
:106E0800D31A01339B000993BDF80630099A9A42B8
:106E18000ED3059A0B9B134002339B00374A134449
:106E28000433BDF80620029918460DF0E6FB17E07A
:106E3800059A0B9B134002339B00304A13440433DA
:106E4800099A029918460DF0D8FB029A099BD118A5
:106E5800BDF80620099BD31A1A4629480DF0CDFB28
:106E6800039B1B0C0893FFF7DBFD0790079B190496
:106E78000A9B5A1C0B9B1340089A0A431F4902336A
:106E88009B000B445A600A9A0B9B134002339B00E9
:106E98001A4A134404330693039B03F00703D9B239
:106EA800069A137861F3C5031370069A13886FF373
:106EB8008F131380BDF80630C3F3090399B2069AFD
:106EC800538861F38F135380069A1378022161F374
:106ED80001031370069A13786FF382031370074B3C
:106EE80093F82034002B05D000BF00F019F80346B2
:106EF800002BFAD100BF0DB05DF804FBA0410120C2
:106F0800AC410120054B5A68044B1B689A420CBFE0
:106F180001230023DBB21846704700BFA0410120BF
:106F280000B599B0FFF7EEFF0346002B01D0002310
:106F3800BCE19A4B0022C3F81824BFF34F8F974B3C
:106F48005B680493954B9B681093049A109B1340BD
:106F580002339B00914A134404331193002317937F
:106F68000023169300230F9304AB19461198FFF7DB
:106F780095FC0346002B19D0884BD3F81834002B06
:106F880014D1864B1A68049B9A4205D8834B1B6818
:106F9800824A5360002389E1049A109B134002330C
:106FA8009B007E4A134404331193DDE700231593B5
:106FB80011E0049B5A1C0492109A1340159A9200EF
:106FC80001A90A44754902339B000B445B681360AE
:106FD800159B01331593159B012BEAD99DF80430B5
:106FE80003F00303DBB2022B40F09C80BDF80630AF
:106FF800C3F389139BB20D93BDF80630C3F389130D
:107008009BB2502B28BF50239BB20C930C9BC3F30D
:1070180009039AB2BDF8063062F38F13ADF8063053
:107028000C9B08330B939DF80430C3F3C203DBB207
:107038000F930B995A4803F097F81790179B002B5A
:1070480000F0D080179803F01FF901A9169B0822B9
:10705800179803F0D5F9169B08331693049BDA4367
:10706800109B134001339B000A930C9A0A9B9A4287
:1070780042D90A9B002B08D0049A109B1340023374
:107088009B00464A1344043300E0464B08930A9B8E
:10709800002B02D00A9BDBB201E00C9BDBB28DF81F
:1070A8001F300A9B002B01D03E4B00E000230693C3
:1070B8000A9B002B06D00C9BDAB20A9BDBB2D31AD0
:1070C800DBB200E000238DF817309DF81F20169BD7
:1070D8000899179803F094F99DF81F30169A1344ED
:1070E8001693069B002B16D09DF81720169B069921
:1070F800179803F085F90EE0049A109B13400233A9
:107108009B00264A134404330993169B0C9A099949
:10711800179803F075F90D9B03339A08049B1344E1
:1071280004935FE09DF8043003F00303DBB2012B06
:1071380058D1BDF80430C3F38313DBB2062B28BF44
:107148000623DAB2BDF8043062F38913ADF80430CF
:10715800BDF80430C3F38313DBB202330E939DF8FA
:107168000430C3F3C203DBB20F930E9B9B00194696
:107178000B4802F0F9FF1790179B002B32D0179895
:1071880003F082F801A9169B0822179803F038F932
:10719800169B08331693002315931AE0A04101208B
:1071A800C0500300AC410120049B5A1C0492109A61
:1071B800134002339B003F4A1344191D169B0422B7
:1071C800179803F01DF9169B04331693159B01338A
:1071D8001593BDF80430C3F38313DBB21A46159B2D
:1071E8009342E1D3179B002B40D0324BD3F8103495
:1071F8001493304BD3F81834002B1BD0179803F096
:1072080052F84DE000238DF84F301498FFF770FACC
:107218000346002B02D001238DF84F309DF84F30E4
:10722800002B03D017991498FFF71EFA149BDB68FC
:107238001B681493149B002BE4D1179803F033F8C0
:1072480000238DF803300DF10303184601F098FB75
:10725800184BD3F81834002B02D1049B154A5360FD
:107268009DF80330184601F0A1FB19E0114BD3F843
:107278001034129306E01298FFF710FA129BDB689D
:107288001B681293129B002BF5D10B4A0B4BD31A98
:10729800DB081B0443F0020309491846FFF710FDF9
:1072A800FFF730FE034683F00103DBB2184619B03E
:1072B8005DF804FBA0410120705003004850030012
:1072C8000052030000B585B00023039323E0164B5A
:1072D800D3F81034029301238DF807300FE0029899
:1072E800FFF7F5F903461A46039B934203D100239F
:1072F8008DF8073006E0029BDB681B680293029B4F
:10730800002BECD19DF80730002B01D0039B07E040
:10731800039B01330393039B092BD8DD4FF0FF3305
:10732800184605B05DF804FBA041012000B585B002
:1073380001900B468DF80330FFF7C4FF0390039BC1
:10734800B3F1FF3F01D1039B22E0039BDBB2194657
:107358000198FFF7AFF9104BD3F81034002B08D180
:107368000D4A019BC2F81034019BDB6800221A60A9
:107378000DE0094BD3F81034DA68019BDB6812681A
:107388001A60054BD3F81034DB68019A1A60039B26
:10739800184605B05DF804FBA041012000B583B094
:1073A8000C4BD3F8103401930A4B012283F82024A4
:1073B80009E00198FFF793F90198FFF763F9019B3A
:1073C800DB681B680193019B002BF2D100BF03B05F
:1073D8005DF804FBA041012082B00190009100BF3C
:1073E80002B0704710B584B003900291039BDB880C
:1073F800002B0AD0039BDB881A461F4B00931346C9
:107408001E4A1F49029801F091FD039B1B7A052B28
:107418002ED0039B5B7A002B12D0039B9B881A46C5
:10742800039B1B7A19461046FFF700FA03461A46D3
:10743800144B53F822301A461349029801F076FD8E
:10744800039B1B6819460298FFF7C6FF039B1B7A2C
:107458001A460E4B53F82240039B9B88002118467E
:10746800FFF7C4F9034622460949029801F05EFD78
:1074780000BF04B010BD00BF3452030044520300E3
:107488007C520300841201209452030070120120E0
:107498009852030000B585B00390029113468DF809
:1074A8000730039B1B7A052B0FD0039B5B7A002BBD
:1074B80006D00D4B1B681A460C49029801F036FDA0
:1074C8000B49029801F032FD07E09DF80730002BC8
:1074D80003D00749029801F029FD029801F004FD44
:1074E80000BF05B05DF804FB84120120945203002C
:1074F800A452030030B58BB007900691059204930F
:107508000E9B1B7B8DF827300E9B00221A730E9959
:107518000498FFF767FF059B062B7FD801A252F856
:1075280023F000BF4975020053750200637502001D
:107538007775020095750200BD750200ED750200B1
:1075480007990E9801F0F2FC69E0069B1B681A4641
:1075580007990E9801F0EAFC61E0069B1A68069B01
:1075680004331B6807990E9801F0E0FC57E0069B6E
:107578001A68069B04331968069B08331B68009336
:107588000B4607990E9801F0D1FC48E0069B196854
:10759800069B04331868069B08331B68069A0C324E
:1075A80012680192009303460A4607990E9801F063
:1075B800BDFC34E0069B1868069B04331C68069BD8
:1075C80008331B68069A0C3212680699103109684C
:1075D8000291019200932346024607990E9801F002
:1075E800A5FC1CE0069B1C68069B04331D68069BD3
:1075F80008331B68069A0C3212680699103109681C
:1076080006981430006803900291019200932B466B
:10761800224607990E9801F089FC00E000BF00227D
:107628000E990498FFF736FF0E9B9DF827201A73D2
:1076380000BF0BB030BD00BF00B587B0039002910A
:1076480001920093029B082B5CD8009B1B7B8DF852
:107658001330009B00221A7300990198FFF7C2FEAD
:107668000023059314E0059A029B9A4209D2039AD3
:10767800059B13441B781A462449009801F056FCD0
:1076880003E02349009801F051FC059B0133059361
:10769800059B072BE7D91F49009801F047FC0023F9
:1076A800059322E0059A029B9A4217D2039A059BFA
:1076B80013441B788DF812309DF8123018460CF0E0
:1076C80043FF0346002B02D09DF8123000E02E2322
:1076D8001A461149009801F029FC03E00F49009867
:1076E80001F024FC059B01330593059B072BD9D991
:1076F800012200990198FFF7CDFE009B9DF8132009
:107708001A7300E000BF07B05DF804FBA85203003D
:10771800B0520300B4520300B8520300BC52030035
:107728002DE9F04F89B0019000238DF81F3099E0C2
:10773800524B1A689DF81F30DB0013440693069BD2
:107748001B7819464FF001024FF00003A1F1200CFD
:10775800C1F1200003FA01F902FA0CFC49EA0C090C
:1077680022FA00F049EA000902FA01F8CDE9048991
:10777800434BD3E90001DDE9042302EA000A03EAE6
:10778800010B5AEA0B0368D0DDE904236FEA020013
:107798006FEA03013A4BD3E900AB0AEA00020BEAAD
:1077A80001033749C1E90023069B1B78184604F0FA
:1077B80023F803468DF80F30069B1B7819464FF0C7
:1077C80001024FF00003A1F1200CC1F1200003FADF
:1077D80001F502FA0CFC45EA0C0522FA00F0054313
:1077E80002FA01F4274BD3E9002304EA020A05EA66
:1077F800030B9DF80F204FF0000306990978A1F1BB
:10780800200CC1F1200003FA01F702FA0CFC47EA48
:107818000C0722FA00F0074302FA01F6BB4508BF3D
:10782800B2451AD19DF80F30069A5278012A0CBF3A
:1078380001220022D2B293420CBF01230023DBB203
:107848000293069B5B68002B07D0069B5B68069A31
:1078580012780299C9B2104698479DF81F30013333
:107868008DF81F30084B1B789DF81F209A42FFF4B3
:107878005FAF00BF09B0BDE8F08F00BFC44501206D
:10788800F8450120F0450120C845012070B586B0B3
:1078980001900A468DF803204FF001014FF00002D5
:1078A8000198A0F12006C0F1200502FA00F401FABF
:1078B80006F6344321FA05F52C4301FA00F3CDE925
:1078C8000434304B184600F0C7FF0390039B002B8D
:1078D80054D12D4BD3E90012DDE9043403EA010544
:1078E80004EA020655EA060337D1019803F084FF3B
:1078F8000346002B0CD0254BD3E90012DDE90434F4
:1079080043EA010544EA0206204AC2E900560FE0AC
:10791800DDE904346FEA03016FEA04021B4BD3E983
:10792800005605EA010306EA0204184AC2E90034CF
:10793800154BD3E90012DDE9043443EA010544EAB2
:107948000206114AC2E900560E48114B1B68002274
:10795800194600F04FFF039011E0DDE904346FEAA7
:1079680003016FEA0402084BD3E9005605EA010354
:1079780006EA0204044AC2E9003400E000BF06B087
:1079880070BD00BFD0450120F8450120F045012019
:10799800CC45012010B58AB003900B4601928DF8B2
:1079A8000B30019B042B01D807235AE003F016FE85
:1079B800034683F00103DBB2002B09D003F0BCFDC2
:1079C8000990099B0893089B002B01D0089B48E06D
:1079D800254A039B1360254A9DF80B301370244AEF
:1079E800019B1360234A4FF000034FF00004C2E9E3
:1079F8000034214A4FF000034FF00004C2E900347C
:107A080022E09DF80B30DB00039A1344079305AB83
:107A180000210A461A800A469A7003238DF814300A
:107A2800079B9B788DF81530079B1B78184605AB8C
:107A3800124A194603F0DEFD0990099B0693069B3E
:107A4800002B01D0069B0CE09DF80B305A1E8DF8D8
:107A58000B20002BD5D10A4A00210A4800F09AFED3
:107A6800034618460AB010BDC4450120C845012088
:107A7800CC450120F0450120F84501209578020009
:107A880029770200C052030000B583B0114B1B6870
:107A9800002B03D11049BA2005F04EFE00230193B4
:107AA8000CE00C4B1A68019BDB0013441B78012186
:107AB800184603F019FE019B01330193074B1B780D
:107AC8001A46019B9342ECD30023184603B05DF895
:107AD80004FB00BFC4450120C4520300C84501206F
:107AE80086B003900291019201238DF817309DF81A
:107AF80017301F4A039B13601D4A029B53601C4AA0
:107B0800019B9360039B44F20102934212D044F21A
:107B18000202934221D1019B154AD360144BDB68C2
:107B28001B881A46124B9A61114BDB685B68104A36
:107B3800D36112E0019B0E4A13610D4B1B699B68D0
:107B48000B4A53610A4B1B691B68094A9361084B2E
:107B58001B695B68064AD36100BF72B600BF9DF817
:107B68001730DBB2002BFAD162B600BF06B07047FF
:107B78000046012000B583B002900091019244F2C2
:107B8800010071466A4600F003F803B000BD00BF6B
:107B980030B58BB007900691059272B6FFF7FEFBE1
:107BA80000BFFFF7BDF90346002BFAD1079B41F24E
:107BB800010293421BD041F20102934202D8012BE9
:107BC80009D05FE044F2010293422ED044F202024F
:107BD800934218D056E0394A394BD31ADB081B04B4
:107BE80043F0010337491846FFF76AF857E0334A6C
:107BF800334BD31ADB081B0443F001033249184600
:107C0800FFF75EF84BE0059B09932C4A2C4BD31ADF
:107C1800DB081B0443F00100099B5B681A46099BBB
:107C28001B882A49FFF76BF839E0059B0893234A1C
:107C3800234BD31ADB081B0443F00104089B9D68FF
:107C4800089B9B68184601F0B9FF03461846089B35
:107C58005B681946089B1B68069A0292019300917B
:107C680003462A461A492046FFF773F8134A144B6D
:107C7800D31ADB081B0443F0010316491846FFF723
:107C88001FF80CE00D4A0E4BD31ADB081B0443F017
:107C98000103069A10491846FFF720F800BF0F4B5A
:107CA8001B6803F00103002B00D000BE059A06995B
:107CB8000798FFF715FF00BF0BB030BD70500300E9
:107CC800485003002053030040530300645303004B
:107CD80080530300A8530300BC530300F0ED00E0F9
:107CE80082B003468DF807309DF8073003F01F0275
:107CF80005499DF907305B09012000FA02F241F8B5
:107D0800232000BF02B0704700E100E082B00346C4
:107D18008DF807309DF8073003F01F0206499DF9DA
:107D280007305B09012000FA02F2203341F82320D2
:107D380000BF02B0704700BF00E100E082B0034618
:107D48008DF807309DF8073003F01F0206499DF9AA
:107D580007305B09012000FA02F2403341F8232082
:107D680000BF02B0704700BF00E100E082B00346E8
:107D78008DF807309DF8073003F01F0206499DF97A
:107D880007305B09012000FA02F2603341F8232032
:107D980000BF02B0704700BF00E100E082B00346B8
:107DA80000918DF807309DF90730002B0CDA009B05
:107DB800DAB20C499DF8073003F00F03043B520177
:107DC800D2B20B441A7609E0009BDAB206499DF953
:107DD80007305201D2B20B4483F8002300BF02B02F
:107DE800704700BF00ED00E000E100E000B585B09D
:107DF8000190019B002B0AD0074B43F0010303932A
:107E0800019B9B010293039B0298984700E000BFE7
:107E180005B05DF804FB00BFE053030000B583B074
:107E28000190064A019BC2F8083507211120FFF787
:107E3800B5FF00BF03B05DF804FB00BF00100140B0
:107E480008B50D4B4FF48032C3F844230A4B4FF466
:107E58008032C3F804231120FFF788FF1120FFF7B1
:107E68003FFF054B01221A602F20FFF7BFFF034B8E
:107E780001221A7000BF08BD001001403E470120D2
:107E880008B51120FFF742FF0E4B4FF48032C3F8BC
:107E980048230C4B4FF48032C3F80823094B0122C6
:107EA8005A602F20FFF7A2FF064B01229A60064B6B
:107EB80000221A602F20FFF799FF044B00221A7046
:107EC80000BF08BD00100140304701203E47012097
:107ED800024BD3F804351846704700BF0010014024
:107EE80082B001900091019A009BD31A23F07F433E
:107EF800184602B07047000082B00190034A019B07
:107F0800C2F8403500BF02B0704700BF0010014002
:107F180086B00190284B1B68002B03D1264A019B91
:107F2800136045E0019B1A68234B1B681B689A4243
:107F380010D8214B1B681968019B1A681E4B1B68D7
:107F48008A1A1A601C4B1A68019BDA611A4A019B4B
:107F580013602DE0019B1B680393174B1B68059367
:107F6800154B1B68049309E0049B1B68039AD31AFA
:107F78000393049B0593049BDB690493049B002BE8
:107F880004D0049B1B68039A9A42EDD8049B002BEB
:107F980005D0049B1A68039BD21A049B1A60019BA4
:107FA800039A1A60019B049ADA61059B019ADA61C7
:107FB80000BF06B0704700BF2C47012000B587B04E
:107FC80001902A4B1B680393284B1B680593059B5C
:107FD800049308E0049A019B9A4208D0049B0593F5
:107FE800049BDB690493049B002BF3D100E000BFE2
:107FF800049B002B01D1002333E0059A049B9A428D
:1080080014D11A4B1B68DB69184A1360174B1B689D
:10801800002B0BD1164B01229A60164B00221A60D6
:10802800154B01221A702F20FFF7E0FE049B1B68F6
:108038000293049BDA69059BDA61059BDB6904936B
:10804800049B002B05D0049B1A68029B1A44049BCE
:108058001A60064B1B68039A9A4214BF0123002337
:10806800DBB2184607B05DF804FB00BF2C470120BF
:1080780000100140304701203F47012008B511207A
:10808800FFF75CFE00BF08BD08B51420FFF756FED9
:1080980000BF08BD00B583B00190019B5B69019AE0
:1080A80092691046984700BF03B05DF804FB0000D2
:1080B80000B585B02B4B1B68002B4ED000230193D5
:1080C800FFF706FF0246284B1B6819461046FFF7C4
:1080D80007FF0290234B1B6803931DE0039B1B685B
:1080E800029A9A421CD3039B1B68029AD31A0293E2
:1080F800039B1B68019A13440193039B0093039B02
:10810800DB690393009B1B7C002B05D0009B00229E
:108118001A740098FFF7BEFF039B002BDED100E026
:1081280000BF124B1A78124B1B789A420CD1104B95
:108138001B780133DAB20E4B1A700D4B1B78022BE9
:1081480002D10B4B00221A70094B1B781946094AB9
:10815800019B42F82130FFF797FF00BF05B05DF89B
:1081680004FB00BF2C470120304701203C47012079
:108178003D4701203447012082B00190184B1A78FE
:10818800184B1B789A4223D0154B1B780133DAB26F
:10819800134B1A70124B1B78022B02D1104B002282
:1081A8001A700F4B1B781A460F4B53F82220019B6D
:1081B8001A60019B1A680D4B1B6813440B4A136025
:1081C8000A4B1B6823F07F43084A1360012303E02E
:1081D800019B00221A600023184602B0704700BFB6
:1081E8003C4701203D47012034470120304701200A
:1081F80088B00390029101920023079338E0204B46
:108208001B680693069B1B68039A9A4206D2069B34
:108218001A68039BD21A069B1A602DE0069B1B68FE
:10822800039AD31A0393069B1B68079A1344079370
:10823800069B00221A60124B1B680593069BDB699C
:108248000F4A1360069BDB68002B11D0029A079B2C
:10825800134423F07F42069B5A60069BDA68069B0C
:108268009A60019B1A68069BDA61019B059A1A605D
:10827800034B1B68002BC2D100BF08B0704700BF7A
:108288002C47012000B589B0019000238DF81F30DC
:10829800664B1B680593AAE0019B002B05D0019B48
:1082A8000693069BDB69019361E0614B1B781A46D4
:1082B80013465B001344DB005D4A13440433049304
:1082C8005B4B1B780133DAB2594B1A70584B1A784A
:1082D800574B9B789A4202D1554B00221A70049B47
:1082E8005B680693049B1B78022B04D0032B1BD0DE
:1082F800012B1FD01DE0049B5B681846FFF75EFE4C
:108308000346002B02D001238DF81F30069B002264
:108318001A746CE0454B1B680393039B00221A7484
:10832800039BDB69414A1360404B1B68002BF1D16A
:108338005DE05CE000BF069B1B7C002B00D056E094
:10834800049B9A68069B5A60049BDA68069B9A60AD
:10835800049B1A69069BDA60049B5A69069B9A611A
:10836800344B1B78002B02D0069B00225A60069BD8
:108378005A68314B1B68D31A23F07F432F4A934224
:108388000ED8069B5A682C4B1B6819461046FFF7F7
:10839800A7FD0246069B9B681A44069B1A6017E0D5
:1083A800254B1A68069B5B6819461046FFF798FD2F
:1083B8000290069B9B68029A9A4206D2069B9A688C
:1083C800029BD21A069B1A6002E0069B00221A60E2
:1083D800069B00225A60069B00229A60069B012297
:1083E8001A74069B0022DA610698FFF791FD019B3B
:1083F800002B7FF451AF0E4B1A780D4B5B789A42E5
:108408007FF44AAF9DF81F30002B04D1074B1B683F
:10841800059A9A4201D0012300E0002303F00103EA
:10842800DBB2184609B05DF804FB00BF2C470120F9
:10843800204601203F47012030470120FEFF7F00F2
:1084480010B588B00190274B1B68002B44D0254BF2
:108458001B681B680793FFF73BFD0690224B1B68C0
:10846800059305990698FFF73BFD034603330493EC
:108478001E4B1B7883F00103DBB2002B01D0FFF702
:10848800DFFC049A079B934238BF1346059A1344AE
:108498000593059B23F07F4305930598FFF72CFD73
:1084A800FFF716FD039006990398FFF719FD034699
:1084B800DC1C06990598FFF713FD03469C420DD96D
:1084C800FFF706FD03461846FFF716FD2F20FFF7B6
:1084D8008DFCFFF7D3FD01E0FFF7D2FC00BF08B029
:1084E80010BD00BF2C470120304701203E47012026
:1084F80000B587B00023019300238DF81730194B7E
:108508001B680493184B1B6803936B461846FFF7C8
:1085180033FE03468DF80B309DF80B30002B08D046
:10852800009B01AA04991846FFF762FE01238DF803
:108538001730019B1846FFF7A5FE0346002B02D013
:1085480001238DF817309DF81730002B02D00398BF
:10855800FFF776FF054B00221A7000BF07B05DF8E1
:1085680004FB00BF304701202C4701203F47012072
:1085780082B003468DF80730034A9DF807305370E0
:1085880000BF02B0704700BF2046012084B00190B0
:10859800144B5B7801338DF80F30124B9B789DF8A4
:1085A8000F209A4202D100238DF80F300D4B1B7813
:1085B8009DF80F209A4201D100230FE0019B9DF8FE
:1085C8000F201A70074B5B781A4613465B0013445A
:1085D800DB00044A134404330293029B184604B098
:1085E800704700BF2046012000B589B00390029172
:1085F800019200930023079300238DF816300DF1A4
:108608001603184600F0BCF90DF117031846FFF7DA
:10861800BDFF0690069B002B02D10423079318E0A8
:10862800069B01221A70069B039A5A60FFF750FCBA
:108638000246069B9A60069B029ADA60069B019A9C
:108648001A61069B009A5A619DF817301846FFF781
:108658008FFF9DF81630184600F0A8F9079B002BED
:1086680001D1FFF711FD079B184609B05DF804FB1F
:1086780000B587B001900B468DF8033000230593B1
:1086880000238DF80E300DF10E03184600F078F92E
:108698000DF10F031846FFF779FF0490049B002B98
:1086A80002D1042305930BE0049B9DF803201A7064
:1086B800049B019A5A609DF80F301846FFF758FF3F
:1086C8009DF80E30184600F071F9059B002B01D17A
:1086D800FFF7DAFC059B184607B05DF804FB0000BD
:1086E80008B50E4B0022C3F840210C4B0022C3F8FA
:1086F80044210A4B0022C3F84821084B0022C3F842
:108708004C21064B0022C3F80021044B0022C3F879
:108718000421FFF7CDFC00BF08BD00BF00100140D9
:1087280008B5FFF7E5FE00BF08BD000008B5FFF774
:10873800A7FB134B00221A70114B00225A70104BE2
:108748000B229A700F4B00221A600F4B00221A70EE
:108758000E4B00221A701420FFF708FB0721142083
:10876800FFF71CFB1420FFF7BBFA0020FFF756FBAE
:10877800FFF7AEFB0246064B1A600023184608BDF9
:10878800204601202C4701203C4701203D4701207D
:108798003047012086B003900B4601928DF80B30CC
:1087A800134B9B78002B01D108231EE0019B002B63
:1087B80001D1072319E0039B002B01D1072314E003
:1087C800039B1B681B7C002B01D008230DE0039B37
:1087D8001B680593059B00221A74059B9DF80B20C6
:1087E8005A74059B019A5A610023184606B07047CF
:1087F8002046012000B587B0039002910192039BA7
:108808000593144B9B78002B01D108231EE0039B92
:10881800002B01D1082319E0029B042B01D8072360
:1088280014E0059B5B69002B01D108230EE0059B32
:108838005B7C012B01D1029B00E000230493019B88
:10884800049A02990598FFF7CFFE0346184607B029
:108858005DF804FB2046012000B585B00190019B1E
:1088680003930D4B9B78002B01D1082310E0019B4B
:10887800002B03D0039B5B69002B01D1082307E081
:10888800039B00221A7402210398FFF7F1FE0346A6
:10889800184605B05DF804FB2046012082B0EFF3CE
:1088A80010830093009B019372B6019B184602B097
:1088B800704762B600BF704700B585B00190FFF7FA
:1088C800EDFF0390164B9B68002B1BD1144B012224
:1088D8009A60144BD3F88020134B1340104A13604E
:1088E800104B114AC3F880200E4BD3F884300C4A41
:1088F80053600C4B4FF0FF32C3F88420019B0022D9
:108908001A7002E0019B01221A70039B002B01D10F
:10891800FFF7CFFF0023184605B05DF804FB00BF42
:108928004047012000E100E0FC06FFBD00B585B02E
:1089380003468DF80730104B9B68002B16D09DF826
:108948000730002B12D1FFF7A9FF03900B4A0A4BFF
:108958001B681360094A084B5B685360064B00228A
:108968009A60039B002B01D1FFF7A3FF0023184651
:1089780005B05DF804FB00BF4047012000E100E0BE
:1089880000B583B0019000F02BF80346012B03D00B
:108998000549432004F0D0FE0198FFF78DFF00BF82
:1089A80003B05DF804FB00BFE853030000B583B0D3
:1089B80003468DF8073000F013F80346012B03D067
:1089C8000649512004F0B8FE9DF807301846FFF715
:1089D800ADFF00BF03B05DF804FB00BFE853030020
:1089E80084B0EFF305830193019BC3F3080303935A
:1089F800039B002B0DD1EFF314830093009B02938C
:108A0800029B03F00103002B0CBF01230023DBB200
:108A180000E00123184604B0704786B00190009129
:108A2800019B53E8021F1FFAA1F2D888824202BFB5
:108A3800BFF32F8F00230DE0D88902449889824222
:108A480028BF121AC1EA024243E802200028E8D1EE
:108A58004FF001038DF80F30059002910492029AAD
:108A6800009B1A609DF80F30DBB2184606B07047BD
:108A780084B00190019951E8023FC3EA234341E8D9
:108A88000232002AF7D10392029300BF04B0704764
:108A980000B585B001900091009B19460198FFF739
:108AA800BCFF0346002B07D0019B1B68009A528825
:108AB80013440393039B00E00023184605B05DF8B8
:108AC80004FB00B583B001900091009B1A88009BBD
:108AD8005B889A4204D10198FFF7CAFF012300E09E
:108AE8000023184603B05DF804FB00B585B001907B
:108AF8000091009B5B099B00019AD018009B03F032
:108B08001F03012202FA03F3194600F04CF8039000
:108B180000BF05B05DF804FB00B585B00190009179
:108B2800009B5B099B00019AD018009B03F01F0370
:108B3800012202FA03F3DB43194600F064F80390BC
:108B480000BF05B05DF804FB82B001900091009B66
:108B58005B099B00019A13441A68009B03F01F03EA
:108B680022FA03F303F00103002B14BF01230023AF
:108B7800DBB2184602B0704710B487B0019000917C
:108B8800019B009A53E8004F104643E8000191F01A
:108B9800000FF7D1059404900391059B184607B080
:108BA8005DF8044B704710B487B001900091019BA9
:108BB800009A53E8004F44EA020043E8000191F0AC
:108BC800000FF6D1059404900391049B184607B052
:108BD8005DF8044B704710B487B001900091019B79
:108BE800009A53E8004F04EA020043E8000191F0BC
:108BF800000FF6D1059404900391059B184607B021
:108C08005DF8044B704710B487B001900091019B48
:108C1800009A53E8004F04EA020043E8000191F08B
:108C2800000FF6D1059404900391049B184607B0F1
:108C38005DF8044B704710B487B001900091019B18
:108C4800009A53E8004F04EB020043E8000191F05A
:108C5800000FF6D1059404900391049B184607B0C1
:108C68005DF8044B704710B487B001900091019BE8
:108C7800009A53E8004FA4EB020043E8000191F08A
:108C8800000FF6D1059404900391049B184607B091
:108C98005DF8044B704700B583B00190012101983D
:108CA800FFF781FF0346184603B05DF804FB00B5E3
:108CB80083B0019000210198FFF78DFF0346184605
:108CC80003B05DF804FB000000B583B001900B46CB
:108CD8008DF80330019B002B03D10849E82004F0EC
:108CE8002BFD019BDA689DF803300199098A01FB85
:108CF80003F31344184603B05DF804FB485403001B
:108D080000B583B001900091019B002B03D1084965
:108D1800F52004F011FD009B019AD2689B1A019A74
:108D2800128AB3FBF2F3DBB2184603B05DF804FB1A
:108D38004854030000B585B00190019B002B01D178
:108D48000E234DE0019B1B68002B03D12649FF2011
:108D580004F0F2FC019B5B68002B04D122494FF41C
:108D6800807004F0E9FC019B9B68002B04D11E492C
:108D780040F2011004F0E0FC019BDB68002B04D1F9
:108D880019494FF4817004F0D7FC019B1B8A002B12
:108D980004D1154940F2031004F0CEFC019B9B68F6
:108DA8001A46019B5B68D31A8DF80F30019B1B682C
:108DB800019A52681A6007E0019B1A681368591CE7
:108DC80011609DF80F201A709DF80F305A1E8DF80B
:108DD8000F20002BF0D1019B1B6800221A71002381
:108DE800184605B05DF804FB4854030000B585B08B
:108DF8000190019B002B04D120494FF4927004F09C
:108E08009BFC0023039300238DF80A300DF10A031D
:108E18001846FFF7B5FD019B1B681A68019B5B6844
:108E28009A4220D9019B1B681A68013A1A601B688C
:108E38001B7819460198FFF747FF0390019B9B6831
:108E48001A46019B1B681B68D31A8DF80B30019BCF
:108E58001B681B799DF80B209A4204D9019B1B685B
:108E68009DF80B201A719DF80A301846FFF79EFDF1
:108E7800039B184605B05DF804FB00BF4854030087
:108E880010B584B001900091019B002B04D11549C5
:108E980040F2471004F050FC009B002B04D111490C
:108EA8004FF4A47004F048FC009B039300238DF852
:108EB8000B300DF10B031846FFF762FD019B1B6891
:108EC8001C68621C1A6003990198FFF719FF034692
:108ED80023709DF80B301846FFF768FD00BF04B0FB
:108EE80010BD00BF4854030000B583B00190019B3A
:108EF800002B03D10C49312004F01EFC019B9B6818
:108F0800002B0CD0019B5B69019A1069019A1168CA
:108F1800019A92689847019B00229A6000E000BF7E
:108F280003B05DF804FB00BFA45403000EB400B501
:108F380084B00190019B002B03D11849422004F012
:108F4800FBFB019B5B69002B03D11449432004F010
:108F5800F3FB019B1B68002B03D11049442004F04C
:108F6800EBFB019B5B68002B03D10C49452004F007
:108F7800E3FB059B002B0AD00023039306AB039366
:108F880003AB1A460599019800F0B0F900E000BF5C
:108F980004B05DF804EB03B0704700BFA4540300AD
:108FA80000B583B001900B468DF80330019B1A6819
:108FB800019B9B68581C0199886013449DF8032005
:108FC8001A70019B9A68019B5B689A4202D30198C8
:108FD800FFF78AFF00BF03B05DF804FB00B587B058
:108FE800039002910192009300230593009B03F0E4
:108FF8000103002B24D00BE0029B01330293059B55
:10900800013305939DF8133019460398FFF7C8FFFD
:10901800029B1B788DF813309DF81330002BEBD191
:1090280006E0019B013B019320210398FFF7B8FF5D
:10903800019A059B9A422ED9019B002BF1D12AE077
:10904800029B002B0BD002980BF055FB059006E015
:10905800019B013B019320210398FFF7A1FF019A8F
:10906800059B9A420FD9019B002BF1D10BE0029B83
:1090780001330293059B013305939DF8133019467C
:109088000398FFF78DFF029B1B788DF813309DF82E
:109098001330002BEBD100BF07B05DF804FB0000D4
:1090A80000B589B00390029101920093029B079347
:1090B8000123069307E0079A019BB2FBF3F307939A
:1090C800069B01330693079A019B9A42F3D2009AB2
:1090D800069B9A4201D9009B06930B9B03F0010360
:1090E800002B22D10A9B002B1FD00B9B03F00203FD
:1090F800002B06D0009B002B03D130238DF81730AE
:1091080002E020238DF8173008E00A9B013B0A9300
:109118009DF8173019460398FFF742FF0A9B002B6A
:1091280003D0069A0A9B9A42EFD301230793009B28
:10913800012B03D9009B013B009309E0029A079B8E
:10914800B2FBF3F30493049A019B9A4200D205E020
:10915800079B019A02FB03F30793E8E7029A079B30
:10916800B2FBF3F30493049B079A02FB03F3029AFE
:10917800D31A0293154A049B13441B781946039883
:10918800FFF70EFF079A019BB2FBF3F30793079BC8
:10919800002BE3D10B9B03F00103002B11D00A9B9A
:1091A800002B0ED006E00A9B013B0A93202103986E
:1091B800FFF7F6FE0A9B002B03D0069A0A9B9A42F9
:1091C800F1D300BF09B05DF804FB00BF4C550300A4
:1091D80000B589B00590049103920293049B002B7B
:1091E800B8BF5B4206930123079307E0039B069AE7
:1091F80092FBF3F30693079B01330793039B069AAD
:109208009A42F3DA029A079B9A4201D9029B079382
:109218000A9B002B0AD0049B002B04DB0B9B03F05A
:109228000403002B02D00A9B013B0A930B9B03F01B
:109238000203002B02D0029B002B16D00B9B03F0DD
:109248000103002B11D10A9B002B0ED006E00A9BCC
:10925800013B0A9320210598FFF7A2FE0A9B002BE9
:1092680003D0079A0A9B9A42F1D3049B002B07DA92
:10927800049B5B4204932D210598FFF791FE08E0BB
:109288000B9B03F00403002B03D02B210598FFF759
:1092980087FE0B9B03F00203002B19D00B9B03F0F6
:1092A8000103002B14D1029B002B11D10A9B002B28
:1092B8000ED006E00A9B013B0A9330210598FFF780
:1092C8006FFE0A9B002B03D0079A0A9B9A42F1D3A0
:1092D80004990B9B01930A9B0093029B039A0598A0
:1092E800FFF7DEFE00BF09B05DF804FB00B58FB0E4
:1092F800059004910392059B002B04D1C8494FF4B3
:109308009F7004F019FA059B5B69002B04D1C449CE
:109318004FF4A07004F010FA059B1B68002B04D1D1
:10932800BF4940F2411004F007FA059B5B68002B27
:1093380004D1BB494FF4A17004F0FEF9049B002B43
:1093480000F0ED81049B1B788DF83730049B0133C6
:1093580004939DF83730002B00F0D8819DF8373002
:10936800252B40F0C78100230A9301230C93049B0B
:109378001B788DF837309DF837302D2B04D0302BE3
:109388000AD02B2B10D017E00A9B43F001030A9355
:10939800049B0133049312E00A9B43F002030A93EF
:1093A800049B013304930AE00A9B43F004030A93E5
:1093B800049B0133049302E000230C9300BF0C9B31
:1093C800002BD4D1002309939DF837302A2B0CD1D8
:1093D800039B1B68191D039A11601B68099A1344A3
:1093E8000993049B013304931AE0049B1B788DF8BE
:1093F80037309DF837302F2B12D99DF83730392B5D
:109408000ED8049B01330493099A13469B00134416
:109418005B001A469DF837301344303B0993D3E775
:1094280000230B93049B1B788DF837309DF8373059
:109438002E2B1DD1049B01330493049B1B788DF8BC
:1094480037309DF837302F2B12D99DF83730392B0C
:109458000ED8049B013304930B9A13469B001344C4
:109468005B001A469DF837301344303B0B93E4E712
:10947800049B1B788DF837309DF837306C2B03D060
:109488009DF83730682B07D1049B01330493049B64
:109498001B788DF83730EFE79DF83730253B532B95
:1094A80000F2238101A252F823F000BFE9960200DE
:1094B800F3960200F3960200F3960200F396020078
:1094C800F3960200F3960200F3960200F396020068
:1094D800F3960200F3960200F3960200F396020058
:1094E800F3960200F3960200F3960200F396020048
:1094F800F3960200F3960200F3960200F396020038
:10950800F3960200F3960200F3960200F396020027
:10951800F3960200F3960200F3960200F396020017
:10952800F3960200F3960200F3960200F396020007
:10953800F3960200F3960200F3960200F3960200F7
:10954800F3960200F3960200F3960200F3960200E7
:10955800F3960200F3960200F3960200F3960200D7
:10956800F3960200F3960200F3960200F3960200C7
:10957800F3960200F396020075960200F396020035
:10958800F3960200F3960200F3960200F3960200A7
:10959800F3960200F3960200F3960200F396020097
:1095A800F3960200059602002D960200F39602003B
:1095B800F3960200F3960200F39602002D9602003D
:1095C800F3960200F3960200F3960200F396020067
:1095D800F3960200F3960200B5960200F396020095
:1095E800F396020099960200F39602005196020043
:1095F800F3960200F396020075960200039B1B681F
:10960800191D039A11601B680C930C9B8DF81F3071
:109618009DF81F3019460598FFF7C2FC66E000BFA9
:10962800F4540300039B1B68191D039A11601B68FF
:109638000C930A9B0193099B00930B9B0A220C999C
:109648000598FFF7C5FD51E0039B1B68191D039A98
:1096580011601B680C930C990A9B0193099B00935A
:109668000B9B0A220598FFF71BFD3FE0039B1B6835
:10967800191D039A11601B680C930C990A9B01939E
:10968800099B00930B9B10220598FFF709FD2DE01D
:10969800039B1B68191D039A11601B6808930A9B9A
:1096A800099A08990598FFF799FC1FE0039B1B6826
:1096B800191D039A11601B680C9330210598FFF758
:1096C8006FFC78210598FFF76BFC0C990023019338
:1096D80008230093082310220598FFF7E1FC05E012
:1096E80025210598FFF75CFC00E000BF049B0133CF
:1096F800049305E09DF8373019460598FFF750FCAC
:10970800049B1B78002B7FF41DAE00E000BF059B77
:109718001B7B002B04D00598FFF7E6FB00E000BF99
:109728000FB05DF804FB00BF29DF704700BF184683
:1097380028DF704700BF184600B589B00190009136
:10974800019B1B689B68002B35D002AB00221A6076
:109758005A609A60DA601A615A61009B0393019B10
:109768009B680793019B1B79002B02D0012B0DD01E
:109778001AE001238DF80830019B1B690493019BB3
:10978800DB680593019B5B6906930DE002238DF866
:109798000830019BDB684FF4805202FB03F304930B
:1097A800019B5B69069300BF019B1B689B6802AA2B
:1097B8001046984700E000BF09B05DF804FB00B50B
:1097C80087B00190019B5A69019B9B69D31AB3F535
:1097D800805F28BF4FF4805305930422059BB3FB99
:1097E800F2F3012B38BF01230593019B1A69019BF2
:1097F8009B6913440493019BDB681A46019B9B6990
:1098080013440393059A03990498FFF78DFF0346C1
:10981800184607B05DF804FB00B583B00190019BC2
:10982800DA68019B1B6913441846FFF781FF03465A
:10983800184603B05DF804FB08B5034B0349184606
:10984800FFF73FF900BF08BD4C47012074470120CE
:1098580008B5084B08491846FFF71AF90246074B9E
:109868001A60064B1B68002B14BF01230023DBB2D0
:10987800184608BD4C470120744701207047012055
:1098880000B583B02A4B1B7A002B0BD1FFF7E0FF02
:10989800034683F00103DBB2002B03D0244B0022E4
:1098A8005A6042E0224B02221A72224B1B681B7933
:1098B800002B02D0012B07D00DE01E4B1B68184669
:1098C800FFF77DFF019009E01A4B1B681846FFF768
:1098D800A3FF019002E00323019300BF019B002B2B
:1098E80002D0112B0CD00FE0114B1B7C83F001032D
:1098F800DBB2002B18D00021022000F06FF813E033
:109908000B4B01221A7210E00A4B1B680321184600
:10991800FFF712FF064B00221A72054B00225A600D
:10992800FFF78AFF00BF00E000BF03B05DF804FB4B
:109938005C4701207047012084B001901B4B002236
:10994800DA60019B1B79002B02D0012B19D028E08B
:10995800019B5A69019B9B69D31AB3F5805F28BFA5
:109968004FF480530393019B9A69039B1A44019B0C
:109978009A61019B9A69019B5B699A420ED1012306
:1099880010E0019B1B695A1C019B1A61019B1A6913
:10999800019B5B699A4203D1012303E000BF00E009
:1099A80000BF0023184604B0704700BF5C47012081
:1099B80082B00190084BDB680133074AD360064B3D
:1099C800DB68082B04D9044B0022DA60012300E08D
:1099D8000023184602B070475C47012000B585B0E7
:1099E80001900091019B022B02D0019B032B49D1CE
:1099F800274B1B7A012B35D0022B02D0002B43D0EA
:109A080033E000238DF80F30019B022B02D0032B8B
:109A180009D011E01F4B1B681846FFF78DFF03465E
:109A28008DF80F3008E01B4B1B681846FFF7C0FF86
:109A380003468DF80F3000BF9DF80F30002B13D070
:109A4800134B00221A72134B1A68019B022B01D187
:109A5800002300E00D2319461046FFF76DFEFFF7BF
:109A6800EBFE01E000BF00E000BF094B5B7C83F028
:109A78000103DBB2002B02D0FFF702FF05E00AF07A
:109A880037FA02E000BF00E000BF05B05DF804FB54
:109A98005C4701207047012082B0034600918DF891
:109AA8000730064B01225A74044B1B7A002B0CBF5B
:109AB80001230023DBB2184602B070475C4701203F
:109AC80000B583B0034600918DF807309DF8073044
:109AD800012B03D09DF80730032B0DD1084B002232
:109AE8005A749DF80730012B0CBF01230023DAB20A
:109AF800034B1A74FFF7C4FE00BF03B05DF804FB04
:109B08005C47012000B583B001900091019B002BB8
:109B180003D11049502003F00FFE009B002B03D106
:109B28000C49512003F008FE019B009A1A60019B22
:109B38001B681A68019B5A60019B5A68019B1B6845
:109B48005B689A4202D1019B00225A6000BF03B0B1
:109B58005DF804FB1058030000B583B00190019B29
:109B6800002B03D11449632003F0E6FD019B1B6819
:109B7800002B03D11049642003F0DEFD019B5B68D4
:109B8800002B14D0019B5B681A46019B1B689B68DD
:109B980013441A46019B5A60019B5A68019B1B6833
:109BA8005B689A4204D1019B00225A6000E000BF22
:109BB80003B05DF804FB00BF1058030000B585B082
:109BC8000190019800F00EF80390039B002B01D040
:109BD800039B00E0024B184605B05DF804FB00BF8C
:109BE8008458030086B00190164B0593164B0493D6
:109BF8001FE0049A059BD31ADB10DA0F13445B109D
:109C0800DB00059A13440393039B1B680293029A93
:109C1800019B9A4202D9039B04930AE0029A019B92
:109C28009A4203D2039B0833059302E0039B5B68C7
:109C380004E0059A049B9A42DBD30023184606B039
:109C4800704700BF845C0300AC5D030000B587B0BB
:109C58000390029113468DF8073000230593039B68
:109C68001B781A46114B9B5C002B09D0039B0433CD
:109C78009DF807200299184603F046F905900FE071
:109C8800039B1B781A46094B9B5C002B08D1039B4E
:109C98000C339DF807200299184602F0E3FA059064
:109CA800059B184607B05DF804FB00BFB4470120C8
:109CB80000B585B0019000238DF80F30019B1B780B
:109CC8001A46114B9B5C002B08D0019B04331846A5
:109CD80003F0C4F903468DF80F300EE0019B1B78A2
:109CE8001A46094B9B5C002B07D1019B0C33184685
:109CF80002F040FB03468DF80F309DF80F301846F0
:109D080005B05DF804FB00BFB447012000B587B07B
:109D18000390029113468DF8073000230593039BA7
:109D28001B781A46114B9B5C002B09D0039B04330C
:109D38009DF807200299184603F0A8F905900FE04E
:109D4800039B1B781A46094B9B5C002B08D1039B8D
:109D58000C339DF807200299184602F063FB059022
:109D6800059B184607B05DF804FB00BFB447012007
:109D780084B00190019B9B680393019BDA68039B65
:109D8800D31A184604B0704700B587B00190009107
:109D9800019B1B78012B04D0022B38D0002B47D015
:109DA8005CE0019B5B681B7819462E4800F0A1F91E
:109DB8000590059B002B0AD001238DF80C30059BDC
:109DC8000493294B1B6803AA104698470DE02548C1
:109DD800FFF7CEFF0346002B07D000238DF80C3089
:109DE800214B1B6803AA104698471E48FFF7C0FF7F
:109DF80002461C4B9B889A4205D801221B491C48E5
:109E0800FFF784FF2AE01B4B01221A7026E0022389
:109E18008DF80C30019BDB68049301221349144828
:109E2800FFF774FF104B1B6803AA1046984715E00C
:109E38001149124800F078F90346002B05D1012298
:109E48000D490B48FFF702FF07E003238DF80C309C
:109E5800054B1B6803AA1046984700BF00BF07B010
:109E68005DF804FB844701207847012080470120E2
:109E7800A8120120814701207C4701209447012036
:109E880030B591B00390029101928DF803303C4AAD
:109E9800019B1360029B002B01D107236DE0029BFD
:109EA8001968029B5B689BB21A46364800F0F5F8C1
:109EB8000F900F9B0E930E9B002B01D00E9B5CE026
:109EC800029B9968029BDB689BB21A462E4800F0F9
:109ED800E4F80F900F9B0D930D9B002B01D00D9B69
:109EE8004BE02A4B04AC1D460FCD0FC495E80F007C
:109EF80084E80F00039B5B690A93039B1B7C002B80
:109F080014BF01230023DBB28DF824309DF8033001
:109F18008DF82C30039B5B7C002B01D00E2300E0D6
:109F280000238DF82530039BDB680693039B9B6811
:109F38000793039B1B680593039B5B68049304AB1F
:109F4800134A1946134800F081FE0F900F9B0C939B
:109F58000C9B002B01D00C9B0FE00F4B00221A70BA
:109F6800039B1B68B3F1FF3F06D001220B49094848
:109F7800FFF7CCFE034600E00023184611B030BDC1
:109F8800784701208447012094470120AC5D0300F5
:109F9800919D0200A81201208147012080470120DD
:109FA80000B585B003468DF807309DF8073019468F
:109FB800104800F09EF80390039B002B15D10E4823
:109FC800FFF776FE034683F00103DBB2002B0CD0CB
:109FD8000A49084800F0A8F80346002B05D10122D9
:109FE80006490548FFF732FE0390039B184605B063
:109FF8005DF804FB94470120A81201207C4701204A
:10A0080084B00190019B9B680393019BDA68039BD2
:10A01800D31A184604B0704782B001900B468DF8E9
:10A028000330019B1A68019BDB68019989880B4002
:10A0380013449DF803201A70019BDB685A1C019B8E
:10A04800DA6000BF02B0704784B003900B460192FB
:10A05800ADF80A30039B1A68039B9968BDF80A306B
:10A068000B44039989880B4013441A78019B1A7092
:10A0780000BF04B0704700B583B001900091009A0A
:10A0880000210198FFF7E0FF019B9B685A1C019B88
:10A098009A6000BF03B05DF804FB84B0039002919E
:10A0A8001346ADF80630029B002B01D10E231DE0AC
:10A0B800BDF80630002B07D0BDF806305A1EBDF893
:10A0C80006301340002B01D009230FE0039B029AAE
:10A0D8001A60BDF80630013B9AB2039B9A80039B35
:10A0E80000229A60039B0022DA600023184604B01D
:10A0F800704700B583B001900B468DF80330019886
:10A10800FFF77EFF0246019B9B889A4207D89DF87D
:10A11800033019460198FFF77FFF002300E004236E
:10A12800184603B05DF804FB00B583B001900091B8
:10A138000198FFF765FF0346002B05D000990198A9
:10A14800FFF799FF002300E00523184603B05DF8E8
:10A1580004FB00B583B001900198FEF7EBFD0346C0
:10A16800184603B05DF804FB00B58BB00190009170
:10A17800019B1B8A043B0793009A079B1344DA1C34
:10A18800079BB2FBF3F38DF81B300198FEF72EFE08
:10A198000590059B002B01D1002338E0059B002288
:10A1A8001A71059B01225A71079B9AB2059BDA80A6
:10A1B800059B09939DF81B30013B0493099B019A69
:10A1C8001A60002308931DE00198FEF70FFE039024
:10A1D800039B002B0ED0059B5B790133DAB2059BFC
:10A1E8005A71099B039A1A60039B019A1A60039B90
:10A1F800099304E0059800F00EF8002307E0089B97
:10A2080001330893089A049B9A42DDD3059B1846AC
:10A218000BB05DF804FB00B58BB00190019B079370
:10A22800079B5B798DF81B30019B08939DF81B30C9
:10A23800013B05930023099305E0089B1B680893DD
:10A24800099B01330993099A059B9A42F5D3089B08
:10A258001B680493019B0893002309930BE0089B58
:10A268001B68039308990498FEF70AFE039B08935A
:10A27800099B013309939DF81B30099A9A42EED342
:10A2880000BF0BB05DF804FB00B585B00190019BE1
:10A298000393039B043301211846FEF7CCFC00BF4F
:10A2A80005B05DF804FB00B587B00190019B0593EC
:10A2B800059B043301211846FEF7D5FC034603939A
:10A2C80003AB0493049B1B78002B02D10198FFF782
:10A2D800A2FF00BF07B05DF804FB000000B591B015
:10A2E8000390029101920093039B002B03D14349F1
:10A2F800B62003F021FA039B0993039B0F93099B54
:10A30800DB881A46099B5B7903FB02F3043B08933D
:10A31800009A089B9A4203D33849C42003F00CFAE8
:10A32800099BDB880793009B1A1D079BB2FBF3F37D
:10A338000E93009B0433079AB3FBF2F2079901FBD3
:10A3480002F29B1A0D93019B1A68009B1344089A0A
:10A358009A4203D2089A009BD31A01E0019B1B681A
:10A368000C93019B0C9A1A6005E00F9B1B680F93D6
:10A378000E9B013B0E930E9B002BF6D100230B93F3
:10A38800079A0D9BD31A0A930A9A0C9B934228BFEB
:10A3980013460A932AE0029A0B9B134406930F9ADA
:10A3A8000D9B1344043305939DF84830002B05D0CA
:10A3B8000A9A059906980AF020F904E00A9A06997B
:10A3C80005980AF01AF900230D930F9B1B680F9349
:10A3D8000C9A0A9BD31A0C930B9A0A9B13440B935F
:10A3E800079A0C9B934228BF13460A930C9B002B99
:10A3F800D1D100BF11B05DF804FB00BF285E030097
:10A4080000B589B00590049103920293039B0793CA
:10A4180007AA00230093029B04990598FFF75EFFA3
:10A42800079B039A9A4203D00349F62003F084F964
:10A4380000BF09B05DF804FB285E030000B589B0D1
:10A448000590049103920293039B079307AA0123A3
:10A458000093029B04990598FFF740FF079B039A16
:10A468009A4204D004494FF4807003F065F900BFA4
:10A4780009B05DF804FB00BF285E030082B00190BC
:10A48800019B9B6800229A60019B9B6800221A61CD
:10A49800019B9B6800225A61019B9B680022DA603D
:10A4A800019B9B6800225A60019B9B6800221A60EE
:10A4B80000BF02B070470000BFF34F8F054BDB6849
:10A4C80003F4E0620349044B1343CB60BFF34F8F9F
:10A4D80000BFFDE700ED00E00400FA05024B034A67
:10A4E8001A6000BF704700BFBC1201200090D00363
:10A4F80008B500F025F90346002B0ED04FF0804335
:10A508000022C3F80C214FF080430022C3F8102129
:10A518004FF080430022C3F8382500F02FF9034696
:10A52800002B76D04FF080537C4AD3F80434C2F81D
:10A5380020354FF08053794AD3F80834C2F82435CF
:10A548004FF08053754AD3F80C34C2F828354FF0D1
:10A558008053724AD3F81034C2F82C354FF0805328
:10A568006E4AD3F81434C2F830354FF080536B4A32
:10A57800D3F81834C2F834354FF08053674AD3F80B
:10A588001C34C2F840354FF08053644AD3F8203465
:10A59800C2F844354FF08053604AD3F82434C2F8E7
:10A5A80048354FF080535D4AD3F82834C2F84C350B
:10A5B8004FF08053594AD3F82C34C2F850354FF035
:10A5C8008053564AD3F83034C2F854354FF080538C
:10A5D800524AD3F83434C2F860354FF080534F4AAA
:10A5E800D3F83834C2F864354FF080534B4AD3F867
:10A5F8003C34C2F868354FF08053484AD3F84034A9
:10A60800C2F86C354FF08053444AD3F84434C2F84A
:10A61800703500F0D1F80346002B02D0404B414A78
:10A628001A6000F0DBF80346002B03D03E4BFB22F8
:10A63800C3F8182500F0E4F80346002B0AD03B4B7A
:10A648001B6823F00F023A4B1B6803F00F033749CE
:10A6580013430B6000F0E6F80346002B03D0354B9C
:10A668004FF400721A6000F0EFF80346002B0DD08B
:10A678004FF08043D3F8003403F00103002B05D0DA
:10A688004FF080436FF00102C3F800242A4BD3F83F
:10A698008830294A43F47003C2F88830BFF34F8FDB
:10A6A800BFF36F8F4FF01023D3F80032002B05DB78
:10A6B8004FF01023D3F80432002B2BDA1F4B012262
:10A6C800C3F8042500BF1D4BD3F80034002BFAD083
:10A6D8004FF010231222C3F8002200BF174BD3F803
:10A6E8000034002BFAD04FF010231222C3F80422B2
:10A6F80000BF124BD3F80034002BFAD00F4B0022C6
:10A70800C3F8042500BF0D4BD3F80034002BFAD052
:10A71800FFF7D2FEFFF7E2FE00BF08BD00C0004011
:10A728008C5600404881030000F00040E40E0040D1
:10A73800580200104096024000ED00E000E00140A1
:10A748000C4B1B68082B11D10B4B1B68002B01D13C
:10A7580001230CE0084B1B68012B01D1012306E003
:10A76800054B1B68022B01D1012300E00123184689
:10A77800704700BF30010010340100100C4B1B68FB
:10A78800082B11D10B4B1B68002B01D101230CE0C6
:10A79800084B1B68012B01D1012306E0054B1B6800
:10A7A800022B01D1012300E001231846704700BFA6
:10A7B8003001001034010010064B1B68082B05D12E
:10A7C800054B1B68002B01D1012300E0002318462C
:10A7D800704700BF3001001034010010064B1B68A1
:10A7E800082B05D1054B1B68002B01D1012300E084
:10A7F80000231846704700BF3001001034010010D4
:10A80800064B1B68082B05D1054B1B68002B01D193
:10A81800012300E000231846704700BF30010010F4
:10A8280034010010064B1B68082B05D1054B1B682B
:10A83800002B01D1012300E000231846704700BF18
:10A8480030010010340100100C4B1B68082B11D18B
:10A858000B4B1B68002B01D101230CE0084B1B6834
:10A86800012B01D1012306E0054B1B68022B01D106
:10A87800012300E001231846704700BF3001001093
:10A888003401001000B583B00190019B1B682F2B89
:10A8980004D90B494FF4E87002F04EFF019B1B6886
:10A8A8001F2B02D84FF0A04306E0019B1B6803F062
:10A8B8001F02019B1A60034B184603B05DF804FBA6
:10A8C800845E03000003005000B585B0019008467F
:10A8D80011461A4603468DF803300B468DF80230B0
:10A8E80013468DF8013001AB1846FFF7CBFF0390F4
:10A8F8009DF803209DF802305B001A439DF8013053
:10A908009B001A439DF818301B0242EA03019DF888
:10A918001C301B04019A1943039B02F5E07243F8AB
:10A92800221000BF05B05DF804FB00B585B00390A8
:10A93800002301930023009300230122012103989F
:10A94800FFF7C2FF00BF05B05DF804FB00B585B096
:10A9580003900B468DF80B309DF80B2000230193D4
:10A96800002300931346002200210398FFF7ACFF51
:10A9780000BF05B05DF804FB00B585B0019001ABE0
:10A988001846FFF77FFF0390019B012202FA03F3A9
:10A998001946039800F04CF800BF05B05DF804FBB9
:10A9A80000B585B0019001AB1846FFF76BFF039027
:10A9B800019B012202FA03F31946039800F042F8BA
:10A9C80000BF05B05DF804FB00B585B0019001AB90
:10A9D8001846FFF757FF0390039BD3F804350293FB
:10A9E800029BDA43019B012101FA03F31A40039BFE
:10A9F800C3F80825019B01229A40029B1A40039B39
:10AA0800C3F80C2500BF05B05DF804FB00B583B0A2
:10AA180001900091009B002B03D10198FFF7C0FF24
:10AA280002E00198FFF7A8FF00BF03B05DF804FB40
:10AA380082B001900091019B009AC3F8082500BFDD
:10AA480002B0704782B001900091019B009AC3F850
:10AA58000C2500BF02B0704700B583B00190019B80
:10AA6800032B03D90749412002F066FE064A019BE1
:10AA780013441B7800211846FFF7C8FF00BF03B036
:10AA88005DF804FBB85E0300045F030000B583B003
:10AA98000190019B032B03D90749472002F04CFE84
:10AAA800064A019B13441B7801211846FFF7AEFFA5
:10AAB80000BF03B05DF804FBB85E0300045F030049
:10AAC80000B583B00023019305E00198FFF7DEFF8E
:10AAD800019B01330193019B032BF6D900BF03B0FF
:10AAE8005DF804FB00B583B00190019B032B03D9EB
:10AAF80007495F2002F020FE064A019B13441B7899
:10AB08001846FFF761FF00BF03B05DF804FB00BF04
:10AB1800B85E0300045F030000B583B0002301930F
:10AB280009E0094A019B13441B781846FFF7FDFE0C
:10AB3800019B01330193019B032BF2D9FFF7C0FF5F
:10AB480000BF03B05DF804FB045F030000B583B0E9
:10AB5800002301930AE0094A019B13441B7803214F
:10AB68001846FFF7F3FE019B01330193019B032B6A
:10AB7800F1D900BF03B05DF804FB00BF085F030014
:10AB880000B583B00190019B03F00103002B01D0B5
:10AB9800FFF7C2FF019B03F00203002B01D0FFF770
:10ABA800D5FF00BF03B05DF804FB000000B589B015
:10ABB80001900091009B0793019B1B788DF80C3046
:10ABC800019B5B680493019B1B7A8DF81430019BF1
:10ABD800DB680693074A079B52F823300649079A11
:10ABE80051F8221003AA1046984700BF09B05DF833
:10ABF80004FB00BFA4470120AC47012000B589B081
:10AC080001900091009B0793019B1B788DF80C30F5
:10AC1800019B5B680493019B9B68DBB28DF8143041
:10AC2800019BDB680693074A079B52F823300649C5
:10AC3800079A51F8221003AA1046984700BF09B096
:10AC48005DF804FBA4470120AC47012030B58FB064
:10AC5800039002910192039B1B780C932C490C9B47
:10AC6800019A41F82320029B1A692A490C9B41F852
:10AC780023200C9B012B07D1029B5B7F002B03D168
:10AC88002549762002F058FD029B5B7F1946234A2E
:10AC98000C9B13440A461A70029B04AC1D460FCD48
:10ACA8000FC495E80F0084E80F000C9B089300235D
:10ACB8000D93039B1B781A46184B9B5C002B0DD0F9
:10ACC800039B181D019B002B01D0154A00E00022B0
:10ACD80004AB194602F0B2F80D9014E0039B1B7800
:10ACE8001A460E4B9B5C002B0DD1039B03F10C0005
:10ACF800019B002B01D00B4A00E0002204AB19464F
:10AD080001F0FEF90D900D9B18460FB030BD00BF45
:10AD1800A4470120AC4701200C5F0300B447012081
:10AD2800B5AB020005AC020082B001904FF0804242
:10AD3800019BC2F8083300BF02B0704784B00346D5
:10AD4800ADF80630BDF8063003F1804300221A60E2
:10AD5800BDF8063003F180431B680393039B00BFD3
:10AD680004B0704782B00346ADF80630BDF806302F
:10AD780003F180431B68002B14BF01230023DBB2BF
:10AD8800184602B07047000008B54FF48070FFF70E
:10AD9800E9FF0346002B14D04FF48070FFF7CEFF75
:10ADA8000120FFF7C1FF114B5B7983F00103DBB290
:10ADB800002B06D00D4B01225A710C4B1B6800204A
:10ADC80098474FF48270FFF7CDFF0346002B0AD057
:10ADD8004FF48270FFF7B2FF0220FFF7A5FF034B85
:10ADE8001B680120984700BF08BD00BFB847012075
:10ADF80082B003468DF807309DF8073003F01F0234
:10AE080005499DF907305B09012000FA02F241F873
:10AE1800232000BF02B0704700E100E082B0034683
:10AE28008DF807309DF8073003F01F0206499DF999
:10AE380007305B09012000FA02F2603341F8232051
:10AE480000BF02B0704700BF00E100E082B00346D7
:10AE580000918DF807309DF90730002B0CDA009B24
:10AE6800DAB20C499DF8073003F00F03043B520196
:10AE7800D2B20B441A7609E0009BDAB206499DF972
:10AE880007305201D2B20B4483F8002300BF02B04E
:10AE9800704700BF00ED00E000E100E000B583B0BE
:10AEA80003460A468DF8073013468DF806309DF89C
:10AEB8000630012B03D99DF80630032B0BD99DF8DA
:10AEC8000630042B03D99DF80630072B03D908490F
:10AED8006B2002F031FC9DF806209DF907301146E1
:10AEE8001846FFF7B3FF00BF03B05DF804FB00BFCF
:10AEF800F85F030000B583B003468DF807309DF96D
:10AF080007301846FFF78AFF9DF907301846FFF704
:10AF18006FFF00BF03B05DF804FB00B583B00346C4
:10AF2800ADF80630BDF80630184600F026F803469E
:10AF38001B68012B0CBF01230023DBB2184603B0AA
:10AF48005DF804FB00B585B00346ADF80630BDF8E2
:10AF58000630184600F011F803461A46002313601D
:10AF6800BDF80630184600F008F803461B6803933E
:10AF7800039B00BF05B05DF804FB82B00346ADF843
:10AF88000630BDF8063003F1804303F5C043184688
:10AF980002B0704782B00190034A019BC2F80433A3
:10AFA80000BF02B0704700BF0060004082B001904F
:10AFB800034BD3F80423019B1340184602B0704793
:10AFC8000060004082B00190084A019B03F5A2731B
:10AFD80052F82330054943F00102019B03F5A2739F
:10AFE80041F8232000BF02B0704700BF0060004056
:10AFF80084B00390029113468DF80730144A039BDE
:10B0080003F5A27352F82330114923F44F3323F484
:10B018004073039A02F5A27241F822300C4A039B4E
:10B0280003F5A27352F82320029B1B0203F47C5100
:10B038009DF807301B0403F440330B4304491A43BB
:10B04800039B03F5A27341F8232000BF04B07047A7
:10B058000060004082B00190054A019B03F5A2738D
:10B0680052F823301B0A03F03F03184602B070471A
:10B078000060004082B00190064A019B03F5A2736C
:10B0880052F823301B0C03F00303DBB2184602B05E
:10B09800704700BF0060004000B583B00190019B7D
:10B0A8001B682F2B04D90B494FF4E87002F044FBBE
:10B0B800019B1B681F2B02D84FF0A04306E0019BA1
:10B0C8001B6803F01F02019B1A60034B184603B06C
:10B0D8005DF804FB2C6003000003005000B585B048
:10B0E8000190084611461A4603468DF803300B4670
:10B0F8008DF8023013468DF8013001AB1846FFF782
:10B10800CBFF03909DF803209DF802305B001A43A3
:10B118009DF801309B001A439DF818301B0242EA43
:10B1280003019DF81C301B04019A1943039B02F587
:10B13800E07243F8221000BF05B05DF804FB00B5CB
:10B1480085B003900B468DF80B309DF80B2000233B
:10B158000193002300931346002200210398FFF770
:10B16800BDFF00BF05B05DF804FB00B585B00190D8
:10B1780001AB1846FFF790FF0390019A039B02F575
:10B18800E07253F8223023F002030293019A039BE2
:10B1980002F5E072029943F8221000BF05B05DF88D
:10B1A80004FB00B585B001900B468DF8033001AB68
:10B1B8001846FFF771FF0390019A039B02F5E072AE
:10B1C80053F82230019A23F44031039B02F5E072D0
:10B1D80043F82210019A039B02F5E07253F82230DB
:10B1E8009DF8032012041146019A1943039B02F5A6
:10B1F800E07243F8221000BF05B05DF804FB00B50B
:10B2080085B0019001AB1846FFF746FF03900398FD
:10B2180000F020F80246019B22FA03F303F0010331
:10B22800184605B05DF804FB00B585B0019001AB88
:10B238001846FFF731FF0390019A039B02F5E0726D
:10B2480053F822301B0C03F00303DBB2184605B099
:10B258005DF804FB82B00190019BD3F810351846C5
:10B2680002B0704700B589B0039002910192174A65
:10B2780005AB92E8030083E80300039A029B13449A
:10B28800022B04D9124940F2F12002F055FA039B2F
:10B29800079311E0079B9B0008AA134453F80C3C42
:10B2A8001846FFF7D7FF0246019B1A60019B04333B
:10B2B8000193079B01330793039A029B1344079A50
:10B2C8009A42E7D300BF09B05DF804FB6060030051
:10B2D8002C60030084B001900091009B0393019BB4
:10B2E800DB080293019B03F0070301930122019BF2
:10B2F80002FA03F30399029A0A4412781340184693
:10B3080004B0704784B001900091009B0393019BA7
:10B31800DB080293019B03F007030193039A029B46
:10B3280013441B785AB20121019B01FA03F35BB263
:10B33800134359B2039A029B1344CAB21A7000BF4E
:10B3480004B0704782B001900C4A019B134430331B
:10B3580093F90030002B09DB084A019B1344303372
:10B3680093F90030072B01DC012300E0002303F0F0
:10B378000103DBB2184602B0704700BFC047012086
:10B3880082B00190064A019B1344303393F9003090
:10B39800072BCCBF01230023DBB2184602B070474D
:10B3A800C047012082B00190064A019B1344303304
:10B3B80093F90030DB43DBB2DB09DBB2184602B09D
:10B3C800704700BFC047012084B0039002910192EA
:10B3D8008DF80330029B59B20E4A039B1344303355
:10B3E8000A461A700B49029B019A41F823209DF8DE
:10B3F800033083F00103DBB2002B08D0029B083B2B
:10B40800039A51B2034A13440A4683F8602000BFE6
:10B4180004B07047C047012082B00190044A019BE4
:10B4280013443033FF221A7000BF02B0704700BFC8
:10B43800C047012000B583B0019004490198FFF787
:10B4480061FF00BF03B05DF804FB00BF2448012082
:10B4580082B00190044A019B1344303393F90030C1
:10B46800184602B0704700BFC047012082B0019063
:10B47800034A019B52F82330184602B0704700BFB8
:10B48800C047012000B589B00390029113468DF89A
:10B498000730FF238DF81F309DF80730002B01D0AF
:10B4A800002300E0082305939DF80730002B01D006
:10B4B800082300E00C230493059B069314E00F4A2D
:10B4C800069B52F82330B3F1FF3F0AD19DF80730AD
:10B4D800029A06990398FFF777FF069B8DF81F30AD
:10B4E80006E0069B01330693069A049B9A42E6D32C
:10B4F8009DF91F30184609B05DF804FBC0470120CC
:10B5080082B003468DF807309DF80730094A4FF09E
:10B51800FF3142F823109DF80730072B07D99DF813
:10B528000730083B034A1344FF2283F8602000BF1A
:10B5380002B07047C047012000B583B0254B93F88F
:10B548006A30002B03D008230193019B3EE00023BF
:10B558008DF8033009E09DF803301846FFF75CFFCB
:10B568009DF8033001338DF803309DF803302F2BFD
:10B57800F1D900238DF8033009E09DF8033018460F
:10B58800FFF7BEFF9DF8033001338DF803309DF8B7
:10B5980003300B2BF1D9062200210F4809F056F889
:10B5A80007210620FFF77AFC0620FFF7A3FC4FF4DB
:10B5B800BE70FFF7C7FC4FF00040FFF7EBFC054BF0
:10B5C800012283F86A2000230193019B184603B0E7
:10B5D8005DF804FBC047012024480120044B93F880
:10B5E8006A30002B14BF01230023DBB218467047D2
:10B5F800C047012000B587B0039002910192039BD8
:10B608002F2B04D936494FF4017002F095F8002326
:10B6180005930398FFF7C6FE0346002B02D00823C4
:10B62800059357E0029B9B78C3F34003DBB21A46AD
:10B6380001990398FFF726FF03468DF813309DF90B
:10B648001330B3F1FF3F43D0029B9B78C3F38003D1
:10B65800DBB283F00103DBB2002B13D0029B9B7893
:10B6680003F00103DBB2002B03D00398FFF77DFD45
:10B6780005E0029B5B7819460398FFF760FD039885
:10B68800FFF7D8FE029B9B7803F00203DBB2002B86
:10B6980008D09DF91300029B1B781A460399FFF7FF
:10B6A800A7FC17E09DF91330083B0E4A134493F9A1
:10B6B8006010029B1B789B015AB29DF91330083B1E
:10B6C8000A4351B2074A13440A4683F8602001E04E
:10B6D80004230593059B184607B05DF804FB00BFDB
:10B6E80070600300C047012000B589B001900B4687
:10B6F8008DF80330019B2F2B04D93D494FF40D7071
:10B7080002F01AF80198FFF74DFE0346002B04D10A
:10B71800374940F2352002F00FF80198FFF730FE64
:10B728000346002B2FD00198FFF792FE0346083BF3
:10B73800304A134493F960308DF80F309DF80F307C
:10B748009B098DF80E309DF80E30032B0BD1019814
:10B75800FFF755FD0346002B01D0032300E0022329
:10B768008DF81F3008E09DF80E30012B01D102231F
:10B7780000E003238DF81F309DF81F30194601980B
:10B78800FFF70FFD30E00198FFF7DCFD0346002BC3
:10B798002AD00198FFF75CFE03460693069B9BB2EE
:10B7A80040339BB29B00ADF81630069B1846FFF756
:10B7B80009FCBDF816301846FFF7C4FB9DF80330A6
:10B7C800002B11D00198FFF743FE03461846FFF7F8
:10B7D8004DFE0490049B002B06D00122069B02FA22
:10B7E80003F31846FFF7D6FB00BF09B05DF804FB6A
:10B7F80070600300C047012000B583B00190019B31
:10B808002F2B04D9084940F2852001F095FF0198B3
:10B81800FFF7F5FC0346002B14BF01230023DBB21E
:10B82800184603B05DF804FB7060030000B599B0DA
:10B838000023149306AB00221A605A604FF48073F9
:10B84800ADF84A30012316930023139321E0BDF885
:10B858004A301846FFF761FB0346002B0ED01698B6
:10B86800FFF7A4FB0346002B08D0BDF84A30184662
:10B87800FFF768FB149A169B13431493169B5B00FF
:10B888001693BDF84A300433ADF84A30139B0133A0
:10B898001393139B072BDAD94FF4BE70FFF73DFBC8
:10B8A8000346002B0DD04FF4BE70FFF74BFB149BE3
:10B8B80043F00043149306AB1A4602210020FFF719
:10B8C800D1FC149BDBB2002B29D001231693002353
:10B8D800139321E0169A149B1340002B16D013984B
:10B8E800FFF7B8FB11901398FFF7C4FB03468DF8D8
:10B8F80043301398FFF7BAFD0F900F9B002B05D02C
:10B908009DF843200F9B114611989847169B5B00A2
:10B918001693139B01331393139B072BDAD9149BAC
:10B92800002B80F2F08000238DF85F3004AB0022FA
:10B938001A605A60002315930AE0159B9B0018AA09
:10B9480013444FF0FF3243F8582C159B01331593DD
:10B95800159B012BF1D900238DF85F300023139339
:10B9680078E06B4A139B1344603393F900308DF8E9
:10B978003B309DF83B3023F0C0030D93644A139B82
:10B988001344603393F90030B3F1FF3F5FD002AB4B
:10B9980019460D98FFF79EFC0346002B57D09DF8DB
:10B9A8003B309B098DF833300D98FFF751FD034666
:10B9B8001846FFF75BFD0B900B9B002B03D19DF8FE
:10B9C8003330032B43D19DF83330032B04D104AB20
:10B9D80019460D98FFF796FC0D98FFF725FC0346CE
:10B9E8008DF82B3006AB19460D98FFF773FC0990BC
:10B9F800099B002B03D09DF82B30022B06D0099B06
:10BA0800002B24D19DF82B30032B20D19DF8333007
:10BA1800032B13D19DF82B30022B01D1032300E017
:10BA280002238DF823309DF8233019460D98FFF72F
:10BA3800B8FB9DF85F3001338DF85F300B9B002B0E
:10BA480005D09DF833200B9B11460D989847139B02
:10BA580001331393139B032B83D99DF85F30002B7D
:10BA68004CD001238DF85E306B461A460221002027
:10BA7800FFF7F8FB0023159314E0159B9B0018AA09
:10BA8800134453F8602C159B9B0018A90B4453F8DA
:10BA9800483C9A4203D000238DF85E3005E0159BA0
:10BAA80001331593159B012BE7D99DF85E30002BC8
:10BAB80003D000238DF85F3020E0002315931AE0AF
:10BAC800159B9B0018AA134453F8602C159B9B00E8
