:020000022000DC
:106000000000042079630200616302006363020000
:10601000656302006763020069630200000000001C
:106020000000000000000000000000006B630200A0
:106030006D630200000000006F63020071630200E4
:1060400039A002007363020019AD0200A1AE020084
:10605000736302007363020031AA020073630200DB
:1060600073630200736302007363020073630200D0
:1060700073630200736302007363020073630200C0
:10608000736302008D830200736302007363020076
:10609000CD830200736302003DE9020073630200D6
:1060A0007363020073630200736302007363020090
:1060B00099B70200736302000000000000000000B6
:1060C0007363020073630200736302007363020070
:1060D0007363020073630200736302007363020060
:1060E0007363020073630200736302000000000028
:1060F00000000000736302000000000073630200F0
:10610000000000000000000000000000000000008F
:10611000000000000000000000000000000000007F
:10612000000000000000000000000000000000006F
:10613000000000000000000000000000000000005F
:10614000000000000000000000000000000000004F
:10615000000000000000000000000000000000003F
:10616000000000000000000000000000000000002F
:10617000000000000000000000000000000000001F
:10618000000000000000000000000000000000000F
:1061900000000000000000000000000000000000FF
:1061A00000000000000000000000000000000000EF
:1061B00000000000000000000000000000000000DF
:1061C00000000000000000000000000000000000CF
:1061D00000000000000000000000000000000000BF
:1061E00000000000000000000000000000000000AF
:1061F000000000000000000000000000000000009F
:10620000364937480A1A02D0072291438D4635494C
:1062100035480A1A06D00722914381F309880222E1
:1062200082F3148831483249324A00F045F8324846
:106230003249334A00F040F832483349334A00F0DB
:106240003BF833483349344A00F036F83348344990
:10625000344A00F031F834483449354A00F02CF81B
:1062600034483549354A00F027F835483549002289
:1062700000F02DF834483549002200F028F8344861
:106280003449091A082903DB002202600430016046
:10629000314A90471F482049884205D0026804309F
:1062A00003B4904703BCF7E700208646EC46002085
:1062B00000212A4A9047FEE7884207D0521A05D0AB
:1062C000037801300B700131013AF9D170478842EF
:1062D00002D002700130FAE770470000000004208D
:1062E00000E003200000042000000420401C030004
:1062F000E0220020C8230020D8630200D8630200F7
:10630000640D0300401C0300E0220020E022002076
:10631000480E0300480E0300480E0300480E030019
:10632000480E0300480E0300480E0300480E030009
:10633000401C0300281D0300C8230020C8230020A0
:10634000C8230020004F0020004F0020044F0020F1
:10635000044F0020046F0020A163020055C3020017
:10636000FEE7FEE7FEE7FEE7FEE7FEE7FEE7FEE705
:10637000FEE7FEE7704700BF1048804710484FF027
:106380000701884385460F4880470F48016841F45C
:1063900070010160BFF34F8FBFF36F8FFFF730BF06
:1063A0000A480B490B4A884207D0521A05D0037895
:1063B00001300B700131013AF9D170477563020069
:1063C000000004207195020088ED00E0480E0300F3
:0863D000E0220020E022002081
:1063D80000487047F84E002000B585B00190019B39
:1063E800002B0AD0074B43F001030393019B9B0149
:1063F8000293039B0298984700E000BF05B05DF840
:1064080004FB00BF600E030000B583B00190019B40
:10641800002B0AD04FF47A70FFF7DEFF019B013B97
:106428000193019B002BF5D100E000BF03B05DF89C
:1064380004FB08B506F03EF900BF08BD00B589B0F9
:10644800039002910192019B002B33D00023079304
:1064580003230693029A079B1344019A19460020C6
:1064680006F0DAF80590079A059B13440793019AFA
:10647800059BD31A0193059B002B13D10F4B1B7857
:1064880083F00103DBB2002B13D10120FFF7BCFF1F
:10649800069B013B0693069B002B03D1074B00226A
:1064A8001A7007E0054B01221A70019B002BD1D10D
:1064B80000E000BF00BF09B05DF804FBC82300205E
:1064C80000B585B003900291054B00934023054A1F
:1064D8000299039800F012F800BF05B05DF804FBBC
:1064E80045640200CC23002082B0019000BF02B0B6
:1064F800704782B0019000BF02B0704700B5A1B0EC
:106508000590049103920293049802F0A4FE039B61
:106518001593029B16930023179300238DF8603080
:1065280000231993229B1A9300231F930FA91F9BE3
:106538000822049802F04CFF08231F93119B129322
:10654800BDF84030ADF84C30BDF84230ADF84E30B3
:1065580000238DF851309DF83C3003F00303DBB283
:10656800012B26D10F9BC3F395231C939DF83C3038
:10657800C3F3C203DBB28DF85030BDF83C30C3F32F
:106588008313DBB21B931B9B9A0009A91F9B0498DA
:1065980002F01EFF1B9B9B001F9A13441F9312AA15
:1065A80009A915AB009313461B9A1C9800F09CFE92
:1065B8002FE09DF83C3003F00303DBB2022B28D117
:1065C800BDF83E30C3F389139BB21E939DF83C304F
:1065D800C3F3C203DBB28DF850301E9B082B28BFD3
:1065E80008231D9307A91F9B1D9A049802F0F0FE2B
:1065F8001F9A1D9B13441F931E9A1D9BD31A1E930B
:1066080015AB12AA07A81D9900F010FF1E9B002BBE
:10661800E3D1049802F02EFE00BF21B05DF804FB20
:1066280082B00190019BDB6801225A7100BF02B061
:106638007047000000B583B04FF0FF330193FFF7B8
:10664800F8FE0421054800F06BFD01900348FFF7B0
:10665800E7FF00BF03B05DF804FB00BF380E03007E
:1066680000B583B001900091019B1B681B680099DD
:106678000198984700BF03B05DF804FB00B583B0EC
:106688000190019B1B685B680198984700BF03B0A5
:106698005DF804FB00B583B00190019B1B689B6803
:1066A8000198984700BF03B05DF804FB82B00190E1
:1066B8000B468DF80330019BDB689DF803201A71A7
:1066C80000BF02B0704782B00190019BDB681B7964
:1066D800184602B0704782B00190019BDB68012226
:1066E8005A7100BF02B0704782B00190019BDB680D
:1066F8005B79184602B0704700B585B001900091EB
:10670800154BFF229A60144B00221A60124B00228C
:106718005A60114B0022C3F818240F4B0022C3F80B
:1067280014240D4B002283F820240C4802F0F8FCB6
:106738000390039B002B01D0039B08E0084802F05C
:106748005BFE084A084BD31ADB080293002318465D
:1067580005B05DF804FB00BF74250020AC0D0300F4
:10676800780E0300380E0300C00D0300024A034BE5
:10677800D31ADB0818467047380E0300C00D030013
:1067880000B587B001900B468DF803309DF80330B3
:10679800002B1FD0FFF7EAFF04900023059313E0B6
:1067A800059B9B000E4A13440393039B1B881A46C0
:1067B800019B1B689A4204D1019B059A1A60002329
:1067C80009E0059B01330593059A049B9A42E7D398
:1067D800052300E00023184607B05DF804FB00BF5E
:1067E800E022002000B585B001900B468DF80330FB
:1067F8009DF8032001AB11461846FFF7C1FF034679
:10680800002B07D1019BDB00054A13440393039B2C
:106818001B6800E00023184605B05DF804FB00BFC4
:10682800C00D030084B001900B468DF80330019B26
:10683800DB00174A134402939DF80330013B032BF6
:106848001CD801A252F823F06168020069680200AE
:10685800716802007B68020002238DF80F3011E096
:1068680004238DF80F300DE0029B1B798DF80F3053
:1068780008E0029B5B798DF80F3003E000238DF868
:106888000F3000BF9DF80F30184604B0704700BFA6
:10689800C00D030084B00190009100238DF80F30E3
:1068A800019B1B7803F00403DBB2002B24D0019B6F
:1068B8001B78C3F30103DBB2012B02D0022B0CD0EF
:1068C80017E0009B1B68019A1288C2F38312D2B2A8
:1068D80013449A1C009B1A600BE0009B1B68019AEA
:1068E8005288C2F3891292B213449A1C009B1A6010
:1068F80000BF01238DF80F309DF80F30184604B003
:106908007047000000B58BB00023ADF826303B4837
:1069180001F076FF3A4801F073FF3A4B5B68049345
:10692800384B9B680693049A069B134002339B00DE
:10693800344A13440433089304AB19460898FFF704
:10694800A9FF0346002B09D0049A069B1340023383
:106958009B002C4A134404330893EDE700BF00233F
:10696800079311E0049B5A1C0492069A1340079A55
:10697800920001A90A44234902339B000B445B6837
:106988001360079B01330793079B012BEAD99DF8F6
:106998000430C3F30103DBB2012B11D0022B00D06A
:1069A8001CE0BDF80A30ADF82630BDF80630C3F358
:1069B80089139BB203339A08049B134404930DE094
:1069C800BDF80A30ADF82630BDF80430C3F38313A0
:1069D800DBB21A46049B1344049300BF084801F035
:1069E8001BFF0590059B002B02D0049B054A5360B2
:1069F800BDF8263018460BB05DF804FB8C29002042
:106A0800882900207425002000B585B0002107489A
:106A180001F067FE0390039B0293029B83F310032C
:106A28000193019B184605B05DF804FB90290020EE
:106A380000B589B00390029101920093039B1B0C4F
:106A48000693FFF7E1FF0790079B1904009B5A1C68
:106A58000A9B1340069A0A431B4902339B000B44C6
:106A68005A60009A0A9B134002339B00164A13444B
:106A780004330593039B03F00703D9B2059A1378EF
:106A880061F3C5031370019B03F00F03D9B2059A94
:106A9800138861F389131380029BC3F31501059AC8
:106AA800136861F39F231360059A1378012161F33A
:106AB80001031370059A13786FF38203137000BFF4
:106AC80009B05DF804FB00BF7425002000B58DB047
:106AD8000390029113468DF80730039B02330A9303
:106AE80001238DF8273000238DF81B300DF11B038F
:106AF800184601F097FD404B1A68029B1A603E4BFE
:106B08009A683D4B59683C4B1B68CB1A13440133B8
:106B18000B9314E00121394801F042FEFFF7F2FE21
:106B280007900799354801F03BFE334B9A68324B82
:106B38005968314B1B68CB1A134401330B930A9ADB
:106B48000B9B9A42E6D89DF82730002B48D00023AB
:106B580005939DF80730002B17D09DF814300122BB
:106B680062F301038DF814309DF8143043F00403E8
:106B78008DF81430039B03F00F03DAB2BDF814301C
:106B880062F38913ADF8143016E09DF81430022230
:106B980062F301038DF814309DF8143043F00403B8
:106BA8008DF81430039BC3F309039AB2BDF816306D
:106BB80062F38F13ADF816300F4B1A680E4B9B68B3
:106BC800134002339B000C4A134404330893059A7C
:106BD800089B1A60084B1A680A9B1344064A1360FC
:106BE8009DF81B30184601F027FD9DF82730184600
:106BF8000DB05DF804FB00BF74250020902900202B
:106C080000B58BB005900491039202931F4B9B68CB
:106C1800079306AB012219460298FFF757FF034670
:106C2800002B24D0069B023309930023089311E01C
:106C3800089B9B00039A1A44099B591C09910799C0
:106C48000B401268114902339B000B445A60089BA1
:106C580001330893089A029B9A42E9D3069A079B44
:106C680000931346029A04990598FFF7E1FE074B33
:106C780093F82034002B05D000BF00F04BF80346F2
:106C8800002BFAD100BF0BB05DF804FB742500207F
:106C980000B583B00190009100230022009901986B
:106CA800FFF7AEFF00BF03B05DF804FB00B587B087
:106CB800039002910192019B059305AA0123029971
:106CC8000398FFF79DFF00BF07B05DF804FB00B510
:106CD80087B00390029101920093019B0493009B5B
:106CE800059304AA022302990398FFF789FF00BFBE
:106CF80007B05DF804FB0000054B5A68044B1B689D
:106D08009A420CBF01230023DBB21846704700BF2C
:106D18007425002000B599B0FFF7EEFF0346002B5D
:106D280001D00023BCE19A4B0022C3F81824BFF31A
:106D38004F8F974B5B680493954B9B681093049A0D
:106D4800109B134002339B00914A13440433119360
:106D5800002317930023169300230F9304AB1946BF
:106D68001198FFF797FD0346002B19D0884BD3F8ED
:106D78001834002B14D1864B1A68049B9A4205D804
:106D8800834B1B68824A5360002389E1049A109B55
:106D9800134002339B007E4A134404331193DDE70A
:106DA8000023159311E0049B5A1C0492109A134077
:106DB800159A920001A90A44754902339B000B44B5
:106DC8005B681360159B01331593159B012BEAD95A
:106DD8009DF8043003F00303DBB2022B40F09C80E3
:106DE800BDF80630C3F389139BB20D93BDF8063086
:106DF800C3F389139BB2502B28BF50239BB20C932B
:106E08000C9BC3F309039AB2BDF8063062F38F13E3
:106E1800ADF806300C9B08330B939DF80430C3F390
:106E2800C203DBB20F930B995A4802F084F917900A
:106E3800179B002B00F0D080179802F00CFA01A9DC
:106E4800169B0822179802F0AFFA169B0833169380
:106E5800049BDA43109B134001339B000A930C9A5E
:106E68000A9B9A4242D90A9B002B08D0049A109B8D
:106E7800134002339B00464A1344043300E0464B58
:106E880008930A9B002B02D00A9BDBB201E00C9B03
:106E9800DBB28DF81F300A9B002B01D03E4B00E07F
:106EA800002306930A9B002B06D00C9BDAB20A9BA0
:106EB800DBB2D31ADBB200E000238DF817309DF85F
:106EC8001F20169B0899179802F06EFA9DF81F303C
:106ED800169A13441693069B002B16D09DF817207C
:106EE800169B0699179802F05FFA0EE0049A109B19
:106EF800134002339B00264A134404330993169B1C
:106F08000C9A0999179802F04FFA0D9B03339A08C7
:106F1800049B134404935FE09DF8043003F00303DB
:106F2800DBB2012B58D1BDF80430C3F38313DBB2B5
:106F3800062B28BF0623DAB2BDF8043062F38913A2
:106F4800ADF80430BDF80430C3F38313DBB2023369
:106F58000E939DF80430C3F3C203DBB20F930E9B6C
:106F68009B0019460B4802F0E6F81790179B002B78
:106F780032D0179802F06FF901A9169B08221798CA
:106F880002F012FA169B08331693002315931AE0A1
:106F980074250020AC0D030080250020049B5A1C9A
:106FA8000492109A134002339B003F4A1344191D60
:106FB800169B0422179802F0F7F9169B04331693D0
:106FC800159B01331593BDF80430C3F38313DBB26B
:106FD8001A46159B9342E1D3179B002B40D0324BA6
:106FE800D3F810341493304BD3F81834002B1BD03B
:106FF800179802F03FF94DE000238DF84F301498B0
:10700800FFF772FB0346002B02D001238DF84F30A7
:107018009DF84F30002B03D017991498FFF720FBE9
:10702800149BDB681B681493149B002BE4D11798FE
:1070380002F020F900238DF803300DF10303184600
:1070480001F0F0FA184BD3F81834002B02D1049B46
:10705800154A53609DF80330184601F0EDFA19E01F
:10706800114BD3F81034129306E01298FFF712FB75
:10707800129BDB681B681293129B002BF5D10B4AFD
:107088000B4BD31ADB081B0443F0020309491846CB
:10709800FFF7FEFDFFF730FE034683F00103DBB286
:1070A800184619B05DF804FB74250020F80D03009C
:1070B800C00D0300880E030000B585B000230393BC
:1070C80023E0164BD3F81034029301238DF80730D0
:1070D8000FE00298FFF7F7FA03461A46039B93421C
:1070E80003D100238DF8073006E0029BDB681B689C
:1070F8000293029B002BECD19DF80730002B01D0A6
:10710800039B07E0039B01330393039B092BD8DD03
:107118004FF0FF33184605B05DF804FB74250020D6
:1071280000B585B001900B468DF80330FFF7C4FF1A
:107138000390039BB3F1FF3F01D1039B22E0039B24
:10714800DBB219460198FFF7B1FA104BD3F81034A7
:10715800002B08D10D4A019BC2F81034019BDB6853
:1071680000221A600DE0094BD3F81034DA68019B4D
:10717800DB6812681A60054BD3F81034DB68019A93
:107188001A60039B184605B05DF804FB74250020BF
:1071980000B583B00C4BD3F8103401930A4B01228D
:1071A80083F8202409E00198FFF795FA0198FFF782
:1071B80065FA019BDB681B680193019B002BF2D1E8
:1071C80000BF03B05DF804FB7425002082B0019075
:1071D800009100BF02B0704710B584B003900291CF
:1071E800039BDB88002B0AD0039BDB881A461F4BC6
:1071F800009313461E4A1F49029801F0DDFB039BCA
:107208001B7A052B2ED0039B5B7A002B12D0039B95
:107218009B881A46039B1B7A19461046FFF702FB08
:1072280003461A46144B53F822301A46134902985B
:1072380001F0C2FB039B1B6819460298FFF7C6FFC3
:10724800039B1B7A1A460E4B53F82240039B9B88DC
:1072580000211846FFF7C6FA034622460949029854
:1072680001F0AAFB00BF04B010BD00BFBC0E0300B4
:10727800CC0E0300040F0300FC2200201C0F0300A7
:10728800E8220020200F030000B585B0039002918A
:1072980013468DF80730039B1B7A052B0FD0039BF1
:1072A8005B7A002B06D00D4B1B681A460C490298D6
:1072B80001F082FB0B49029801F07EFB07E09DF884
:1072C8000730002B03D00749029801F075FB02989C
:1072D80001F05AFB00BF05B05DF804FBFC2200205A
:1072E8001C0F03002C0F030030B58BB007900691DC
:1072F800059204930E9B1B7B8DF827300E9B002272
:107308001A730E990498FFF767FF059B062B7FD821
:1073180001A252F823F000BF3D7302004773020038
:10732800577302006B73020089730200B173020085
:10733800E173020007990E9801F03EFB69E0069B95
:107348001B681A4607990E9801F036FB61E0069B08
:107358001A68069B04331B6807990E9801F02CFBEA
:1073680057E0069B1A68069B04331968069B083386
:107378001B6800930B4607990E9801F01DFB48E027
:10738800069B1968069B04331868069B08331B681C
:10739800069A0C3212680192009303460A4607992E
:1073A8000E9801F009FB34E0069B1868069B04332D
:1073B8001C68069B08331B68069A0C3212680699EB
:1073C80010310968029101920093234602460799F9
:1073D8000E9801F0F1FA1CE0069B1C68069B04332A
:1073E8001D68069B08331B68069A0C3212680699BA
:1073F80010310968069814300068039002910192D0
:1074080000932B46224607990E9801F0D5FA00E022
:1074180000BF00220E990498FFF736FF0E9B9DF8D7
:1074280027201A7300BF0BB030BD00BF00B587B06E
:107438000390029101920093029B082B5CD8009B59
:107448001B7B8DF81330009B00221A73009901985A
:10745800FFF7C2FE0023059314E0059A029B9A42A7
:1074680009D2039A059B13441B781A4624490098AD
:1074780001F0A2FA03E02349009801F09DFA059B68
:1074880001330593059B072BE7D91F49009801F0A5
:1074980093FA0023059322E0059A029B9A4217D299
:1074A800039A059B13441B788DF812309DF812300F
:1074B800184609F095FB0346002B02D09DF81230C0
:1074C80000E02E231A461149009801F075FA03E0EE
:1074D8000F49009801F070FA059B01330593059B4D
:1074E800072BD9D9012200990198FFF7CDFE009BFF
:1074F8009DF813201A7300E000BF07B05DF804FB85
:10750800300F0300380F03003C0F0300400F030047
:10751800440F03002DE9F04F89B0019000238DF846
:107528001F3099E0524B1A689DF81F30DB00134456
:107538000693069B1B7819464FF001024FF0000393
:10754800A1F1200CC1F1200003FA01F902FA0CFCA8
:1075580049EA0C0922FA00F049EA000902FA01F89E
:10756800CDE90489434BD3E90001DDE9042302EAAC
:10757800000A03EA010B5AEA0B0368D0DDE9042389
:107588006FEA02006FEA03013A4BD3E900AB0AEA5B
:1075980000020BEA01033749C1E90023069B1B7867
:1075A800184603F031FA03468DF80F30069B1B7816
:1075B80019464FF001024FF00003A1F1200CC1F170
:1075C800200003FA01F502FA0CFC45EA0C0522FA40
:1075D80000F0054302FA01F4274BD3E9002304EA3B
:1075E800020A05EA030B9DF80F204FF000030699E5
:1075F8000978A1F1200CC1F1200003FA01F702FA81
:107608000CFC47EA0C0722FA00F0074302FA01F6DD
:10761800BB4508BFB2451AD19DF80F30069A52787B
:10762800012A0CBF01220022D2B293420CBF0123CF
:107638000023DBB20293069B5B68002B07D0069BF6
:107648005B68069A12780299C9B2104698479DF865
:107658001F3001338DF81F30084B1B789DF81F2011
:107668009A42FFF45FAF00BF09B0BDE8F08F00BFDA
:1076780098290020D0290020C82900209C29002012
:1076880070B586B001900A468DF803204FF00101CD
:107698004FF000020198A0F12006C0F1200502FA7F
:1076A80000F401FA06F6344321FA05F52C4301FAF1
:1076B80000F3CDE90434304B184600F01FFF039067
:1076C800039B002B54D12D4BD3E90012DDE9043480
:1076D80003EA010504EA020655EA060337D10198D0
:1076E80003F092F90346002B0CD0254BD3E9001286
:1076F800DDE9043443EA010544EA0206204AC2E906
:1077080000560FE0DDE904346FEA03016FEA040272
:107718001B4BD3E9005605EA010306EA0204184A9E
:10772800C2E90034154BD3E90012DDE9043443EA19
:10773800010544EA0206114AC2E900560E48114BF7
:107748001B680022194600F0A7FE039011E0DDE94E
:1077580004346FEA03016FEA0402084BD3E90056C8
:1077680005EA010306EA0204044AC2E9003400E01B
:1077780000BF06B070BD00BFA4290020D02900209A
:10778800C8290020A029002010B58AB003900B4614
:1077980001928DF80B30019B042B01D807235AE086
:1077A80003F042F8034683F00103DBB2002B09D053
:1077B80002F0E8FF0990099B0893089B002B01D071
:1077C800089B48E0254A039B1360254A9DF80B3027
:1077D8001370244A019B1360234A4FF000034FF0B3
:1077E8000004C2E90034214A4FF000034FF00004BE
:1077F800C2E9003422E09DF80B30DB00039A134401
:10780800079305AB00210A461A800A469A7003239B
:107818008DF81430079B9B788DF81530079B1B78E3
:10782800184605AB124A194603F00AF80990099B55
:107838000693069B002B01D0069B0CE09DF80B30AD
:107848005A1E8DF80B20002BD5D10A4A00210A4870
:1078580000F0F2FD034618460AB010BD9829002032
:107868009C290020A0290020C8290020D029002018
:10787800897602001D750200480F030000B583B029
:10788800002301930CE00C4B1A68019BDB001344A6
:107898001B780121184603F043F8019B013301933B
:1078A800064B1B781A46019B9342ECD300231846DB
:1078B80003B05DF804FB00BF982900209C29002034
:1078C80000B587B001900023039300230493019B24
:1078D800059303AB1A46002144F2010000F016F8A4
:1078E80000BF07B05DF804FBBFF34F8F054BDB68A3
:1078F80003F4E0620349044B1343CB60BFF34F8F9B
:1079080000BFFDE700ED00E00400FA0500B585B012
:1079180003900291019272B6FFF73AFC00BFFFF79D
:10792800F9F90346002BFAD1114A124BD31ADB0896
:107938001B0443F0010310491846FFF7A9F90F4B40
:107948001B6803F00103002B00D000BE084A094B56
:10795800D31ADB081B0443F0020309491846FFF752
:1079680097F9FFF7C1FF00BF05B05DF804FB00BF42
:10797800F80D0300C00D03004C0F0300F0ED00E00C
:10798800580F030082B003468DF807309DF8073082
:1079980003F01F0205499DF907305B09012000FA31
:1079A80002F241F8232000BF02B0704700E100E076
:1079B80082B003468DF807309DF8073003F01F02A8
:1079C80006499DF907305B09012000FA02F22033CD
:1079D80041F8232000BF02B0704700BF00E100E07B
:1079E80082B003468DF807309DF8073003F01F0278
:1079F80006499DF907305B09012000FA02F240337D
:107A080041F8232000BF02B0704700BF00E100E04A
:107A180082B003468DF807309DF8073003F01F0247
:107A280006499DF907305B09012000FA02F260332C
:107A380041F8232000BF02B0704700BF00E100E01A
:107A480082B0034600918DF807309DF90730002B6E
:107A58000CDA009BDAB20C499DF8073003F00F03EB
:107A6800043B5201D2B20B441A7609E0009BDAB209
:107A780006499DF907305201D2B20B4483F800231E
:107A880000BF02B0704700BF00ED00E000E100E079
:107A980000B585B00190019B002B0AD0074B43F03D
:107AA80001030393019B9B010293039B0298984750
:107AB80000E000BF05B05DF804FB00BF700F0300D5
:107AC80000B583B00190064A019BC2F8083506212B
:107AD8001120FFF7B5FF00BF03B05DF804FB00BF3E
:107AE8000010014008B50D4B4FF48032C3F8442311
:107AF8000A4B4FF48032C3F804231120FFF788FFA4
:107B08001120FFF73FFF054B01221A602F20FFF7D6
:107B1800BFFF034B01221A7000BF08BD00100140CF
:107B2800F62A002008B51120FFF742FF0E4B4FF44C
:107B38008032C3F848230C4B4FF48032C3F8082333
:107B4800094B01225A602F20FFF7A2FF064B0122A2
:107B58009A60064B00221A602F20FFF799FF044B0A
:107B680000221A7000BF08BD00100140E82A00205A
:107B7800F62A0020024BD3F804351846704700BF98
:107B88000010014082B001900091019A009BD31A25
:107B980023F07F43184602B07047000082B001907E
:107BA800034A019BC2F8403500BF02B0704700BFCE
:107BB8000010014086B00190284B1B68002B03D1B0
:107BC800264A019B136045E0019B1A68234B1B68FA
:107BD8001B689A4210D8214B1B681968019B1A68C8
:107BE8001E4B1B688A1A1A601C4B1A68019BDA61C3
:107BF8001A4A019B13602DE0019B1B680393174BE6
:107C08001B680593154B1B68049309E0049B1B68CC
:107C1800039AD31A0393049B0593049BDB6904938B
:107C2800049B002B04D0049B1B68039A9A42EDD84E
:107C3800049B002B05D0049B1A68039BD21A049B53
:107C48001A60019B039A1A60019B049ADA61059BEA
:107C5800019ADA6100BF06B0704700BFE42A00202D
:107C680000B587B001902A4B1B680393284B1B680B
:107C78000593059B049308E0049A019B9A4208D057
:107C8800049B0593049BDB690493049B002BF3D1AD
:107C980000E000BF049B002B01D1002333E0059ACC
:107CA800049B9A4214D11A4B1B68DB69184A13606B
:107CB800174B1B68002B0BD1164B01229A60164BF1
:107CC80000221A60154B01221A702F20FFF7E0FEE0
:107CD800049B1B680293049BDA69059BDA61059B88
:107CE800DB690493049B002B05D0049B1A68029B54
:107CF8001A44049B1A60064B1B68039A9A4214BFE5
:107D080001230023DBB2184607B05DF804FB00BF6F
:107D1800E42A002000100140E82A0020F72A002069
:107D280008B51120FFF75CFE00BF08BD08B5142098
:107D3800FFF756FE00BF08BD00B583B00190019B58
:107D48005B69019A92691046984700BF03B05DF8D5
:107D580004FB000000B585B02B4B1B68002B4ED0F0
:107D680000230193FFF706FF0246284B1B681946BC
:107D78001046FFF707FF0290234B1B6803931DE093
:107D8800039B1B68029A9A421CD3039B1B68029AA6
:107D9800D31A0293039B1B68019A13440193039B14
:107DA8000093039BDB690393009B1B7C002B05D08E
:107DB800009B00221A740098FFF7BEFF039B002B5C
:107DC800DED100E000BF124B1A78124B1B789A42A2
:107DD8000CD1104B1B780133DAB20E4B1A700D4BD5
:107DE8001B78022B02D10B4B00221A70094B1B780F
:107DF8001946094A019B42F82130FFF797FF00BF57
:107E080005B05DF804FB00BFE42A0020E82A002042
:107E1800F42A0020F52A0020EC2A002082B00190E4
:107E2800184B1A78184B1B789A4223D0154B1B789D
:107E38000133DAB2134B1A70124B1B78022B02D1A2
:107E4800104B00221A700F4B1B781A460F4B53F831
:107E58002220019B1A60019B1A680D4B1B68134472
:107E68000B4A13600A4B1B6823F07F43084A1360D0
:107E7800012303E0019B00221A600023184602B088
:107E8800704700BFF42A0020F52A0020EC2A0020C1
:107E9800E82A002088B003900291019200230793FA
:107EA80038E0204B1B680693069B1B68039A9A428E
:107EB80006D2069B1A68039BD21A069B1A602DE00D
:107EC800069B1B68039AD31A0393069B1B68079AA1
:107ED80013440793069B00221A60124B1B680593F4
:107EE800069BDB690F4A1360069BDB68002B11D0E9
:107EF800029A079B134423F07F42069B5A60069B15
:107F0800DA68069B9A60019B1A68069BDA61019BF6
:107F1800059A1A60034B1B68002BC2D100BF08B03A
:107F2800704700BFE42A002000B589B00190002303
:107F38008DF81F30664B1B680593AAE0019B002B48
:107F480005D0019B0693069BDB69019361E0614BB9
:107F58001B781A4613465B001344DB005D4A134442
:107F6800043304935B4B1B780133DAB2594B1A7014
:107F7800584B1A78574B9B789A4202D1554B00229E
:107F88001A70049B5B680693049B1B78022B04D031
:107F9800032B1BD0012B1FD01DE0049B5B681846E8
:107FA800FFF75EFE0346002B02D001238DF81F3039
:107FB800069B00221A746CE0454B1B680393039BD5
:107FC80000221A74039BDB69414A1360404B1B680B
:107FD800002BF1D15DE05CE000BF069B1B7C002B11
:107FE80000D056E0049B9A68069B5A60049BDA68A6
:107FF800069B9A60049B1A69069BDA60049B5A697F
:10800800069B9A61344B1B78002B02D0069B0022FA
:108018005A60069B5A68314B1B68D31A23F07F437A
:108028002F4A93420ED8069B5A682C4B1B68194658
:108038001046FFF7A7FD0246069B9B681A44069B5D
:108048001A6017E0254B1A68069B5B6819461046AC
:10805800FFF798FD0290069B9B68029A9A4206D207
:10806800069B9A68029BD21A069B1A6002E0069B3E
:1080780000221A60069B00225A60069B00229A6022
:10808800069B01221A74069B0022DA610698FFF704
:1080980091FD019B002B7FF451AF0E4B1A780D4BCD
:1080A8005B789A427FF44AAF9DF81F30002B04D1C9
:1080B800074B1B68059A9A4201D0012300E0002370
:1080C80003F00103DBB2184609B05DF804FB00BFFA
:1080D800E42A0020D8290020F72A0020E82A0020D6
:1080E800FEFF7F0010B588B00190274B1B68002B5E
:1080F80044D0254B1B681B680793FFF73BFD069090
:10810800224B1B68059305990698FFF73BFD03462C
:10811800033304931E4B1B7883F00103DBB2002B5F
:1081280001D0FFF7DFFC049A079B934238BF134640
:10813800059A13440593059B23F07F4305930598FF
:10814800FFF72CFDFFF716FD039006990398FFF73C
:1081580019FD0346DC1C06990598FFF713FD034635
:108168009C420DD9FFF706FD03461846FFF716FD9A
:108178002F20FFF78DFCFFF7D3FD01E0FFF7D2FCBE
:1081880000BF08B010BD00BFE42A0020E82A002084
:10819800F62A002000B587B00023019300238DF84C
:1081A8001730194B1B680493184B1B6803936B46D5
:1081B8001846FFF733FE03468DF80B309DF80B3059
:1081C800002B08D0009B01AA04991846FFF762FE0D
:1081D80001238DF81730019B1846FFF7A5FE0346CB
:1081E800002B02D001238DF817309DF81730002B93
:1081F80002D00398FFF776FF054B00221A7000BFE4
:1082080007B05DF804FB00BFE82A0020E42A00203C
:10821800F72A002082B003468DF80730034A9DF8FC
:108228000730537000BF02B0704700BFD829002044
:1082380084B00190144B5B7801338DF80F30124BEA
:108248009B789DF80F209A4202D100238DF80F30B9
:108258000D4B1B789DF80F209A4201D100230FE0A7
:10826800019B9DF80F201A70074B5B781A4613463E
:108278005B001344DB00044A134404330293029B5B
:10828800184604B0704700BFD829002000B589B04F
:1082980003900291019200930023079300238DF825
:1082A80016300DF11603184600F0BCF90DF117034E
:1082B8001846FFF7BDFF0690069B002B02D104234A
:1082C800079318E0069B01221A70069B039A5A60CE
:1082D800FFF750FC0246069B9A60069B029ADA60FA
:1082E800069B019A1A61069B009A5A619DF81730FD
:1082F8001846FFF78FFF9DF81630184600F09CF9D6
:10830800079B002B01D1FFF711FD079B184609B009
:108318005DF804FB00B587B001900B468DF803307B
:108328000023059300238DF80E300DF10E03184637
:1083380000F078F90DF10F031846FFF779FF049064
:10834800049B002B02D1042305930BE0049B9DF8AA
:1083580003201A70049B019A5A609DF80F30184642
:10836800FFF758FF9DF80E30184600F065F9059B99
:10837800002B01D1FFF7DAFC059B184607B05DF822
:1083880004FB000008B50E4B0022C3F840210C4B3B
:108398000022C3F844210A4B0022C3F84821084BA5
:1083A8000022C3F84C21064B0022C3F80021044BDD
:1083B8000022C3F80421FFF7CDFC00BF08BD00BFB1
:1083C8000010014008B5FFF7E5FE00BF08BD00003A
:1083D80008B5FFF7A7FB134B00221A70114B0022B8
:1083E8005A70104B0B229A700F4B00221A600F4BD9
:1083F80000221A700E4B00221A701420FFF708FB97
:1084080006211420FFF71CFB1420FFF7BBFA0020FD
:10841800FFF756FBFFF7AEFB0246064B1A60002338
:10842800184608BDD8290020E42A0020F42A002094
:10843800F52A0020E82A002086B003900B46019216
:108448008DF80B30134B9B78002B01D108231EE0CD
:10845800019B002B01D1072319E0039B002B01D1BD
:10846800072314E0039B1B681B7C002B01D0082307
:108478000DE0039B1B680593059B00221A74059B5E
:108488009DF80B205A74059B019A5A6100231846DF
:1084980006B07047D829002000B587B00390029134
:1084A8000192039B0593144B9B78002B01D1082361
:1084B8001EE0039B002B01D1082319E0029B042B2B
:1084C80001D8072314E0059B5B69002B01D1082321
:1084D8000EE0059B5B7C012B01D1029B00E0002391
:1084E8000493019B049A02990598FFF7CFFE03466F
:1084F800184607B05DF804FBD829002000B585B000
:108508000190019B03930D4B9B78002B01D108230D
:1085180010E0019B002B03D0039B5B69002B01D16A
:10852800082307E0039B00221A7402210398FFF72F
:10853800F1FE0346184605B05DF804FBD829002073
:1085480082B0EFF310830093009B019372B6019BF6
:10855800184602B0704762B600BF704700B585B0D4
:108568000190FFF7EDFF0390164B9B68002B1BD182
:10857800144B01229A60144BD3F88020134B1340FC
:10858800104A1360104B114AC3F880200E4BD3F8E1
:1085980084300C4A53600C4B4FF0FF32C3F88420F0
:1085A800019B00221A7002E0019B01221A70039BB2
:1085B800002B01D1FFF7CFFF0023184605B05DF867
:1085C80004FB00BFF82A002000E100E0FC06FFBD24
:1085D80000B585B003468DF80730104B9B68002B1B
:1085E80016D09DF80730002B12D1FFF7A9FF039092
:1085F8000B4A0A4B1B681360094A084B5B685360B7
:10860800064B00229A60039B002B01D1FFF7A3FFC2
:108618000023184605B05DF804FB00BFF82A0020C7
:1086280000E100E000B583B001900198FFF796FFE4
:1086380000BF03B05DF804FB00B583B003468DF8B6
:1086480007309DF807301846FFF7C2FF00BF03B098
:108658005DF804FB00B585B001900091009B5B09B3
:108668009B00019AD018009B03F01F03012202FA15
:1086780003F3194600F04CF8039000BF05B05DF80D
:1086880004FB00B585B001900091009B5B099B003D
:10869800019AD018009B03F01F03012202FA03F38A
:1086A800DB43194600F064F8039000BF05B05DF89D
:1086B80004FB82B001900091009B5B099B00019A2A
:1086C80013441A68009B03F01F0322FA03F303F014
:1086D8000103002B14BF01230023DBB2184602B0AC
:1086E800704710B487B001900091019B009A53E83D
:1086F800004F104643E8000191F0000FF7D10594B0
:1087080004900391059B184607B05DF8044B704729
:1087180010B487B001900091019B009A53E8004F74
:1087280044EA020043E8000191F0000FF6D10594F5
:1087380004900391049B184607B05DF8044B7047FA
:1087480010B487B001900091019B009A53E8004F44
:1087580004EA020043E8000191F0000FF6D1059405
:1087680004900391059B184607B05DF8044B7047C9
:1087780010B487B001900091019B009A53E8004F14
:1087880004EA020043E8000191F0000FF6D10594D5
:1087980004900391049B184607B05DF8044B70479A
:1087A80010B487B001900091019B009A53E8004FE4
:1087B80004EB020043E8000191F0000FF6D10594A4
:1087C80004900391049B184607B05DF8044B70476A
:1087D80010B487B001900091019B009A53E8004FB4
:1087E800A4EB020043E8000191F0000FF6D10594D4
:1087F80004900391049B184607B05DF8044B70473A
:1088080000B583B0019001210198FFF781FF03466D
:10881800184603B05DF804FB00B583B00190002151
:108828000198FFF78DFF0346184603B05DF804FB77
:1088380082B001900B468DF80330019BDA689DF8F1
:1088480003300199098A01FB03F31344184602B067
:10885800704782B001900091009B019AD2689B1AE0
:10886800019A128AB3FBF2F3DBB2184602B07047E2
:1088780084B00190019B002B01D10E2321E0019BC4
:108888009B681A46019B5B68D31A8DF80F30019BD1
:108898001B68019A52681A6007E0019B1A681368FE
:1088A800591C11609DF80F201A709DF80F305A1E40
:1088B8008DF80F20002BF0D1019B1B6800221A7144
:1088C8000023184604B0704700B585B00190002316
:1088D800039300238DF80A300DF10A031846FFF7B9
:1088E800A1FE019B1B681A68019B5B689A4220D90C
:1088F800019B1B681A68013A1A601B681B781946A5
:108908000198FFF795FF0390019B9B681A46019B0E
:108918001B681B68D31A8DF80B30019B1B681B79E9
:108928009DF80B209A4204D9019B1B689DF80B20E7
:108938001A719DF80A301846FFF77EFE039B184609
:1089480005B05DF804FB10B584B001900091009B60
:10895800039300238DF80B300DF10B031846FFF736
:1089680061FE019B1B681C68621C1A6003990198D0
:10897800FFF76FFF034623709DF80B301846FFF78B
:108988005BFE00BF04B010BD00B583B00190019B31
:108998009B68002B0CD0019B5B69019A1069019AB6
:1089A8001168019A92689847019B00229A6000E03A
:1089B80000BF03B05DF804FB0EB400B584B00190AD
:1089C800059B002B0AD00023039306AB039303AB4C
:1089D8001A460599019800F0ADF900E000BF04B00F
:1089E8005DF804EB03B0704700B583B001900B4607
:1089F8008DF80330019B1A68019B9B68581C0199EC
:108A0800886013449DF803201A70019B9A68019BA3
:108A18005B689A4202D30198FFF7B6FF00BF03B024
:108A28005DF804FB00B587B00390029101920093B2
:108A380000230593009B03F00103002B24D00BE0D7
:108A4800029B01330293059B013305939DF8133074
:108A580019460398FFF7C8FF029B1B788DF813305F
:108A68009DF81330002BEBD106E0019B013B0193ED
:108A780020210398FFF7B8FF019A059B9A422ED947
:108A8800019B002BF1D12AE0029B002B0BD002980E
:108A980008F034F9059006E0019B013B0193202181
:108AA8000398FFF7A1FF019A059B9A420FD9019BF2
:108AB800002BF1D10BE0029B01330293059B01339C
:108AC80005939DF8133019460398FFF78DFF029B15
:108AD8001B788DF813309DF81330002BEBD100BFB5
:108AE80007B05DF804FB000000B589B0039002915F
:108AF80001920093029B07930123069307E0079ACC
:108B0800019BB2FBF3F30793069B01330693079A85
:108B1800019B9A42F3D2009A069B9A4201D9009B84
:108B280006930B9B03F00103002B22D10A9B002B19
:108B38001FD00B9B03F00203002B06D0009B002BD9
:108B480003D130238DF8173002E020238DF8173039
:108B580008E00A9B013B0A939DF8173019460398D1
:108B6800FFF742FF0A9B002B03D0069A0A9B9A4202
:108B7800EFD301230793009B012B03D9009B013BF3
:108B8800009309E0029A079BB2FBF3F30493049A5B
:108B9800019B9A4200D205E0079B019A02FB03F36E
:108BA8000793E8E7029A079BB2FBF3F30493049B4D
:108BB800079A02FB03F3029AD31A0293154A049BFD
:108BC80013441B7819460398FFF70EFF079A019B79
:108BD800B2FBF3F30793079B002BE3D10B9B03F046
:108BE8000103002B11D00A9B002B0ED006E00A9B34
:108BF800013B0A9320210398FFF7F6FE0A9B002BFE
:108C080003D0069A0A9B9A42F1D300BF09B05DF8D7
:108C180004FB00BF780F030000B589B005900491EC
:108C280003920293049B002BB8BF5B420693012377
:108C3800079307E0039B069A92FBF3F30693079BBF
:108C480001330793039B069A9A42F3DA029A079B29
:108C58009A4201D9029B07930A9B002B0AD0049BD6
:108C6800002B04DB0B9B03F00403002B02D00A9BB0
:108C7800013B0A930B9B03F00203002B02D0029BDB
:108C8800002B16D00B9B03F00103002B11D10A9B7C
:108C9800002B0ED006E00A9B013B0A932021059881
:108CA800FFF7A2FE0A9B002B03D0079A0A9B9A4261
:108CB800F1D3049B002B07DA049B5B4204932D211C
:108CC8000598FFF791FE08E00B9B03F00403002BC7
:108CD80003D02B210598FFF787FE0B9B03F00203B7
:108CE800002B19D00B9B03F00103002B14D1029B1E
:108CF800002B11D10A9B002B0ED006E00A9B013BEA
:108D08000A9330210598FFF76FFE0A9B002B03D0CA
:108D1800079A0A9B9A42F1D304990B9B01930A9BE9
:108D28000093029B039A0598FFF7DEFE00BF09B087
:108D38005DF804FB00B58FB0059004910392049B85
:108D4800002B00F0E981049B1B788DF83730049BD9
:108D5800013304939DF83730002B00F0D4819DF83F
:108D68003730252B40F0C38100230A9301230C934D
:108D7800049B1B788DF837309DF837302D2B04D0A5
:108D8800302B0AD02B2B10D017E00A9B43F001039D
:108D98000A93049B0133049312E00A9B43F00203F5
:108DA8000A93049B013304930AE00A9B43F00403EB
:108DB8000A93049B0133049302E000230C9300BF41
:108DC8000C9B002BD4D1002309939DF837302A2B14
:108DD8000CD1039B1B68191D039A11601B68099A23
:108DE80013440993049B013304931AE0049B1B78F2
:108DF8008DF837309DF837302F2B12D99DF8373042
:108E0800392B0ED8049B01330493099A13469B000F
:108E180013445B001A469DF837301344303B0993DE
:108E2800D3E700230B93049B1B788DF837309DF80C
:108E380037302E2B1DD1049B01330493049B1B78E0
:108E48008DF837309DF837302F2B12D99DF83730F1
:108E5800392B0ED8049B013304930B9A13469B00BD
:108E680013445B001A469DF837301344303B0B938C
:108E7800E4E7049B1B788DF837309DF837306C2B6E
:108E880003D09DF83730682B07D1049B0133049336
:108E9800049B1B788DF83730EFE79DF83730253B7A
:108EA800532B00F21F8101A252F823F0E390020035
:108EB800ED900200ED900200ED900200ED900200AE
:108EC800ED900200ED900200ED900200ED9002009E
:108ED800ED900200ED900200ED900200ED9002008E
:108EE800ED900200ED900200ED900200ED9002007E
:108EF800ED900200ED900200ED900200ED9002006E
:108F0800ED900200ED900200ED900200ED9002005D
:108F1800ED900200ED900200ED900200ED9002004D
:108F2800ED900200ED900200ED900200ED9002003D
:108F3800ED900200ED900200ED900200ED9002002D
:108F4800ED900200ED900200ED900200ED9002001D
:108F5800ED900200ED900200ED900200ED9002000D
:108F6800ED900200ED900200ED900200ED900200FD
:108F7800ED900200ED9002006F900200ED9002006B
:108F8800ED900200ED900200ED900200ED900200DD
:108F9800ED900200ED900200ED900200ED900200CD
:108FA800ED9002000590020027900200ED9002006B
:108FB800ED900200ED900200ED9002002790020073
:108FC800ED900200ED900200ED900200ED9002009D
:108FD800ED900200ED900200AF900200ED900200CB
:108FE800ED90020093900200ED9002004B90020079
:108FF800ED900200ED9002006F900200039B1B6849
:10900800191D039A11601B680C930C9B8DF81F3077
:109018009DF81F3019460598FFF7E6FC63E0039BAF
:109028001B68191D039A11601B680C930A9B019316
:10903800099B00930B9B0A220C990598FFF7ECFDFE
:1090480051E0039B1B68191D039A11601B680C9360
:109058000C990A9B0193099B00930B9B0A22059884
:10906800FFF742FD3FE0039B1B68191D039A11603F
:109078001B680C930C990A9B0193099B00930B9B0B
:1090880010220598FFF730FD2DE0039B1B68191D82
:10909800039A11601B6808930A9B099A0899059816
:1090A800FFF7C0FC1FE0039B1B68191D039A1160A2
:1090B8001B680C9330210598FFF796FC78210598DA
:1090C800FFF792FC0C9900230193082300930823CF
:1090D80010220598FFF708FD05E025210598FFF700
:1090E80083FC00E000BF049B0133049305E09DF876
:1090F800373019460598FFF777FC049B1B78002B3F
:109108007FF421AE00E000BF059B1B7B002B04D041
:109118000598FFF739FC00E000BF0FB05DF804FBCD
:1091280000B583B001900198FFF7A2FB03461846EB
:1091380003B05DF804FB00B58BB001900091019B72
:109148001B8A043B0793009A079B1344DA1C079B6E
:10915800B2FBF3F38DF81B300198FFF7B5FB0590D0
:10916800059B002B01D1002338E0059B00221A71D2
:10917800059B01225A71079B9AB2059BDA80059BD1
:1091880009939DF81B30013B0493099B019A1A60CF
:10919800002308931DE00198FFF796FB0390039BBB
:1091A800002B0ED0059B5B790133DAB2059B5A710F
:1091B800099B039A1A60039B019A1A60039B0993FF
:1091C80004E0059800F00EF8002307E0089B01333F
:1091D8000893089A049B9A42DDD3059B18460BB066
:1091E8005DF804FB00B58BB00190019B0793079BCA
:1091F8005B798DF81B30019B08939DF81B30013B70
:1092080005930023099305E0089B1B680893099BB5
:1092180001330993099A059B9A42F5D3089B1B6869
:109228000493019B0893002309930BE0089B1B6898
:10923800039308990498FFF786FB039B0893099BFF
:10924800013309939DF81B30099A9A42EED300BF67
:109258000BB05DF804FB00B585B00190019B03934A
:10926800039B043301211846FFF79AFA00BF05B0A3
:109278005DF804FB00B587B00190019B0593059B41
:10928800043301211846FFF7A3FA0346039303ABFF
:109298000493049B1B78002B02D10198FFF7A2FFCF
:1092A80000BF07B05DF804FB00B591B003900291D0
:1092B80001920093039B0993039B0F93099BDB88FF
:1092C8001A46099B5B7903FB02F3043B0893099B4D
:1092D800DB880793009B1A1D079BB2FBF3F30E93E1
:1092E800009B0433079AB3FBF2F2079901FB02F2E1
:1092F8009B1A0D93019B1A68009B1344089A9A4283
:1093080003D2089A009BD31A01E0019B1B680C93B7
:10931800019B0C9A1A6005E00F9B1B680F930E9B2C
:10932800013B0E930E9B002BF6D100230B93079A5B
:109338000D9BD31A0A930A9A0C9B934228BF134693
:109348000A932AE0029A0B9B134406930F9A0D9BEB
:109358001344043305939DF84830002B05D00A9A2E
:109368000599069807F04CFC04E00A9A06990598B6
:1093780007F046FC00230D930F9B1B680F930C9A74
:109388000A9BD31A0C930B9A0A9B13440B93079AC4
:109398000C9B934228BF13460A930C9B002BD1D1F8
:1093A80000BF11B05DF804FB00B589B005900491C9
:1093B80003920293039B079307AA00230093029B3F
:1093C80004990598FFF770FF00BF09B05DF804FB2A
:1093D80000B589B00590049103920293039B07930B
:1093E80007AA01230093029B04990598FFF75CFFE5
:1093F80000BF09B05DF804FB82B00190019B9B6837
:1094080000229A60019B9B6800221A61019B9B685D
:1094180000225A61019B9B680022DA60019B9B68CD
:1094280000225A60019B9B6800221A6000BF02B0AC
:10943800704782B001900091019B009A1A60019BCD
:109448001B681A68019B5A60019B5A68019B1B683C
:109458005B689A4202D1019B00225A6000BF02B0A9
:10946800704782B00190019B5B68002B14D0019B70
:109478005B681A46019B1B689B6813441A46019B4C
:109488005A60019B5A68019B1B685B689A4204D129
:10949800019B00225A6000E000BF02B07047000044
:1094A80000B585B00190019800F00EF80390039B79
:1094B800002B01D0039B00E0024B184605B05DF875
:1094C80004FB00BF940F030086B00190164B059370
:1094D800164B04931FE0049A059BD31ADB10DA0F8E
:1094E80013445B10DB00059A13440393039B1B682A
:1094F8000293029A019B9A4202D9039B04930AE0C1
:10950800029A019B9A4203D2039B0833059302E017
:10951800039B5B6804E0059A049B9A42DBD3002313
:10952800184606B0704700BF94130300BC1403002C
:10953800BFF34F8F054BDB6803F4E0620349044B2C
:109548001343CB60BFF34F8F00BFFDE700ED00E092
:109558000400FA05024B034A1A6000BF704700BFB7
:10956800202300200090D00308B500F025F9034619
:10957800002B0ED04FF080430022C3F80C214FF08F
:1095880080430022C3F810214FF080430022C3F823
:10959800382500F02FF90346002B76D04FF0805382
:1095A8007C4AD3F80434C2F820354FF08053794A06
:1095B800D3F80834C2F824354FF08053754AD3F8ED
:1095C8000C34C2F828354FF08053724AD3F810345F
:1095D800C2F82C354FF080536E4AD3F81434C2F8D1
:1095E80030354FF080536B4AD3F81834C2F834350D
:1095F8004FF08053674AD3F81C34C2F840354FF017
:109608008053644AD3F82034C2F844354FF080536D
:10961800604AD3F82434C2F848354FF080535D4A85
:10962800D3F82834C2F84C354FF08053594AD3F850
:109638002C34C2F850354FF08053564AD3F83034A2
:10964800C2F854354FF08053524AD3F83434C2F834
:1096580060354FF080534F4AD3F83834C2F8643538
:109668004FF080534B4AD3F83C34C2F868354FF07A
:109678008053484AD3F84034C2F86C354FF08053D1
:10968800444AD3F84434C2F8703500F0D1F80346A0
:10969800002B02D0404B414A1A6000F0DBF8034629
:1096A800002B03D03E4BFB22C3F8182500F0E4F84A
:1096B8000346002B0AD03B4B1B6823F00F023A4BA2
:1096C8001B6803F00F03374913430B6000F0E6F8FB
:1096D8000346002B03D0354B4FF400721A6000F09C
:1096E800EFF80346002B0DD04FF08043D3F8003439
:1096F80003F00103002B05D04FF080436FF0010207
:10970800C3F800242A4BD3F88830294A43F470035D
:10971800C2F88830BFF34F8FBFF36F8F4FF010231D
:10972800D3F80032002B05DB4FF01023D3F80432B6
:10973800002B2BDA1F4B0122C3F8042500BF1D4B59
:10974800D3F80034002BFAD04FF010231222C3F8BC
:10975800002200BF174BD3F80034002BFAD04FF08B
:1097680010231222C3F8042200BF124BD3F800348E
:10977800002BFAD00F4B0022C3F8042500BF0D4B75
:10978800D3F80034002BFAD0FFF7D2FEFFF7E2FE41
:1097980000BF08BD00C000408C560040488103004F
:1097A80000F00040E40E00405802001040960240CD
:1097B80000ED00E000E001400C4B1B68082B11D1C4
:1097C8000B4B1B68002B01D101230CE0084B1B68D5
:1097D800012B01D1012306E0054B1B68022B01D1A7
:1097E800012300E001231846704700BF3001001034
:1097F800340100100C4B1B68082B11D10B4B1B6854
:10980800002B01D101230CE0084B1B68012B01D16F
:10981800012306E0054B1B68022B01D1012300E060
:1098280001231846704700BF3001001034010010B2
:10983800064B1B68082B05D1054B1B68002B01D173
:10984800012300E000231846704700BF30010010D4
:1098580034010010064B1B68082B05D1054B1B680B
:10986800002B01D1012300E000231846704700BFF8
:109878003001001034010010064B1B68082B05D17D
:10988800054B1B68002B01D1012300E0002318467B
:10989800704700BF3001001034010010064B1B68F0
:1098A800082B05D1054B1B68002B01D1012300E0D3
:1098B80000231846704700BF300100103401001023
:1098C8000C4B1B68082B11D10B4B1B68002B01D1CB
:1098D80001230CE0084B1B68012B01D1012306E092
:1098E800054B1B68022B01D1012300E00123184618
:1098F800704700BF300100103401001082B00190A1
:10990800019B1B681F2B02D84FF0A04306E0019B68
:109918001B6803F01F02019B1A60024B184602B035
:10992800704700BF0003005000B585B0019008469D
:1099380011461A4603468DF803300B468DF802305F
:1099480013468DF8013001AB1846FFF7D7FF039097
:109958009DF803209DF802305B001A439DF8013002
:109968009B001A439DF818301B0242EA03019DF838
:109978001C301B04019A1943039B02F5E07243F85B
:10998800221000BF05B05DF804FB00B585B0039058
:10999800002301930023009300230122012103984F
:1099A800FFF7C2FF00BF05B05DF804FB00B585B046
:1099B80003900B468DF80B309DF80B200023019384
:1099C800002300931346002200210398FFF7ACFF01
:1099D80000BF05B05DF804FB00B585B0019001AB90
:1099E8001846FFF78BFF0390019B012202FA03F34D
:1099F8001946039800F02AF800BF05B05DF804FB8B
:109A080000B585B0019001AB1846FFF777FF0390CA
:109A1800019B012202FA03F31946039800F020F88B
:109A280000BF05B05DF804FB00B583B0019000915C
:109A3800009B002B03D10198FFF7E2FF02E0019899
:109A4800FFF7CAFF00BF03B05DF804FB82B00190C6
:109A58000091019B009AC3F8082500BF02B0704727
:109A680082B001900091019B009AC3F80C2500BFB9
:109A780002B0704700B583B00190064A019B1344B9
:109A88001B7800211846FFF7CFFF00BF03B05DF831
:109A980004FB00BFBC14030000B583B00190064A64
:109AA800019B13441B7801211846FFF7BDFF00BF37
:109AB80003B05DF804FB00BFBC14030000B583B01D
:109AC8000023019305E00198FFF7E6FF019B0133AE
:109AD8000193019B032BF6D900BF03B05DF804FB8B
:109AE80000B583B00023019309E0094A019B1344A0
:109AF8001B781846FFF749FF019B01330193019B2F
:109B0800032BF2D9FFF7DAFF00BF03B05DF804FBBF
:109B1800BC14030000B583B0002301930AE0094A8E
:109B2800019B13441B7803211846FFF73FFF019B55
:109B380001330193019B032BF1D900BF03B05DF8FA
:109B480004FB00BFC014030000B583B00190019B63
:109B580003F00103002B01D0FFF7C2FF019B03F0C4
:109B68000203002B01D0FFF7D5FF00BF03B05DF85B
:109B780004FB000082B003468DF807309DF80730DB
:109B880003F01F0206499DF907305B09012000FA1E
:109B980002F2203341F8232000BF02B0704700BF13
:109BA80000E100E008B500F037FA024B00229A7095
:109BB80000BF08BD042B002000B583B0002301932B
:109BC800144B1B78002B02D0852301931CE0114B0A
:109BD80000229A600F4B00225A600E4B00221A6135
:109BE8000C4B0022DA600C4800F0F4F9019004F004
:109BF80075FE034683F00103DBB2002B01D000F0B1
:109C080003FA044B01221A70019B184603B05DF851
:109C180004FB00BF042B0020D19C020084B00190FB
:109C2800019B1B680393039B002B03D0039B1A68BB
:109C3800019B1A60039B184604B0704700B583B0B7
:109C480000238DF807300DF107031846FEF7EAFCEC
:109C5800094BDB68013B084AD360074BDB68002BE4
:109C680001D1FFF79FFF9DF807301846FEF7E4FC87
:109C780000BF03B05DF804FB042B002000B585B0DD
:109C880003468DF807309DF80730002B02D10C4BA6
:109C9800039301E00B4B03930398FFF7BFFF029078
:109CA800029B002B06D0029B5B689DF8072010469C
:109CB8009847F1E700BF00BF05B05DF804FB00BF9F
:109CC8000C2B0020142B002000B583B003468DF820
:109CD80007309DF80730002B05D10A4B01225A7036
:109CE8000020FFF7CBFF9DF80730012B05D1054B6E
:109CF80001229A700120FFF7C1FF00BF03B05DF891
:109D080004FB00BF042B002000B583B00190009134
:109D1800019B002B05D1054B01225A700020FFF74B
:109D2800ADFF00BF03B05DF804FB00BF042B0020AB
:109D380000B585B0034600918DF807309DF80730CF
:109D4800012B08D0032B25D0002B00D027E00020C2
:109D5800FFF710FF23E000238DF80F300DF10F03FC
:109D68001846FEF75FFC104B1B7883F00103DBB24B
:109D7800002B01D0FFF720FF0B4BDB6801330A4AA9
:109D8800D360094B01229A709DF80F301846FEF7F0
:109D980053FC04E000F038F9FFF750FF00BF00BFA4
:109DA80005B05DF804FB00BF042B002082B0034619
:109DB8008DF807309DF8073003F01F0205499DF91B
:109DC80007305B09012000FA02F241F8232000BFA6
:109DD80002B0704700E100E082B003468DF807301A
:109DE8009DF8073003F01F0206499DF907305B090B
:109DF800012000FA02F2603341F8232000BF02B0CC
:109E0800704700BF00E100E082B0034600918DF882
:109E180007309DF90730002B0CDA009BDAB20C49A9
:109E28009DF8073003F00F03043B5201D2B20B44F4
:109E38001A7609E0009BDAB206499DF9073052010B
:109E4800D2B20B4483F8002300BF02B0704700BFB2
:109E580000ED00E000E100E000B583B003460A46EB
:109E68008DF8073013468DF806309DF806209DF9C9
:109E7800073011461846FFF7C7FF00BF03B05DF86B
:109E880004FB00B583B003468DF807309DF9073011
:109E98001846FFF7A1FF9DF907301846FFF786FF20
:109EA80000BF03B05DF804FB82B003468DF80730AD
:109EB8000F4A9DF90730002B00DA1F335B115BB2A4
:109EC80052F823209DF90730594203F01F0301F08F
:109ED8001F0158BF4B425BB222FA03F303F00103A0
:109EE800002B14BF01230023DBB2184602B07047D1
:109EF80000E100E082B001904FF08042019BC2F87F
:109F0800083300BF02B0704782B003468DF80730AF
:109F18009DF8073003F1804301221A6000BF02B0A8
:109F2800704784B00346ADF80630BDF8063003F13B
:109F3800804300221A60BDF8063003F180431B6895
:109F48000393039B00BF04B0704782B00346ADF88B
:109F58000630BDF8063003F180431B68002B14BFA0
:109F680001230023DBB2184602B0704782B001908B
:109F78004FF08042019BC2F8183500BF02B070470D
:109F88004FF08043D3F818341B0C03F00103002B67
:109F980014BF01230023DBB21846704700B583B015
:109FA80006238DF807300020FFF77EFF034683F075
:109FB8000103DBB2002B08D09DF8073019460020BA
:109FC800FFF74AFF0020FFF75CFF00BF03B05DF812
:109FD80004FB000084B0019000230393094B1B7914
:109FE800002B02D08523039308E0064A019B1360E7
:109FF800044B01221A71034B00225A71039B184625
:10A0080004B07047182B002008B5FFF7C7FF0120E0
:10A01800FFF7ACFF00BF08BD08B50C20FFF774FFC1
:10A0280000BFFFF7ADFF0346002BFAD100BF08BD04
:10A0380008B54FF48070FFF788FF0346002B14D053
:10A048004FF48070FFF76DFF0120FFF753FF114BAE
:10A058005B7983F00103DBB2002B06D00D4B0122A4
:10A068005A710C4B1B68002098474FF48270FFF719
:10A078006CFF0346002B0AD04FF48270FFF751FFA4
:10A088000220FFF737FF034B1B680120984700BFEA
:10A0980008BD00BF182B002082B003468DF807309A
:10A0A8009DF8073003F01F0205499DF907305B0949
:10A0B800012000FA02F241F8232000BF02B07047E5
:10A0C80000E100E082B003468DF807309DF80730C4
:10A0D80003F01F0206499DF907305B09012000FAC9
:10A0E80002F2603341F8232000BF02B0704700BF7E
:10A0F80000E100E082B0034600918DF807309DF939
:10A108000730002B0CDA009BDAB20C499DF80730B7
:10A1180003F00F03043B5201D2B20B441A7609E054
:10A12800009BDAB206499DF907305201D2B20B44BE
:10A1380083F8002300BF02B0704700BF00ED00E0C5
:10A1480000E100E000B583B003460A468DF8073009
:10A1580013468DF806309DF806209DF90730114604
:10A168001846FFF7C7FF00BF03B05DF804FB00B552
:10A1780083B003468DF807309DF907301846FFF77E
:10A18800A1FF9DF907301846FFF786FF00BF03B00F
:10A198005DF804FB00B583B00346ADF80630BDF8A2
:10A1A8000630184600F026F803461B68012B0CBF42
:10A1B80001230023DBB2184603B05DF804FB00B5A9
:10A1C80085B00346ADF80630BDF80630184600F0F5
:10A1D80011F803461A4600231360BDF806301846E6
:10A1E80000F008F803461B680393039B00BF05B003
:10A1F8005DF804FB82B00346ADF80630BDF80630C2
:10A2080003F1804303F5C043184602B070470000CD
:10A2180082B00190034A019BC2F8043300BF02B028
:10A22800704700BF0060004082B00190034BD3F834
:10A238000423019B1340184602B070470060004099
:10A2480082B00190084A019B03F5A27352F82330AB
:10A25800054943F00102019B03F5A27341F823204D
:10A2680000BF02B0704700BF0060004084B0039098
:10A27800029113468DF80730144A039B03F5A27325
:10A2880052F82330114923F44F3323F44073039ACF
:10A2980002F5A27241F822300C4A039B03F5A2731F
:10A2A80052F82320029B1B0203F47C519DF80730CF
:10A2B8001B0403F440330B4304491A43039B03F57F
:10A2C800A27341F8232000BF04B07047006000402B
:10A2D80082B00190054A019B03F5A27352F823301E
:10A2E8001B0A03F03F03184602B0704700600040A5
:10A2F80082B00190064A019B03F5A27352F82330FD
:10A308001B0C03F00303DBB2184602B0704700BF12
:10A318000060004082B00190019B1B681F2B02D88F
:10A328004FF0A04306E0019B1B6803F01F02019B4E
:10A338001A60024B184602B0704700BF0003005075
:10A3480000B585B00190084611461A4603468DF8B7
:10A3580003300B468DF8023013468DF8013001ABFF
:10A368001846FFF7D7FF03909DF803209DF80230A9
:10A378005B001A439DF801309B001A439DF8183082
:10A388001B0242EA03019DF81C301B04019A194381
:10A39800039B02F5E07243F8221000BF05B05DF898
:10A3A80004FB00B585B003900B468DF80B309DF883
:10A3B8000B20002301930023009313460022002161
:10A3C8000398FFF7BDFF00BF05B05DF804FB00B5BB
:10A3D80085B0019001AB1846FFF79CFF0390019AE6
:10A3E800039B02F5E07253F8223023F00203029334
:10A3F800019A039B02F5E072029943F8221000BF0C
:10A4080005B05DF804FB00B585B001900B468DF8EA
:10A41800033001AB1846FFF77DFF0390019A039BB9
:10A4280002F5E07253F82230019A23F44031039B7D
:10A4380002F5E07243F82210019A039B02F5E072DC
:10A4480053F822309DF8032012041146019A19434B
:10A45800039B02F5E07243F8221000BF05B05DF8D7
:10A4680004FB00B585B0019001AB1846FFF752FF19
:10A478000390039800F020F80246019B22FA03F3A8
:10A4880003F00103184605B05DF804FB00B585B07C
:10A49800019001AB1846FFF73DFF0390019A039B1B
:10A4A80002F5E07253F822301B0C03F00303DBB211
:10A4B800184605B05DF804FB82B00190019BD3F803
:10A4C8001035184602B0704700B589B00390029164
:10A4D8000192124A05AB92E8030083E80300039B4C
:10A4E800079311E0079B9B0008AA134453F80C3C00
:10A4F8001846FFF7E1FF0246019B1A60019B0433EF
:10A508000193079B01330793039A029B1344079A0D
:10A518009A42E7D300BF09B05DF804FBD4140300E6
:10A5280084B001900091009B0393019BDB08029388
:10A53800019B03F0070301930122019B02FA03F335
:10A548000399029A0A4412781340184604B07047D7
:10A5580084B001900091009B0393019BDB08029358
:10A56800019B03F007030193039A029B13441B7892
:10A578005AB20121019B01FA03F35BB2134359B2AA
:10A58800039A029B1344CAB21A7000BF04B0704702
:10A5980082B001900C4A019B1344303393F9003088
:10A5A800002B09DB084A019B1344303393F9003030
:10A5B800072B01DC012300E0002303F00103DBB2D9
:10A5C800184602B0704700BF202B002082B00190CF
:10A5D800064A019B1344303393F90030072BCCBF54
:10A5E80001230023DBB2184602B07047202B00205D
:10A5F80082B00190064A019B1344303393F900302E
:10A60800DB43DBB2DB09DBB2184602B0704700BFA0
:10A61800202B002084B00390029101928DF8033022
:10A62800029B59B20E4A039B134430330A461A70F0
:10A638000B49029B019A41F823209DF8033083F0CF
:10A648000103DBB2002B08D0029B083B039A51B2EE
:10A65800034A13440A4683F8602000BF04B07047D9
:10A66800202B002082B00190044A019B1344303310
:10A67800FF221A7000BF02B0704700BF202B0020D5
:10A6880000B583B0019004490198FFF761FF00BF4E
:10A6980003B05DF804FB00BF842B002082B001905A
:10A6A800044A019B1344303393F90030184602B032
:10A6B800704700BF202B002082B00190034A019B05
:10A6C80052F82330184602B0704700BF202B0020F4
:10A6D80000B589B00390029113468DF80730FF2327
:10A6E8008DF81F309DF80730002B01D0002300E0C3
:10A6F800082305939DF80730002B01D0082300E0BC
:10A708000C230493059B069314E00F4A069B52F80A
:10A718002330B3F1FF3F0AD19DF80730029A06991A
:10A728000398FFF777FF069B8DF81F3006E0069B1E
:10A7380001330693069A049B9A42E6D39DF91F308B
:10A74800184609B05DF804FB202B002082B00346B0
:10A758008DF807309DF80730094A4FF0FF3142F86D
:10A7680023109DF80730072B07D99DF80730083BC1
:10A77800034A1344FF2283F8602000BF02B07047E9
:10A78800202B002000B583B0254B93F86A30002BAE
:10A7980003D008230193019B3EE000238DF803308A
:10A7A80009E09DF803301846FFF75CFF9DF8033079
:10A7B80001338DF803309DF803302F2BF1D9002396
:10A7C8008DF8033009E09DF803301846FFF7BEFF07
:10A7D8009DF8033001338DF803309DF803300B2BBF
:10A7E800F1D9062200210F4806F033FA0621062087
:10A7F800FFF7A8FC0620FFF7BAFC4FF4BE70FFF77E
:10A80800DEFC4FF00040FFF703FD054B012283F803
:10A818006A2000230193019B184603B05DF804FBEE
:10A82800202B0020842B0020044B93F86A30002B47
:10A8380014BF01230023DBB218467047202B0020E9
:10A8480000B587B003900291019200230593039805
:10A85800FFF7CEFE0346002B02D00823059357E0EE
:10A86800029B9B78C3F34003DBB21A460199039815
:10A87800FFF72EFF03468DF813309DF91330B3F11F
:10A88800FF3F43D0029B9B78C3F38003DBB283F086
:10A898000103DBB2002B13D0029B9B7803F001036A
:10A8A800DBB2002B03D00398FFF791FD05E0029B74
:10A8B8005B7819460398FFF774FD0398FFF7E0FEED
:10A8C800029B9B7803F00203DBB2002B08D09DF9B2
:10A8D8001300029B1B781A460399FFF7C7FC17E081
:10A8E8009DF91330083B0D4A134493F96010029BFD
:10A8F8001B789B015AB29DF91330083B0A4351B2A9
:10A90800064A13440A4683F8602001E004230593AD
:10A91800059B184607B05DF804FB00BF202B0020FC
:10A9280000B589B001900B468DF803300198FFF708
:10A938004DFE0346002B2FD00198FFF7AFFE0346CC
:10A94800083B304A134493F960308DF80F309DF876
:10A958000F309B098DF80E309DF80E30032B0BD16C
:10A968000198FFF77EFD0346002B01D0032300E08A
:10A9780002238DF81F3008E09DF80E30012B01D11D
:10A98800022300E003238DF81F309DF81F3019467D
:10A998000198FFF738FD30E00198FFF7F9FD03460D
:10A9A800002B2AD00198FFF779FE03460693069BF1
:10A9B8009BB240339BB29B00ADF81630069B1846FD
:10A9C800FFF73EFCBDF816301846FFF7F8FB9DF878
:10A9D8000330002B11D00198FFF760FE034618469C
:10A9E800FFF76AFE0490049B002B06D00122069B09
:10A9F80002FA03F31846FFF70BFC00BF09B05DF835
:10AA080004FB00BF202B002000B583B00190019803
:10AA1800FFF727FD0346002B14BF01230023DBB2F9
:10AA2800184603B05DF804FB00B599B000231493F1
:10AA380006AB00221A605A604FF48073ADF84A30B2
:10AA4800012316930023139321E0BDF84A301846DA
:10AA5800FFF7A0FB0346002B0ED01698FFF7E4FB88
:10AA68000346002B08D0BDF84A301846FFF7A7FB6D
:10AA7800149A169B13431493169B5B001693BDF808
:10AA88004A300433ADF84A30139B01331393139BB8
:10AA9800072BDAD94FF4BE70FFF77CFB0346002B77
:10AAA8000DD04FF4BE70FFF78AFB149B43F00043B0
:10AAB800149306AB1A4602210020FFF705FD149BEC
:10AAC800DBB2002B29D0012316930023139321E036
:10AAD800169A149B1340002B16D01398FFF7F8FB17
:10AAE80011901398FFF704FC03468DF84330139830
:10AAF800FFF7E2FD0F900F9B002B05D09DF8432038
:10AB08000F9B114611989847169B5B001693139B51
:10AB180001331393139B072BDAD9149B002B80F274
:10AB2800F08000238DF85F3004AB00221A605A6071
:10AB3800002315930AE0159B9B0018AA13444FF0B5
:10AB4800FF3243F8582C159B01331593159B012BA5
:10AB5800F1D900238DF85F300023139378E06B4A16
:10AB6800139B1344603393F900308DF83B309DF804
:10AB78003B3023F0C0030D93644A139B13446033A6
:10AB880093F90030B3F1FF3F5FD002AB19460D983F
:10AB9800FFF7C6FC0346002B57D09DF83B309B09B6
:10ABA8008DF833300D98FFF779FD03461846FFF707
:10ABB80083FD0B900B9B002B03D19DF83330032BA7
:10ABC80043D19DF83330032B04D104AB19460D98BB
:10ABD800FFF7BEFC0D98FFF759FC03468DF82B30A4
:10ABE80006AB19460D98FFF79BFC0990099B002BB3
:10ABF80003D09DF82B30022B06D0099B002B24D1C3
:10AC08009DF82B30032B20D19DF83330032B13D123
:10AC18009DF82B30022B01D1032300E002238DF88D
:10AC280023309DF8233019460D98FFF7ECFB9DF86B
:10AC38005F3001338DF85F300B9B002B05D09DF8FA
:10AC480033200B9B11460D989847139B01331393A0
:10AC5800139B032B83D99DF85F30002B4CD0012325
:10AC68008DF85E306B461A4602210020FFF72CFC57
:10AC78000023159314E0159B9B0018AA134453F85E
:10AC8800602C159B9B0018A90B4453F8483C9A422A
:10AC980003D000238DF85E3005E0159B0133159332
:10ACA800159B012BE7D99DF85E30002B03D00023BC
:10ACB8008DF85F3020E0002315931AE0159B9B0068
:10ACC80018AA134453F8602C159B9B0018A90B4431
:10ACD80043F8482C159B9B0018AA134453F8502C92
:10ACE800159B9B0018A90B4443F8582C159B01335E
:10ACF8001593159B012BE1D99DF85F30002B7FF44C
:10AD080028AF00BF19B05DF804FB00BF202B00205E
:10AD180008B5024B1B68984700BF08BD8C2B002064
:10AD280084B001900B46ADF80230BDF80230019AAC
:10AD3800134400221A60BDF80230019A13441B68BC
:10AD48000393039B00BF04B0704782B001900B4689
:10AD5800ADF80230BDF80230019A13441B68002B8D
:10AD680014BF01230023DBB2184602B0704700006D
:10AD780082B00190019B1B681F2B02D84FF0A043A3
:10AD880006E0019B1B6803F01F02019B1A60024B3F
:10AD9800184602B0704700BF0003005000B585B0E8
:10ADA800019001AB1846FFF7E3FF0390019B0122D6
:10ADB80002FA03F31946039800F018F800BF05B02B
:10ADC8005DF804FB00B585B0019001AB1846FFF7AC
:10ADD800CFFF0390019B012202FA03F3194603985F
:10ADE80000F00EF800BF05B05DF804FB82B00190DA
:10ADF8000091019B009AC3F8082500BF02B0704774
:10AE080082B001900091019B009AC3F80C2500BF05
:10AE180002B0704700B583B00190019BDB7FFF2B28
:10AE28000ED0019B9B7F002B05D0019BDB7F184632
:10AE3800FFF7C8FF04E0019BDB7F1846FFF7AEFF72
:10AE4800019B00225A77019B00221A72019B1B6802
:10AE5800019A02F10800019A52681146984700BF0A
:10AE680003B05DF804FB00B583B0019000914FF486
:10AE78008C710198FFF769FF0346002B07D04FF448
:10AE88008C710198FFF74CFF0098FFF7C3FF00BFD4
:10AE980003B05DF804FB000008B503490348FFF759
:10AEA800E2FF00BF08BD00BF942B00200030004027
:10AEB80082B003468DF807309DF8073003F01F0273
:10AEC80005499DF907305B09012000FA02F241F8B3
:10AED800232000BF02B0704700E100E082B00346C3
:10AEE8008DF807309DF8073003F01F0206499DF9D9
:10AEF80007305B09012000FA02F2603341F8232091
:10AF080000BF02B0704700BF00E100E082B0034616
:10AF180000918DF807309DF90730002B0CDA009B63
:10AF2800DAB20C499DF8073003F00F03043B5201D5
:10AF3800D2B20B441A7609E0009BDAB206499DF9B1
:10AF480007305201D2B20B4483F8002300BF02B08D
:10AF5800704700BF00ED00E000E100E082B0019022
:10AF6800019B1B0B5BB2184602B0704700B583B05B
:10AF780003460A468DF8073013468DF806309DF8CB
:10AF880006209DF9073011461846FFF7BFFF00BF9E
:10AF980003B05DF804FB00B583B003468DF80730B5
:10AFA8009DF907301846FFF799FF9DF907301846B5
:10AFB800FFF77EFF00BF03B05DF804FB82B001908D
:10AFC8000B468DF803309DF80330019A1344012293
:10AFD8001A6000BF02B0704782B001900B468DF82E
:10AFE80003309DF80320019B1344184602B07047B4
:10AFF80084B001900B46ADF80230BDF80230019ADA
:10B00800134400221A60BDF80230019A13441B68E9
:10B018000393039B00BF04B0704782B001900B46B6
:10B02800ADF80230BDF80230019A13441B68002BBA
:10B0380014BF01230023DBB2184602B0704782B068
:10B0480001900091019B009AC3F8002200BF02B052
:10B05800704782B001900091019B009AC3F80023C9
:10B0680000BF02B0704782B00190019B0122C3F873
:10B07800002500BF02B0704784B001900091002302
:10B088008DF80F3011E09DF80F309B00009A1344A3
:10B098009DF80F201968019B02F5AC7243F8221045
:10B0A8009DF80F3001338DF80F309DF80F30032BCA
:10B0B800E9D900BF04B0704782B001900846114634
:10B0C8001A4603468DF803300B468DF802301346B6
:10B0D800ADF800309DF80320019BC3F80C259DF8BE
:10B0E8000220019BC3F80425BDF80020019BC3F88A
:10B0F800082500BF02B0704700B585B003900B4625
:10B1080001928DF80B30019B1A689DF80B30194697
:10B11800039800F01CF8019B9A889DF80B3019469B
:10B12800039800F025F8019B9A689DF80B301946A2
:10B13800039800F032F8019BDA689DF80B30194645
:10B14800039800F03CF800BF05B05DF804FB84B03C
:10B1580003900B4601928DF80B309DF80B30019A45
:10B16800039929335B010B441A6000BF04B0704790
:10B1780082B001900B468DF803301346ADF80030CD
:10B188009DF80330BDF80020019929335B010B4479
:10B1980004331A6000BF02B0704784B003900B46B6
:10B1A80001928DF80B309DF80B30039A5B01134424
:10B1B80003F5A563019A1A6000BF04B0704784B014
:10B1C80003900B4601928DF80B309DF80B30039AD3
:10B1D8005B01134403F22C53019A1A6000BF04B0B8
:10B1E800704782B001900B468DF8033013468DF8F6
:10B1F80002309DF803209DF802301B021A43019B80
:10B20800C3F8102500BF02B0704782B001900B460A
:10B21800ADF80230BDF80220019BC3F8142500BF29
:10B2280002B0704782B00190019B1B681F2B02D8A7
:10B238004FF0A04306E0019B1B6803F01F02019B2F
:10B248001A60024B184602B0704700BF0003005056
:10B2580000B585B00190084611461A4603468DF898
:10B2680003300B468DF8023013468DF8013001ABE0
:10B278001846FFF7D7FF03909DF803209DF802308A
:10B288005B001A439DF801309B001A439DF8183063
:10B298001B0242EA03019DF81C301B04019A194362
:10B2A800039B02F5E07243F8221000BF05B05DF879
:10B2B80004FB00B585B0039000230193002300939D
:10B2C8000023012201210398FFF7C2FF00BF05B048
:10B2D8005DF804FB00B585B0019001AB1846FFF797
:10B2E800A1FF0390019B012202FA03F31946039878
:10B2F80000F018F800BF05B05DF804FB00B585B094
:10B30800019001AB1846FFF78DFF0390019B0122C6
:10B3180002FA03F31946039800F00EF800BF05B0CF
:10B328005DF804FB82B001900091019B009AC3F87C
:10B33800082500BF02B0704782B001900091019BC0
:10B34800009AC3F80C2500BF02B0704700B589B059
:10B358000190009100238DF81F3050E09DF81F30B8
:10B36800009AD35C8DF81E309DF81E30FF2B38D024
:10B378009DF81E3003F08003002B14BF0123002327
:10B388008DF81D309DF81E209DF81F3022F0800298
:10B398009B0008A90B4443F8142C9DF81D30002B82
:10B3A8000AD09DF81F309B0008AA134453F8143C98
:10B3B8001846FFF78FFF09E09DF81F309B0008AA89
:10B3C800134453F8143C1846FFF798FF9DF81F30B4
:10B3D8009B0008AA134453F8143C1846FFF769FF6A
:10B3E80008E09DF81F309B0008AA13444FF0FF3275
:10B3F80043F8142C9DF81F3001338DF81F309DF849
:10B408001F30032BAAD9019B1B6803AA11461846B3
:10B41800FFF732FE00BF09B05DF804FB00B587B046
:10B42800039002910192039B1B79DB003B4A134472
:10B438000593059B1B79DBB2002B03D008230493EB
:10B44800049B66E0059B019A1A6002990398FFF72E
:10B458007DFF039B1B681846FFF705FE039B1868D2
:10B46800029B5979029B9A79029B1B89FFF724FE5C
:10B47800039B1868029B997A029BDB7A1A46FFF7AE
:10B48800B0FE039B1B6800211846FFF7D8FD039BFD
:10B498001B6800211846FFF7DCFD039B1B684FF46F
:10B4A8008E711846FFF7A4FD039B1B684FF4887143
:10B4B8001846FFF79DFD039B1B684FF48A711846D9
:10B4C800FFF796FD039B1B684FF482711846FFF740
:10B4D8008FFD059B1B68002B15D0039B1B68184626
:10B4E800FFF73CFD03461A46029B1B791946104696
:10B4F800FFF73CFD039B1B681846FFF72FFD03462B
:10B508001846FFF748FD059B01221A710023049392
:10B51800049B184607B05DF804FB00BFB82B002059
:10B5280000B587B00390029111461A460B468DF874
:10B53800073013468DF80630029B02221A71029BCF
:10B548009DF807205A71029B1B68002B25D0822387
:10B5580005939DF8073003F00403002B03D0059BE7
:10B5680043F0100305939DF8073003F00803002B00
:10B5780003D0059B43F0200305939DF8073003F0A3
:10B588001003002B03D0059B23F080030593039B36
:10B598001B6805991846FFF75CFD039B1B684FF471
:10B5A80082711846FFF724FD9DF90730002B0ADA4F
:10B5B800039B1B689DF8062011461846FFF70CFDF3
:10B5C8000490049B08E0039B1B689DF80620114625
:10B5D8001846FFF7F3FC0023184607B05DF804FB94
:10B5E80000B589B00390029100931346ADF8063078
:10B5F800039B1B79DB002C4A13440593039B1B68B0
:10B60800029A00211846FFF777FD039B1B68029AF0
:10B6180001211846FFF770FDBDF8063003F001035D
:10B62800002B14BF012300238DF81B30039B1868DF
:10B63800BDF806305B089AB29DF81B309BB21344E4
:10B648009BB21946FFF7E1FD009B03F00103002BB5
:10B6580002D0102307930FE0009B03F00203002B96
:10B6680008D09DF81B30002B01D0082300E00423EC
:10B67800079301E000230793039B1B68079918466B
:10B68800FFF7DDFC009BDAB29DF81B30002B01D0E0
:10B698000C2300E0082305990398FFF741FF0346B0
:10B6A800184609B05DF804FBB82B002000B583B03C
:10B6B800019000914FF488710198FFF7AEFC0346A2
:10B6C800002B12D04FF488710198FFF791FC009B72
:10B6D8005B7903F00403002B07D0009B1B68002B49
:10B6E80003D0009B1B68012098474FF48A7101988A
:10B6F800FFF793FC0346002B12D04FF48A71019890
:10B70800FFF776FC009B5B7903F00803002B07D05A
:10B71800009B1B68002B03D0009B1B6802209847E6
:10B728004FF48E710198FFF778FC0346002B12D076
:10B738004FF48E710198FFF75BFC009B5B7903F077
:10B748001003002B07D1009B1B68002B03D0009B24
:10B758001B68002098474FF482710198FFF75DFC41
:10B768000346002B0FD04FF482710198FFF740FC7D
:10B77800009B01221A71009B1B68002B03D0009BC1
:10B788001B680320984700BF03B05DF804FB000066
:10B7980008B503490348FFF789FF00BF08BD00BF8C
:10B7A800B82B002000C0014072DF704700BF184668
:10B7B80073DF704700BF184676DF704700BF184632
:10B7C80077DF704700BF18467ADF704700BF18461A
:10B7D8007CDF704700BF18467FDF704700BF184600
:10B7E80088DF704700BF1846B0DF704700BF1846B3
:10B7F800B1DF704700BF184666DF704700BF1846C4
:10B8080042DF704700BF184644DF704700BF184644
:10B8180041DF704700BF184608B50120FEF794F9CC
:10B8280000BF08BD00B583B0019000F003FA00BF67
:10B8380003B05DF804FB000000B585B0FCF7C8FD57
:10B848000390039B0293029B002B02D00298FCF703
:10B8580037F8094A00210948FCF7EEFD0390039BDD
:10B868000193019B002B02D00198FCF729F800BF37
:10B8780005B05DF804FB00BF2DB8020004150300F5
:10B8880000B587B09DF80030012262F303038DF8FC
:10B8980000309DF80030012262F307138DF8003064
:10B8A8001B4805F02BFA03469AB26B46184918460E
:10B8B800FFF78EFF0590059B0493049B002B02D095
:10B8C8000498FBF7FDFF01AB08220021184605F09C
:10B8D800C0F95023ADF80430A023ADF8063000239A
:10B8E800ADF808304FF4C873ADF80A3001AB18460C
:10B8F800FFF76AFF0590059B0393039B002B02D07B
:10B908000398FBF7DDFF00BF07B05DF804FB00BF3D
:10B918000815030000B583B00021084802F038FC80
:10B928000190019B0093009B002B02D00098FBF72D
:10B93800C7FF00BF03B05DF804FB00BFE42B002085
:10B9480000B5ABB016AB3C220021184605F081F9D2
:10B9580002238DF8583000238DF85A3006238DF8CD
:10B968005B3007AB3C220021184605F072F92F4BDB
:10B97800196816AB2E4A184601F01BFB2990299B23
:10B988002893289B002B02D02898FBF799FF274B78
:10B99800996807AB274A184601F00BFB2990299BA9
:10B9A8002793279B002B02D02798FBF789FF01AB31
:10B9B80018220021184605F04CF904238DF8193097
:10B9C80004238DF81A300023ADF8103006238DF8C3
:10B9D80004300023029300238DF818304FF4967337
:10B9E800039301AB1A4611491348FFF7DDFE29906E
:10B9F800299B2693269B002B02D02698FBF760FFF5
:10BA08000D4B1B789BB2042219460120FFF7D8FE84
:10BA18002990299B2593259B002B02D02598FBF77D
:10BA28004FFF00BF2BB05DF804FB00BF4C23002084
:10BA380050230020582300202623002000B583B07F
:10BA480003460091ADF8063013468DF805309DF891
:10BA58000530002B1ED00220FEF70CF81C4B1B787B
:10BA6800002B06D01B4B1B680021184600F040FC39
:10BA780004E0184B1B68184600F0FAFB164A174BEF
:10BA8800D31ADB081B0443F0030315491846FBF7D8
:10BA9800FFF819E00220FDF7FFFF0D4B1B78002B84
:10BAA80004D00021002000F023FC02E0002000F078
:10BAB800DFFB094A094BD31ADB081B0443F00303D5
:10BAC80008491846FBF7E4F800BF03B05DF804FB2B
