:020000040002F8
:10500000784A0220155202001D5202001F5202006F
:10501000215202002352020025520200000000002B
:105020000000000000000000000000002752020005
:1050300029520200000000002B5202002D520200F3
:10504000A95602002F520200255A02002F520200D8
:105050002F5202002F520200CD5302002F520200A5
:105060002F5202002F5202002F5202002F52020034
:105070002F5202002F5202002F5202002F52020024
:105080002F520200F95602002F5202002F52020046
:10509000C95702002F520200D15702002F520200BE
:1050A0002F5202002F5202002F5202002F520200F4
:1050B0002F5202002F5202000000000000000000EA
:1050C0002F5202002F5202002F5202002F520200D4
:1050D0002F5202002F5202002F5202002F520200C4
:1050E0002F5202002F5202002F5202002F520200B4
:1050F000000000002F52020000000000000000002D
:10510000000000000000000000000000000000009F
:10511000000000000000000000000000000000008F
:10512000000000000000000000000000000000007F
:10513000000000000000000000000000000000006F
:10514000000000000000000000000000000000005F
:10515000000000000000000000000000000000004F
:10516000000000000000000000000000000000003F
:10517000000000000000000000000000000000002F
:10518000000000000000000000000000000000001F
:10519000000000000000000000000000000000000F
:1051A00000000000000000000000000000000000FF
:1051B00000000000000000000000000000000000EF
:1051C00000000000000000000000000000000000DF
:1051D00000000000000000000000000000000000CF
:1051E00000000000000000000000000000000000BF
:1051F00000000000000000000000000000000000AF
:10520000DFF80CD000F082F800480047E98802007F
:10521000784A02200648804706480047FEE7FEE736
:10522000FEE7FEE7FEE7FEE7FEE7FEE7FEE7FEE756
:1052300011580200015202000048704740A80300C4
:1052400040EA01039B0703D009E008C9121F08C008
:10525000042AFAD203E011F8013B00F8013B521E88
:10526000F9D27047D2B201E000F8012B491EFBD2FF
:1052700070470022F6E710B513460A460446194661
:10528000FFF7F0FF204610BD421C10F8011B00295B
:10529000FBD1801A7047034611F8012B00F8012B4F
:1052A000002AF9D1184670472DE9F05F0546002025
:1052B00092469B4688460646814640241BE0284687
:1052C00041464746224600F042F853465A46C01A25
:1052D000914110D311461846224600F029F82D1AA4
:1052E00067EB01084F4622460120002100F020F81C
:1052F00017EB00094E41201EA4F10104DFDC4846F3
:1053000031462A464346BDE8F09F0000064C074D53
:1053100006E0E06840F0010394E807009847103485
:10532000AC42F6D3FFF770FF18AD030038AD0300B1
:10533000202A04DB203A00FA02F100207047914055
:10534000C2F1200320FA03F3194390407047202A4A
:1053500004DB203A21FA02F00021704721FA02F31F
:10536000D040C2F12002914008431946704770B501
:105370008D1810F8014B14F0030201D110F8012B25
:10538000231106D110F8013B03E010F8016B01F87E
:10539000016B521EF9D1ABB110F8012B04F00C04D3
:1053A0008A1A0C2C03D0A2EB84129B1C08E010F884
:1053B000014BA2EB0422F8E712F8014B01F8014B74
:1053C0005B1EF9D5A942D4D3002070BD2DE9F04F62
:1053D0008DB0002700200B900C904FF480700A9045
:1053E0000126002412E00A9803F0D2FF40B100BF6A
:1053F00083480068304018B10A9803F0BBFF374378
:1054000076000A98001D80B20A90641C082CEAD32A
:105410004FF4BE7003F0BCFF50B14FF4BE7003F008
:10542000A9FF47F000470BAA0221002003F086FFE6
:10543000F8B200B3012600241BE006EA0700B0B171
:1054400000BF704850F82400C0F30520804600BF1C
:105450006C4850F82400C0F301408146204601F01A
:105460007FFD054615B149464046A84700BF760076
:10547000641C082CE1D307F0004000286FD0002006
:10548000099007900890002505E04FF0FF3005A92E
:1054900041F825006D1C022DF7D300BF00200990B4
:1054A000002471E05848005D0490049820F0C00882
:1054B00055480057401C002865D005A9404603F018
:1054C0003BFB00285FD004984FEA901A404601F059
:1054D0008FFD814601F044FD0390039810B9BAF1A5
:1054E000030F4FD1BAF1030F11D1414607A802466D
:1054F000CB0801F0070112F803C04FF0010E0EFABD
:1055000001FE4CEA0E0C02F803C000BF00BFCDF84C
:10551000088002A803F0B0FE0190019800F5E06059
:10552000029950F82100C0F3014900BF0BA9404681
:1055300003F002FB8346BBF1000F02D0B9F1020F6A
:1055400005D0BBF1000F1CD1B9F1030F19D1BAF18D
:10555000030F10D1B9F1020F02D1032001E04CE09A
:10556000022002904046029903F02EFE0998401C4A
:10557000C0B2099000BF039818B151464046039A43
:10558000904700BF00BF641C042C8BD3099878B3EC
:105590004FF0010803AA0221002003F0CFFE0025EE
:1055A0000BE003A850F825000BA951F825108842FC
:1055B00002D04FF0000802E06D1C022DF1D300BFB5
:1055C000B8F1000F02D00020099010E000250CE097
:1055D00003A850F825000BA941F8250007A850F8AA
:1055E000250005A941F825006D1C022DF0D300BF50
:1055F000099800287FF452AF00BF0DB0BDE8F08FCE
:105600000463004010650040B8F1012000F01F0263
:1056100001219140024A430942F8231070470000DB
:1056200080E200E000F01F0201219140024A43099C
:1056300042F823107047000080E100E000F01F02F4
:10564000012191404209920002F1E022C2F80011CA
:10565000704700F01F02012191404209920002F1BF
:10566000E022C2F80011704700F01F0201219140B2
:10567000024A430942F823107047000000E200E0AC
:1056800010B5002807DA4A07140E054A00F00F0388
:105690001B1FD45403E04A07130E024A135410BDD3
:1056A00018ED00E000E400E010B54FF4807003F066
:1056B000CFFA60B14FF4807003F0D3FA012003F009
:1056C000D9FA01200B494870002001F097FC4FF4F3
:1056D000827003F0BDFA58B14FF4827003F0C1FA42
:1056E000022003F0C7FA01200249887001F086FC0D
:1056F00010BD000044F1012010B5002009490860E8
:1057000000210948C0F84411C0F84811C0F84C11F4
:1057100000200549C1F8000102493C39086005F044
:10572000F9F910BD401101400010014010B500BF53
:105730000348007808B900F087F900BF10BD0000E9
:1057400040F901202DE9F047074688461646C24633
:1057500007EB47011B4800EBC109D9F8140020B141
:10576000012811D0022826D11EE0484600F0A4F9F5
:105770000546B54201D2002405E034463246514682
:10578000484600F0E0F918E0484600F095F9054673
:10579000B54201D2284600E0304604462246514632
:1057A000484600F0D0F908E032465146484600F03D
:1057B00091F9044601E0002400BF00BF2046BDE887
:1057C000F087000058F9012010B505F0ADF810BDC4
:1057D00070B50A48006868B1084800688047044608
:1057E00000BF254625B100BF284600F08DFE00BF52
:1057F00000BF01E002F0EEF870BD0000283100208B
:1058000001480249086070470090D00370F0012001
:1058100010B501F0B1FF40B10020734908604FF0AE
:105820008041C1F810017149086001F0B3FF002800
:1058300055D06F4800686F4908606D48001D0068CA
:10584000091D08606A4808300068091D086068483A
:105850000C300068091D0860654810300068091D9B
:105860000860634814300068091D086060481830FB
:1058700000686049203108605D481C300068091DDF
:1058800008605B4820300068091D086058482430D3
:105890000068091D0860564828300068091D086026
:1058A00053482C300068091D0860514830300068AA
:1058B0005049403108604E4834300068091D086086
:1058C0004B4838300068091D086049483C30006882
:1058D000091D0860464840300068091D086001F055
:1058E00067FF10B144484549086001F01BFF10B143
:1058F000FB204349086001F023FF38B1414801789B
:105900004148006861F303003F49086001F026FF49
:1059100018B14FF400703D4908603D48006840F4FC
:1059200070003B49086000BF00BF00BFBFF34F8F4E
:1059300000BF00BF00BF00BF00BF00BFBFF36F8F3D
:1059400000BF00BF00BF3348006800F0004030B91E
:105950003048001D006800F00040002840D00120C1
:105960002D49086000BF2D4800680028FBD0122098
:105970002849086000BF294800680028FBD0122190
:105980002448001D016000BF244800680028FBD0A7
:1059900000202149086000BF204800680028FBD093
:1059A00000BF00BF00BF00BF00BFBFF34F8F00BFED
:1059B00000BF00BF16487C38006800F4E06018495A
:1059C0000843001D12497C39086000BF00BF00BFBA
:1059D000BFF34F8F00BF00BF00BF00BF00BFFDE798
:1059E000FFF70EFF10BD00000C010040380500401D
:1059F0000404001020C50040488103008C5600407C
:105A000018F5004058020010E40E00404096024095
:105A100088ED00E00012001004E5014000E40140C0
:105A20000000FA0510B50648007F20B1044905487A
:105A300005F0D0F903E00249024805F02AF910BD4B
:105A4000C0F101200020004010B5124C022020615E
:105A5000606111A0A0611349E1614FF400712162FE
:105A60000021A1626162E1620BA0A0640E49E164C1
:105A7000102121650021A1656165E1650BA1E01D93
:105A8000FFF709FC0AA12046FFF705FC2020A071C2
:105A900010BD000040F901205465726D696E616CA3
:105AA0000000000030F7012030F90120525454006A
:105AB000534547474552000010B501460A69CB6877
:105AC0009A4204D88C68641EE41AA01801E0D41A23
:105AD000601E10BD2DE9F0470446894617464FF079
:105AE000000AE56800BFD4F81080A84503D9A8EBE8
:105AF0000500461E04E0A5EB0800401CA1680E1A34
:105B0000A068401BB04201D9304601E0A068401BAC
:105B10000646BE4201D2304600E03846064661687D
:105B2000481932464946FFF78BFBB244B144BF1BCC
:105B30003544A068A84200D10025E560002FD2D1ED
:105B40005046BDE8F0872DE9F047044689461546E2
:105B5000E668A068871BAF4208D9616888192A46A1
:105B60004946FFF76DFB7019E06010E0B8466168C8
:105B7000881942464946FFF763FBA5EB070809EB86
:105B8000070142466068FFF75BFBC4F80C80BDE884
:105B9000F08700000FB41CB50246002007AC0029B6
:105BA0000BD0491ECDE90021054B6A4621460698D7
:105BB00000F04EF8009A002111701CBC5DF814FB37
:105BC000B36002000FB4084B10B504A902AA0398F1
:105BD00000F03EF8044602A9002000F075FA2046C5
:105BE00010BC5DF814FB0000C960020002E008C8A8
:105BF000121F08C1002AFAD170477047002001E047
:105C000001C1121F002AFBD1704700000146202964
:105C100008DA012088400A4A104008B10120704784
:105C20000020FCE7402909DAA1F12000012202FA54
:105C300000F008B10120F2E70020F0E70120EEE7D4
:105C4000FC06FFBD00BFEFF31081084672B6704737
:105C50002DE9FF4F8DB00F460546002606E02528AA
:105C60000BD0DDE90F1290476D1C761C28780028B8
:105C7000F5D111B03046BDE8F08F0024A246A14610
:105C80000122EC4900E0044315F8013F203B02FAF1
:105C900003F00842F7D128782A2810D06FF02F029D
:105CA0002878A0F13001092914D80AEB8A0102EB07
:105CB000410144F0020400EB010A6D1CF0E701CF42
:105CC0005FEA000A03D544F40054CAF1000A44F024
:105CD00002046D1C28782E2817D115F8010F44F006
:105CE00004042A280ED06FF02F022878A0F130018A
:105CF00009290AD809EB890102EB410100EB0109EE
:105D00006D1CF2E757F8049B6D1C28786C280FD0A7
:105D100006DC4C2817D068280DD06A2814D104E07E
:105D2000742810D07A280FD10DE044F400140AE052
:105D300044F4801401E044F440146978814202D1B3
:105D400004F580146D1C6D1C2A786E2A1FD00CDCA3
:105D5000632A31D004DC002A8BD0582A11D1A3E069
:105D6000642A68D0692A0CD165E0732A2ED004DC3D
:105D70006F2A73D0702A04D19BE0752A6FD0782ADD
:105D80006ED01046DDE90F129047761C50E1C4F347
:105D90000250022806D0032809D0042801CF09D0D8
:105DA000066045E101CFF117C0E9006140E101CF94
:105DB00006803DE106703BE117F8040B8DF800000A
:105DC00000208DF80100EB46012003E057F804BBEA
:105DD0004FF0FF3061074FF0000102D40DE008F1F1
:105DE0000101884649450FDA8045F8DB1BF80810A9
:105DF0000029F4D108E008F1010188468142FADB6C
:105E00001BF808100029F6D1DDE90F23AAEB0800E2
:105E10008146214600F036F9304400EB080604E0E4
:105E2000DDE90F121BF8010B9047B8F10108F7D21A
:105E300021464846F7E00A21C4F302534FF0000B15
:105E40000891022B04D001CFC117032B09D00AE01F
:105E5000FF1D27F00707F7E8020108E032E01FE026
:105E600020E000B2C117042B01D140B2C117031EBC
:105E700071F1000307DA4FF0000CD0EB0C006CEB73
:105E800001012D2302E0230504D52B238DF82430B6
:105E9000012303E0E30701D02023F7E7984658E009
:105EA0000A2110E010210EE010204FF0000B0890A6
:105EB0000CE010214FF0000B44F004044FF00809EF
:105EC000089103E008214FF0000B0891C4F302533E
:105ED000022B04D001CF0021032B06D006E0FF1DCA
:105EE00027F00707F7E8020103E080B2042B00D196
:105EF000C0B24FF0000823072BD5702A07D0DDF879
:105F000020C08CF0100C5CEA0B0C05D00EE0402396
:105F10008DF82430012308E050EA010306D0302335
:105F20008DF824308DF8252002239846DDF820C016
:105F30008CF0080C5CEA0B0C0BD150EA010301D188
:105F4000630706D530238DF824304FF00108A9F1FE
:105F50000109582A04D038A20B9208AA0A920BE031
:105F60003AA2F9E75B46089AFFF79EF90B9B9B5C08
:105F70000A9A521E0A92137050EA0102F2D10A984C
:105F8000ADEB000000F1200B600702D524F4803453
:105F900001E04FF00109D94502DDA9EB0B0000E05B
:105FA000002000EB0B0141440890AAEB010AE0033A
:105FB00006D4DDE90F232146504600F063F806447D
:105FC0004FF0000908E009A911F80900DDE90F12F6
:105FD000904709F10109761CC145F4DBE0030CD5BB
:105FE000DDE90F232146504600F04CF8064404E05A
:105FF000DDE90F1230209047761C0899481E089062
:106000000029F5DC08E00A980A990078491C0A91F1
:10601000DDE90F129047761CBBF10001ABF1010BDB
:10602000F1DC21465046DDE90F2300F019F8064463
:106030006D1C1BE609280100303132333435363708
:1060400038396162636465660000000030313233C4
:106050003435363738394142434445460000000064
:106060002DE9F041044600251E461746880404D455
:1060700005E039462020B0476D1C641EF9D528463E
:10608000BDE8F0812DE9F041044600251E4690460A
:10609000C80301D5302700E02027880404D505E097
:1060A00041463846B0476D1C641EF9D52846BDE808
:1060B000F0814A68002A06D00A68531C0B601070F1
:1060C0004868401E486070470A68531C0B60107097
:1060D00070472DE9FC41044688461646002537885E
:1060E0000020308094F82D0058B13A4631464046A1
:1060F00000F0D7FB054600BF15B12846BDE8FC817E
:1061000000BFA07850B13A463146404600F0C2FA8E
:10611000054600BF0DB12846F0E700BFE07860B14A
:10612000E17848B23B463246414601F07BFB0546EA
:1061300000BF0DB12846E1E700BF606868B1616843
:1061400091F900003B463246414604F087FD054682
:1061500000BF0DB12846D1E700BF208900280EDD21
:1061600043460622022104F10800CDE9006704F04D
:106170002FFF054600BF0DB12846BFE700BF208AAC
:1061800000280EDD43460722032104F11000CDE96B
:10619000006704F01DFF054600BF0DB12846ADE7BE
:1061A00000BF208B00280EDD43461522142104F188
:1061B0001800CDE9006704F00BFF054600BF0DB1E4
:1061C00028469BE700BF206A58B13B46324641460D
:1061D000206A00F0C2FF054600BF0DB128468DE7DA
:1061E00000BF606A58B13B4632464146606A02F0E1
:1061F00007FC054600BF0DB128467FE700BF94F8B5
:106200002C0000280BDD3B4632464146204604F078
:106210000DFA054600BF0DB128466FE700BF207894
:1062200058B13B4632464146204602F024FC054622
:1062300000BF0DB1284661E700BF28465EE7014672
:10624000C87800F0040008B9072070470020FCE778
:1062500030B59FB01648006800901648807C8DF8D5
:1062600002003C2110A8FFF704F802208DF840003E
:1062700001208DF8420006208DF843003C2101A842
:10628000FEF7F7FF0120ADF81400CDF818D001A9F2
:1062900010A800F028FA044600BF254625B100BF2B
:1062A000284600F031F900BF00BF1FB030BD00002C
:1062B000FCB0020098F0012030B587B0182101A889
:1062C000FEF7D7FF182101A8FEF7D3FFBDF808009D
:1062D00020F00100401CADF80800BDF8080020F0D7
:1062E0000200ADF80800BDF8080020F01000ADF87D
:1062F000080004208DF815008DF8160000208DF898
:1063000012008DF817009DF8180020F07F008DF81E
:1063100018009DF8180020F080008DF8180000206B
:106320008DF8190001908DF8140080200390002052
:10633000ADF81000012201A973DF044600BF254615
:1063400025B100BF284600F0DFF800BF00BF07B04E
:1063500030BD000010B5002406E00849096811F8B6
:10636000340002F0ABFD641C054800788442F4D38D
:106370000448006800F04CF910BD0000F83000201F
:10638000FC30002084B1020010B5002407E007496A
:10639000096811F83400012102F0BAFD641C0448B8
:1063A00000788442F3D3002010BD0000F8300020B4
:1063B000FC3000202DE9F84306460C461746052F11
:1063C00002D20720BDE8F88302F0A2FE38B902F03D
:1063D0006FFE054600BF0DB12846F3E700BF164823
:1063E00006601648047016480760002015490860CA
:1063F0001549086015E006EBC408144800680090D1
:1064000098F802008DF8010098F80000104A6946DB
:1064100002F0D4FD054600BF0DB12846D2E700BF0B
:1064200000BF201EA4F10101CCB2E4D1094A002131
:10643000094800F077F8C5E7F8300020FC3000206C
:1064400000310020043100200831002088B1020012
:10645000557902000973020084B102001DA10120D8
:1064600003F02EFA00BF03F035F900BF00BF03F0C0
:1064700037F90028FBD100BF00BF1A48006800F0C0
:10648000010000B100BE00BF00BF17A1032003F050
:1064900017FA00BF00BF00BF00BF00BFBFF34F8FA0
:1064A00000BF00BF00BF0F48E438006800F4E060A0
:1064B00014490843001D0B49E439086000BF00BFC0
:1064C00000BFBFF34F8F00BF00BF00BF00BF00BFC2
:1064D000FDE700003A4552524F523A466174616CF2
:1064E0000D0A0000F0ED00E03A494E464F3A486987
:1064F00074207765616B2068616E646C65720D0A4B
:10650000000000000000FA053EB50446002000909F
:106510000190029002946A46002144F20100FFF7C4
:106520009DFF3EBD10B503460C4600BF0B4880786A
:1065300008B9082010BD00BF0AB90720FAE70BB957
:106540000720F7E71868007C08B10820F2E719680F
:10655000002008744C744A6100BFEBE700F2012090
:1065600010B503F06DFF00200F49087048700B2034
:10657000887000200D4908600D4908700D490870A9
:106580001420FFF743F807211420FFF779F81420AF
:10659000FFF754F8002003F029FF03F021FF06491C
:1065A0000860002010BD000000F201200C31002026
:1065B0001C3100201D310020103100202DE9F04158
:1065C00004460E461746254600BF1048807810B98D
:1065D0000820BDE8F08100BF0CB90820F9E7052EBE
:1065E00001D20720F5E7686908B90820F1E7687C5F
:1065F000012801D1304600E0002080463B4642465B
:106600003146284604F036FAE3E7000000F20120A4
:1066100070B50446254600BF0848807808B90820B0
:1066200070BD00BF0CB1686908B90820F8E7002008
:1066300028740221284604F04CFAF1E700F2012008
:1066400010B50446204603F099FF10BD70B504460E
:1066500025460E488068B0B1ADB9FFF7F3FA06469B
:106660000A4800680A490860084840684FF0E0217D
:10667000C1F804010020054988601EB900BF62B658
:1066800000BF00BF00BF00BF70BD00000CF30120C1
:1066900000E100E0F8B505460C4617462088001DCD
:1066A000B84201D90C20F8BD684679DF064600BF24
:1066B0000EB13046F7E700BF0320218868542088D8
:1066C000401C20801920218868542088401C20808C
:1066D00020884119BDF8000004F008FC2188084416
:1066E00020800020DFE72DE9F04F8DB083468846FB
:1066F0001B27099708970B970B9802F04BF9054653
:106700000A970A9802F046F90646BBF1000F25D019
:106710005846FFF794FD044600BF54B1304601943B
:1067200001F09CF8284601F099F801980DB0BDE8F9
:10673000F08F00BF09AA29465846FFF7CAFC044655
:1067400000BF44B13046019401F088F8284601F0BA
:1067500085F80198EAE700BFA94603E04FF0000979
:1067600000200990BDF82400ADF81C00CDF8189069
:1067700006A80390B8F1000F23D0404604F0C2F8F9
:10678000044600BF44B13046019401F067F8284642
:1067900001F064F80198C9E700BF08AA31464046F5
:1067A000FFF797FC044600BF44B13046019401F066
:1067B00055F8284601F052F80198B7E700BFB246F5
:1067C00003E04FF0000A00200890BDF82000ADF86B
:1067D0001400CDF810A004A802900020DDE90221E9
:1067E00072DF0C90304601F039F8284601F036F897
:1067F0000C989BE770B505461C2229461248FEF707
:106800001FFD002011490870286850B11048296800
:106810000A680260496841607ADF04463CB120465C
:1068200070BD0B487BDF04460CB12046F8E74FF6FD
:10683000FF7008490880002007490870074A0021B6
:106840000748FFF76FFEEBE708F10120F430002066
:10685000E0300020EA300020E8300020F9AE0200ED
:106860000CB1020010B504462088102806D011286B
:1068700008D012280ED0502810D107E0204603F08F
:106880003DFB0CE0204603F079FC08E0204603F0D5
:1068900029FD04E0204603F025FB00E000BF00BF17
:1068A00010BD2DE9FC4105460C46174620880930ED
:1068B000B84202D90C20BDE8FC8168466DDF06466F
:1068C00000BF0EB13046F6E700BF082021886854AB
:1068D0002088401C20801B20218868542088401C70
:1068E000208020882844DDF801100160BDF80510E3
:1068F00081802088801D20809DF80000400818B904
:1069000000202188685402E00120218868542088F2
:10691000401C20800020CEE710B50446204603F03E
:106920001DF92046FFF79EFF2146044800F048F875
:106930002146034802F026F910BD000098F001201E
:106940007CF0012070B586B004460E463068606168
:106950001A4B0FCB01AD0FC504F1120101A862DF84
:10696000054600BF15B1284606B070BD00BFA07C2B
:106970008DF8160041F22350ADF81400224605A907
:106980000120A0DF054600BF0DB12846ECE700BF9F
:106990003146204600F0BCF9054600BF0DB128463F
:1069A000E2E700BF3146204601F01EFE054600BF6B
:1069B0000DB12846D8E700BF0020D5E728B1020076
:1069C00070B505460C462088502804D1214628463B
:1069D00003F0AEFC00E000BF00BF70BD37B586B06D
:1069E00005460C460120019000200290039004907F
:1069F000059001208DF80A006089ADF8080008A80C
:106A0000059001A8049002A92846A6DF09B030BD70
:106A100070B50446204604F063FA054605F001000F
:106A200070BD000070B586B047480068059000BF93
:106A300000235822454905A803F00EFF054600BF74
:106A40002E4626B100BF3046FFF75EFD00BF00BFF7
:106A500000BF0020049004A803F04AFE044600BFD3
:106A6000254625B100BF2846FFF74EFD00BF00BFF9
:106A7000002001900290039001208DF80400002076
:106A80008DF805008DF8060001A94020049A69DF01
:106A9000044600BF254625B100BF2846FFF734FD58
:106AA00000BF00BF002001900290039001208DF8EC
:106AB00006000621ADF808108DF8040001A9202079
:106AC000049A69DF044600BF254625B100BF284669
:106AD000FFF71AFD00BF00BF002001900290039055
:106AE00001208DF806000621ADF8081002208DF86F
:106AF000040001A92020049A69DF044600BF25464E
:106B000025B100BF2846FFF7FFFC00BF00BF04A867
:106B100003F004FE044600BF254625B100BF284609
:106B2000FFF7F2FC00BF00BF094803F0EBFD04468D
:106B300000BF254625B100BF2846FFF7E5FC00BF92
:106B400000BF06B070BD000000B10200B0F001202F
:106B5000196902001CB50246D012C0008DF804006D
:106B6000C2F3451080008DF80500D006000E8DF8A8
:106B70000600C812C0008DF80000C1F34510800067
:106B80008DF80100C806000E8DF8020000201AE002
:106B900001AB1B5C00EE903AF8EE600AB7EE001A0B
:106BA00031EE401A60EE810A1DF8003001EE103A15
:106BB000B8EE411A41EE000AFCEEE00A10EE903AFF
:106BC00001AC2354401C0328E2DB9DF8050000F0D3
:106BD0001C00C0009DF8063040EAE3009DF8043038
:106BE00003F0F8039DF8054043EA641300EB03202B
:106BF00080B21CBD10B504460249085D012102F0B7
:106C000075FB10BD04B102007CB500240CE00948FE
:106C1000055D0020009003460122114601902846A0
:106C200002F080FA00BF641C042CF0D300F004F8DA
:106C30007CBD000004B1020010B5002403E0204632
:106C4000FFF7D8FF641C042CF9D310BD02460029BD
:106C500001DA002003E013680B4413600120704741
:106C60002DE9FC4704460D46641C0127B846002068
:106C7000019001A8FFF7E4FC1C48006828601B484D
:106C800000681A494968411A18488068401C461A29
:106C900004EB0709B1451CD9C6B11548006800903E
:106CA00014480068009960F39F2100910F48009AF2
:106CB00000680E490968491C0C4B1960194689681F
:106CC000084003F10C0141F8202000BF4FF00008FC
:106CD00004E0064800682044044908609DF8040068
:106CE000FFF7B4FC4046BDE8FC87000018F3012024
:106CF0008CB102002431002004484068034909682F
:106D0000884201D1012070470020FCE718F30120E0
:106D100030B58FB004460D460020079000BF9DF8A7
:106D20001C0020F00F00401C8DF81C009DF81C007A
:106D300020F0F00010308DF81C0000BF00BF9DF85F
:106D40001D0020F00F00401C8DF81D009DF81D0057
:106D500020F0F00010308DF81D0000BF9DF81E00DF
:106D600020F00600801C8DF81E001C2108A8FEF7EC
:106D700080FA9DF8200020F00200801C8DF8200091
:106D80009DF8200020F0100010308DF82000002029
:106D900009900B900C9007A80D9000200E90A07CFD
:106DA0008DF8060041F22450ADF804000020009058
:106DB00000BF9DF8000020F00F00401C8DF800007F
:106DC0009DF8000020F0F00010308DF8000000BFAA
:106DD00000BF9DF8010020F00F008DF801009DF824
:106DE000010020F0F0008DF8010000BF9DF80200C6
:106DF00020F00600801C8DF802009DF8020020F0B3
:106E000008008DF802009DF8020020F010008DF8B7
:106E100002009DF8020020F001008DF8020014210C
:106E200002A8FEF726FA01A80290CDF80CD00120A6
:106E3000ADF810000020ADF812000120ADF81400EC
:106E400000200690208804F10A0302AA08A9A2DF04
:106E50000FB030BD2DE9F04105460E460B2D1FD178
:106E600014A1032002F02CFD32461C491C48008866
:106E7000FFF7B4FD044694B143F2020084420ED001
:106E8000082C0CD043F20140844208D000BF2746B2
:106E900027B100BF3846FFF737FB00BF00BF05E052
:106EA00000BF2846FFF730FB00BF00BF00BFBDE8B2
:106EB000F08100004150503A494E464F3A53656EBA
:106EC0006420627574746F6E2073746174652063DE
:106ED00068616E67652E0D0A0000000098F00120C1
:106EE000D230002070B540F2666201210648FFF7FB
:106EF00061FA044600BF254625B100BF2846FFF7CA
:106F000003FB00BF00BF70BDD830002030B5024683
:106F10000B4602210EE08C0042FA04F404F00F004C
:106F2000092802DD00F1370401E000F13004C1F16D
:106F300001055C550C1EA1F10101ECD130BD000032
:106F40004FF0FF31054A42F82010082804DBFF23E8
:106F5000A0F10801603253547047000058F101203D
:106F60000146024850F821007047000058F1012006
:106F70002DE9F04F03460C464FF0FF390AB10020CF
:106F800000E0082084460AB1082000E00C2080467A
:106F9000614624E0154850F82100401CF0B91D4618
:106FA0000846274616464FFA80FBDFF840A00AF154
:106FB000300A0AF805B0DFF834A04AF820704EB95C
:106FC0004FFA85FBA0F1080ADFF820E00EF1600E11
:106FD0000EF80AB000BF4FFA81F902E0491C4145A2
:106FE000D8D300BF4846BDE8F08F000058F101201B
:106FF000014601484056704788F1012070B50546AA
:107000000DB9094C01E0084C083409E0204600F0B5
:107010004FFD064606B904E028467168884700BF60
:10702000F4E700BF70BD00004CF101202DE9F047EE
:1070300082461F480068002836D01D480068056851
:1070400003F0CEF907461B4804682146384603F092
:1070500060FCC61C1848007808B903F0D3F9AE42AA
:1070600001D2284600E03046044424F07F44204604
:1070700003F0B0F903F0B4F980463946404603F016
:1070800048FC00F103093946204603F042FC8145E3
:1070900009D903F0A5F9814603F09CF92F2001F0EE
:1070A0003BFE03F083FD01E003F0CAF9BDE8F08781
:1070B0000C310020103100201E3100202DE9F84F46
:1070C0001B2401252E464FF00008C1464746009478
:1070D000684602F0B1F8824645EA460040EA880078
:1070E00040EA092040EA07410AF5E060009A40F8CA
:1070F000221000BF00BF1B2002F083F8BDE8F88F0C
:1071000001460888062808DB0888B0F5486F06DDC8
:1071100008884FF6FF72904201D0072070474888D8
:10712000062808DB4888B0F5486F06DD48884FF62A
:10713000FF72904201D00720F0E708884FF6FF72F7
:10714000904208D04888904205D008884A889042EA
:1071500001DD0720E2E70020E0E72DE9F0410646E7
:107160000D46144698462088801D404502D90C20C3
:10717000BDE8F0813046FFF7C3FF074600BF0FB1FF
:107180003846F5E700BF0520218868542088401C58
:1071900020801220218868542088401C208022886A
:1071A0005119308803F0A2FE2188084420802288EB
:1071B0005119708803F09AFE21880844208000202D
:1071C000D6E710B5044600BF2046FFF79DF900BF83
:1071D00010BD000030B587B01C216846FEF749F8A5
:1071E000002000904FF42020019080100290032096
:1071F0008DF80C000020ADF80E008DF81000094845
:107200000590094806906846FFF7F4FA044600BF67
:10721000254625B100BF2846FFF776F900BF00BF1D
:1072200007B030BDB99E0200C371020038B51B48DB
:1072300000F02CFC20BB1A48007848B1194840697E
:10724000E8B100200090174841696846884716E079
:107250001548007810B91348456801E01148856861
:107260000022294611480068FFF7A8F9044634B106
:107270000C48806918B10B4881692046884709E0AD
:107280000848406930B101200090064841696846CD
:10729000884700BF00200249087038BDEC3000204C
:1072A000F430002008F10120E83000200CB1020089
:1072B0007CB504460D46A81D00EBC4008279234628
:1072C0000F49042002F066FB002000900190A81DE9
:1072D00000EBC4008079ADF80000A81D00EBC400ED
:1072E0008079ADF8020000226946204690DF06460C
:1072F0002EB1334622460349012002F04BFB7CBDF0
:1073000010AC0300A8AA03002DE9F0478146002530
:1073100032E01C48006800EBC5042178012000FA27
:1073200001F619480068304020B317480068B043A0
:1073300015490860207801F0B1FE07462178012048
:107340008840124909680840217807FA01F188420B
:107350000FD16078012800D100E00020784080F053
:107360000108606820B108F0FF012078626890474A
:1073700000BF00BF681CC5B2054800788542C8DB65
:10738000BDE8F087F83000200831002004310020EB
:10739000FC30002010B500F09DFC002000F004F946
:1073A00010BD000038B504466448007830B300F0E2
:1073B0008BFB6348008800F081FB782040F23F138C
:1073C0000022114600905E48008800F061FC5D4894
:1073D000008800F079FC5C4800F05AFE012000F0C3
:1073E0009DFD5AA20221A02000F07EFE5AA23C215F
:1073F000A02000F079FE00205049087020785749FD
:10740000097888422DD0F0200090217811B154499C
:10741000098801E053490988084640F23F13782261
:10742000002100F035FC002000F078FD4E4800F00F
:107430002FFE4448008800F047FC217811B14849EC
:10744000098801E047490988084600F037FB2078A1
:1074500008B146A000E048A002467D21052000F0CA
:1074600043FE2078002862D094F901003B4991F94D
:107470000110884221D03C4800F00AFE31480088C3
:1074800000F022FC3648008800F018FB002000F0D5
:1074900045FDBE20AA23A0226E210090304800881E
:1074A00000F0F6FB94F9012037A13A48FEF78AFB79
:1074B000384AA0210A2000F017FEA07827498978D1
:1074C000884234D0E6200090A17811B13249098871
:1074D00001E03249098808464FF49B738222D22189
:1074E00000F0D6FB204800F0D3FD022000F016FD8E
:1074F000A17811B12949098801E02749098808467E
:1075000000F0E2FBA17811B12349098801E0234989
:107510000988084600F0D2FAA07808B120A000E05F
:1075200020A00246C4214FF49A7000F0DDFD0B4804
:1075300021880180A178817038BD00006CF00120A5
:1075400058F0012060F0012094A70300426C75659B
:10755000746F6F7468000000350000006DF001204A
:1075600064F0012066F0012008E20200436F6E6EB5
:107570006563746564000000446973636F6E6E65D3
:107580006374656400000000525353493A20256932
:1075900000000000580A022068F001206AF0012073
:1075A0004F4E00004F4646007CB5054600F08CFA71
:1075B00025B1012D05D0022D09D105E02B48048805
:1075C00005E02B48048802E02A48048800BF00BF79
:1075D000204600F073FA322040F23F130022114699
:1075E0000090204600F054FBF02040F23F1132237F
:1075F0000022CDE900102146204600F07FFA1E4807
:10760000008800F061FB1D4800F042FD012000F001
:1076100085FC1BA21421A02000F066FD012000F0D3
:107620007DFC1AA25A21A02000F05EFD184800F04F
:107630002FFD012000F072FC16A2B921A02000F05D
:1076400053FD4FF6FF7000F039FA4BF23F5000F057
:107650003BFB012000F062FC124800F019FD12A271
:10766000E121A02000F040FD7CBD000058F0012089
:107670005AF001205CF0012060F0012094A7030083
:10768000426C7565746F6F7468000000350000000F
:1076900008E202004C6F6E672072616E67652064BD
:1076A000656D6F006CB702004E6F726469632053A2
:1076B000656D69636F6E647563746F7200000000BE
:1076C000014614480078144A127890421DD011489F
:1076D0000078401C0F4A107010460078022801D133
:1076E000002010700D480B4A127850F822000860F4
:1076F0000B4A086812681044094A10601046006876
:1077000020F07F401060012070470020086000BF1B
:10771000FAE700001C3100201D3100201431002048
:107720001031002005480068082805D10348001DD5
:10773000006808B9012070470020FCE73001001004
:1077400005480068082805D10348001D006808B9ED
:10775000012070470020FCE7300100100548006858
:10776000082805D10348001D006808B901207047AA
:107770000020FCE73001001005480068082805D10A
:107780000348001D006808B9012070470020FCE78D
:107790003001001005480068082805D10348001D85
:1077A000006808B9012070470020FCE73001001094
:1077B00005480068082805D10348001D006808B97D
:1077C000012070470020FCE730010010F0B50346AF
:1077D00000241FE0124E306806689E4203D90668F6
:1077E000F61A06601AE006689B1B066834440026F9
:1077F00006600B4E35680A4FC6693E60C66846B1E2
:107800000E1926F07F464660C66886601668C66117
:10781000156000BF024800680028DBD100BFF0BD42
:107820000C31002030B504461088C01C984201D9A4
:107830000C2030BD0220158848551088401C10804F
:107840000120158848551088401C108015884C551B
:107850001088401C10800020EBE7000010B50028C5
:1078600021D0114B0022001F196803E0814203D888
:107870000A4649680029F9D152B11368841A9C421A
:1078800004D1006818441060104602E0506000E027
:10789000186039B102680B1A934203D10B681A447D
:1078A00002604968416010BD74F001203EB500BF20
:1078B0009DF8000020F00F00401C00909DF8000093
:1078C00020F0F0001030009000BF0D2214A1684697
:1078D0007CDF044600BF254625B100BF2846FEF7E1
:1078E00013FE00BF00BF0020019002900620ADF8FB
:1078F00004001820ADF806000020ADF808004FF491
:10790000C870ADF80A0001A87ADF044600BF25461A
:1079100025B100BF2846FEF7F7FD00BF00BF3EBD02
:107920004E543A4C4F4E475F52414E47450000007F
:1079300070B50021064801F00AF9044600BF25464B
:1079400025B100BF2846FEF7DFFD00BF00BF70BDB8
:107950007CF001202DE9F04105460F46012000FA98
:1079600005F418480068FEF753FE06460EB1BDE860
:10797000F081154800682040E0B9284601F08EFBF0
:1079800028B11248006820431049086004E00F48FD
:107990000068A0430D4908600B48006820430A496D
:1079A000086000220A48016806480068FEF706FEE3
:1079B000064604E004480068A0430349086000BF8D
:1079C000D5E7000084B10200083100200431002016
:1079D00000310020F8B52748007800B9F8BD00252F
:1079E0002548006808B9012000E00020064600BFD5
:1079F000DDB92248007800B1F0E7684648DF044668
:107A0000052C01D101250FE024B100BF2046FEF76F
:107A10007BFD09E0009801F019FA1948006818B1D7
:107A2000174900980968884700BFDEB913480078F5
:107A300000B1D3E7134800880090694612480068F7
:107A400061DF0446052C01D101260AE024B100BF04
:107A50002046FEF759FD04E00B4800680649096816
:107A6000884700BF0DB106B100E0C1E700BF00BF0D
:107A7000B4E70000303100203C31002031310020DB
:107A80002C31002038310020343100200146488854
:107A9000064A1288904206DB4888044A528890427F
:107AA00001DC012070470020FCE70000E0300020EE
:107AB0000146086808B102680A60704701490880F9
:107AC000704700004E31002070B5EF2440F23F15A2
:107AD00000F099FB23462A460021084600F048FDA5
:107AE000601C6A1C10FB02F10348008800F01EFCB9
:107AF00000F084FB70BD00004E3100202DE9F84FEE
:107B000081468A4616461D46DDE90AB72C461FE027
:107B1000601B00EE100AF8EEC00A781B00EE100A97
:107B2000B8EEC00A80EE801AF0EE411AB0EE610A9B
:107B300051464846FFF70EF8804620B20FFA8BF305
:107B400022B231B20090404600F006F8601C84B2C8
:107B5000BC42DDDBBDE8F88F2DE9F04F2DED028B47
:107B600081B082460C4615461E460C9FB44201D099
:107B7000BD420AD1781C80B20090701C83B2AAB2B8
:107B8000A1B2504600F084F87DE000F03CFB301BD1
:107B9000002801DD301B00E0A01B791B002901DD5E
:107BA000791B00E0E91B884235DDA64201DD01209A
:107BB00001E04FF0FF308346781B00EE100AF8EE2C
:107BC000C00A301B00EE100AB8EEC00A80EE808AB0
:107BD000A0461DE0A8EB040000EE100AB8EEC00AB3
:107BE00020EE080ABDEEC00A10EE100A28441FFA63
:107BF00080F91FFA88F21FFA88F04B46494600F0D8
:107C0000B7FC504600F084F908EB0B000FFA80F83F
:107C1000B045DFD135E0AF4201DD012001E04FF09A
:107C2000FF308346301B00EE100AF8EEC00A781BC6
:107C300000EE100AB8EEC00A80EE808AA8461DE069
:107C4000A8EB050000EE100AB8EEC00A20EE080A04
:107C5000BDEEC00A10EE100A20441FFA80F91FFA88
:107C600088F31FFA88F14A46484600F081FC5046E6
:107C700000F04EF908EB0B000FFA80F8B845DFD1A1
:107C800000BF00F0BBFA01B0BDEC028BBDE8F08F85
:107C90002DE9F04180460C4615461E46069F00F031
:107CA000B2FA781E83B2701E82B22946204600F0D6
:107CB0005FFC301B7A1B00FB02F1404600F036FBF4
:107CC00000F09CFABDE8F08101490880704700008F
:107CD0004C31002010B500F077FB00F094FA002042
:107CE00000F096FA012000F09FFA032000F090FACD
:107CF0004AF6A40000F098FA0C2000F089FA00205F
:107D000000F092FA0D2000F083FA40F60C0000F02B
:107D10008BFA0E2000F07CFA4FF42C5000F084FA1D
:107D20001E2000F075FAB72000F07EFA012000F066
:107D30006FFA42F63F3000F077FA022000F068FA5E
:107D40004FF4C06000F070FA102000F061FA0020DB
:107D500000F06AFA112000F05BFA46F2700000F0C1
:107D600063FA052000F054FA002000F05DFA0620C6
:107D700000F04EFA002000F057FA162000F048FA02
:107D80004EF61C7000F050FA172000F041FA032064
:107D900000F04AFA072000F03BFA40F2332000F0EE
:107DA00043FA0B2000F034FA002000F03DFA0F20D7
:107DB00000F02EFA002000F037FA412000F028FAF7
:107DC000002000F031FA422000F022FA002000F0FA
:107DD0002BFA482000F01CFA002000F025FA492078
:107DE00000F016FA40F23F1000F01EFA4A2000F0B0
:107DF0000FFA002000F018FA4B2000F009FA0020DA
:107E000000F012FA442000F003FA4FF46F4000F043
:107E10000BFA452000F0FCF9002000F005FA46209E
:107E200000F0F6F940F23F1000F0FEF9302000F0CB
:107E3000EFF940F2077000F0F7F9312000F0E8F9AF
:107E40004FF4017000F0F0F9322000F0E1F94FF446
:107E5000017000F0E9F9332000F0DAF940F2025045
:107E600000F0E2F9342000F0D3F940F2075000F0BE
:107E7000DBF9352000F0CCF94FF4017000F0D4F9B3
:107E8000362000F0C5F94FF4017000F0CDF937202D
:107E900000F0BEF940F2025000F0C6F93A2000F0BE
:107EA000B7F940F2023000F0BFF93B2000F0B0F922
:107EB00040F2023000F0B8F9232000F0A9F90020C8
:107EC00000F0B2F9242000F0A3F9002000F0ACF992
:107ED000252000F09DF94FF4004000F0A5F94F2057
:107EE00000F096F9002000F09FF94E2000F090F984
:107EF000002000F099F9222000F08AF900F07EF9C4
:107F00000020024908700120486010BD4431002063
:107F100010B50446204600F087F910BD022801DCA8
:107F20000149087070470000443100202DE9FF5FCF
:107F300081468A469046544800680079A8EB0000C4
:107F4000029051480068C168029831F820704E488C
:107F50000068C168029801EB800040880190F81D1C
:107F6000C00800904848006804680AEB0400401EFE
:107F700083B209EB0700401C82B25146484600F02C
:107F8000F7FA002637E0002531E02846E91705EB2F
:107F90005171CB10DDE9001206FB012119443A4A68
:107FA0001268126912F801B0E91705EB5171C91096
:107FB000A5EBC1028021114101EA0B0159B1781BE7
:107FC00000FB0460C0B203900020791B01FB046138
:107FD0002E4A50540AE0781B00FB0460C0B20390A4
:107FE0000220791B01FB0461284A50546D1CBD42DC
:107FF000CBD3701CC6B2A642C5D300260BE002212B
:10800000781C00FB0460214A1154002000FB04602E
:108010001154701CC6B2A642F1D3012019E0002110
:1080200014E001FB0402194B9A5C022A0DD1421E96
:108030004B1C03FB0422154B9A5C32B9032201FB53
:108040000403DFF848C00CF80320491CB942E8D308
:10805000401CA042E3D3B81C00FB04F10B4800F025
:1080600027F9B8F1200F09D1074800688068064950
:1080700009688969084404B0BDE8F09F02480068B7
:1080800080693844F7E7000040310020B8F901204A
:10809000014908607047000040310020014600207F
:1080A0001BE00A78202A08D10E4A126892680D4B0C
:1080B0001B689B691A4410440EE00A78094B1B6840
:1080C0001B79D21A074B1B68DB6833F82220054B5B
:1080D0001B689B691A441044491C0A78002AE0D1A5
:1080E00070470000403100202DE9FC4105460F4655
:1080F00014461F480088ADF800004FF6FF70ADF839
:1081000002001C480088ADF804000020ADF806000D
:1081100004221949684600F0E9F900F074F8204695
:10812000FFF7BCFF86B21548007820B1012803D0C4
:1081300002280BD107E009E0304606EBD071A5EB31
:1081400061018DB202E0A81B85B200BF00BF07E04D
:1081500014F8012B39462846FFF7E8FE284485B27B
:1081600020780028F4D100F049F8BDE8FC81000037
:108170004C3100204E310020B8090220443100204B
:1081800010B504464FF4FF71184801F0D0F8200BE9
:10819000174A52F82000174AC4F3032352F8232049
:1081A00040EA0201114801F0C5F84FF08050124931
:1081B0000860091F08604FF4FF710C4801F0B7F820
:1081C0000B48C4F3031250F8220004F00F02094BCD
:1081D00053F8222040EA0201044801F0ABF84FF0C6
:1081E000805005490860091F086010BD0003005059
:1081F000180A0220D80902200C05005010B50320EF
:1082000001F067F810BD10B5032001F007F810BDAC
:1082100010B504461020034908602046FFF7B0FF60
:10822000002010BD0C05005010B5044610201C495C
:1082300008604FF4FF711B4801F079F8200B1A4ACF
:1082400052F82000194AC4F3032352F8232040EACD
:108250000201144801F06EF84FF080501049091DDA
:108260000860091F08604FF4FF710E4801F05FF8C5
:108270000D48C4F3031250F8220004F00F020B4B18
:1082800053F8222040EA0201064801F053F84FF06B
:1082900080500349091D0860091F0860002010BDB7
:1082A0000805005000030050180A0220D8090220D7
:1082B00070B504460D4610201849086028E04FF4B8
:1082C000FF71174801F033F82078164A126852F807
:1082D0002010134801F02EF84FF080500F49091D6F
:1082E0000860091F08604FF4FF710D4801F01FF886
:1082F00014F8012B0C48006850F82210084801F0CF
:1083000019F84FF080500549091D0860091F0860E1
:10831000281EA5F10105D2D170BD0000080500504E
:108320000003005050310020543100202DE9F0416D
:1083300004460D46102020490860200B1F4951F8C3
:1083400020001F49C4F3032251F8221040EA01061D
:108350001A48C4F3031150F8210004F00F01184A21
:1083600052F8211040EA01071FE04FF4FF71154851
:1083700000F0DDFF3146134800F0DCFF4FF0805085
:108380000D49091D0860091F08604FF4FF710D4871
:1083900000F0CDFF39460B4800F0CCFF4FF0805085
:1083A0000549091D0860091F0860281EA5F101057F
:1083B000DBD1BDE8F081000008050050180A02205A
:1083C000D80902200003005010B5212000F0DEFE85
:1083D000222000F0DBFE232000F0D8FE242000F055
:1083E000D5FE252000F0D2FE262000F0CFFE27206B
:1083F00000F0CCFE282000F0C9FE032000F0C6FEED
:10840000042000F0C3FE1C2000F0C0FE1D2000F080
:10841000BDFE1D2000F05DFF00205FE00021314A1D
:1084200042F82010304A42F8201000F0010131B12A
:10843000114651F8201041F0020142F8201000F0DE
:10844000020139B1284951F8201041F00401264AAF
:1084500042F8201000F0040139B1234951F82010EE
:1084600041F00801204A42F8201000F0080139B11B
:108470001D4951F8201041F010011B4A42F820100C
:1084800000F0010139B1174951F8201041F02001E5
:10849000144A42F8201000F0020139B1114951F894
:1084A000201041F040010F4A42F8201000F0040172
:1084B00039B10C4951F8201041F08001094A42F8C5
:1084C000201000F0080139B1064951F8201041F49C
:1084D0008071044A42F82010411CC8B210289DDB6C
:1084E000002010BD180A0220D809022070B50346EA
:1084F0001A48016001EB8200194C206019480260A3
:10850000002024E033F81040240B174D55F8244088
:1085100033F81050C5F30325144E56F825502C435C
:108520000E4D2D6845F8204013F81040C4F3031495
:108530000D4D55F8244013F8105005F00F0556F86E
:1085400025502C43064D2D6845F82040401C054C15
:108550002468A042D6D3002070BD00005031002016
:108560005431002058310020180A0220D809022076
:108570002DE9F04106460C4617461D4640F23F18CD
:1085800030462646044638462F460546A8EB0400EA
:1085900084B2A8EB050085B220462C46054644204F
:1085A000FFF736FE06EB072188B2FFF73DFE4520B8
:1085B000FFF72EFE2046FFF737FE4620FFF728FE86
:1085C0002846FFF731FE4E20FFF722FE3046FFF728
:1085D0002BFE4F20FFF71CFE2046FFF725FE222032
:1085E000FFF716FEBDE8F08130B58FB004460D46AA
:1085F0001C2108A8FCF73DFE9DF8200020F0020099
:10860000801C8DF820009DF8200020F00800083024
:108610008DF82000002009900B900C900D900E908A
:10862000A07C8DF80A0041F22550ADF8080000202A
:10863000019000BF9DF8040020F00F00401C8DF851
:1086400004009DF8040020F0F00010308DF80400C4
:1086500000BF00BF9DF8050020F00F00401C8DF802
:1086600005009DF8050020F0F00010308DF80500A1
:1086700000BF9DF8060020F00600801C8DF8060063
:108680009DF8060020F008008DF806009DF8060011
:1086900020F010008DF806009DF8060020F0010083
:1086A0008DF80600142103A8FCF7E3FD02A803904F
:1086B00001A804900120ADF814000020ADF81600C8
:1086C0000120ADF81800002007902088A31C03AA01
:1086D00008A9A2DF0FB030BDF8B506460F46144614
:1086E0006CB11B2000F08DFD11A1032001F0E8F812
:1086F0000120164988700846FEF754FE17E01B203B
:108700000090684600F098FD05460121009A01FAA4
:1087100002F0C5F8080500BF00BF0DA1032001F05D
:10872000CFF80020094988700846FEF73BFEF8BDE7
:108730004150503A494E464F3A52656365697665F5
:1087400064204C4544204F4E210D0A00D4300020B7
:108750004150503A494E464F3A52656365697665D5
:1087600064204C4544204F4646210D0A000000007D
:1087700010B5FEF749FA10BD172101804180002194
:10878000017141711B218171C17170472DE9F04167
:10879000064600274748D0F8008078E016B13446F6
:1087A000E66947E04448007800EB40014248001D7C
:1087B00000EBC105001F0078401C3F4908700846C7
:1087C00000788978884202D100203B4908706C68A3
:1087D000287801281AD0022802D0032817D107E0F0
:1087E000686802F003F900B10127002020744EE010
:1087F00007E030490868002101742E4AC169116000
:1088000000BF2C4800680028F3D140E000E03EE0C3
:1088100000BF207C00B13AE0A8686060E868A06012
:108820002869E0606869A0612448007808B10020E8
:10883000606000BF224960680968401A20F07F40EC
:108840002049884208D21E496068096802F061F830
:10885000A168084420600FE019486168006802F0D0
:1088600058F80546A068A84203D9A068401B2060BC
:1088700001E00020206000BF00206060A0600120B7
:1088800020740020E061204602F07CF800BF002E3A
:1088900084D109480078084949788842F8D11FB93D
:1088A00004480068404502D00120BDE8F081002066
:1088B000FBE700000C31002000F201201F310020F6
:1088C00010310020FFFF7F0070B5002001F0F4F8A8
:1088D000044600BF254625B100BF2846FDF714FE1B
:1088E00000BF00BF70BD0000FFF742FF02F063F958
:1088F000FFF7EAFFFEF7F6FAFEF794F8FEF7D6FF69
:10890000FFF716F801F0DEFEFDF7A2FCFEF762FCB1
:10891000FEF7D4FB14A1032000F0D2FFFEF73AFDCE
:1089200008224FF6FF71002077DF044600BF25467E
:1089300025B100BF2846FDF7E7FD00BF00BFFDF7EA
:10894000BBFC4FF47A75294615FB01F000F098F94D
:1089500000BF0F48FEF726FD00BF00F0C1FE002853
:10896000FBD101F029FDF8E74150503A494E464FFE
:108970003A4C6F6E672072616E6765206578616D35
:10898000706C6520737461727465642E0D0A00004A
:10899000D4300020F0B50B30154D20F00701002435
:1089A000144A0FE003688B420BD38B4205D95E1A41
:1089B00043184768C3E9006700E04368136002C0DA
:1089C00004E0021D10680028ECD12046002802D1E6
:1089D000286808B10020F0BD064A07481060074A21
:1089E000121A22F00702C0E9002401202860D7E70C
:1089F00078F0012074F001207C0A0220782A0220FD
:108A00002DE9F04105460E4614469846A888871C75
:108A10002088801C3844404502D90C20BDE8F081F4
:108A2000FE2F01D90C20F9E7781C2188705420888A
:108A3000401C2080FF20218870542088401C20800A
:108A400022889119288802F051FA21880844208050
:108A5000A88800280DDDA86808B90720DEE7AA88E5
:108A600023889819A968FCF7EBFB2088A98808449B
:108A700020800020D2E72DE9F84F05460F46144626
:108A800098462878012804D1687810B90720BDE8F5
:108A9000F88F2088801C404508D82878012807D105
:108AA0002088801C69780844404501D90C20EEE7F5
:108AB0002088A8EB0000801E86B200962188891CC1
:108AC000C81969467DDF814600BFB9F1000F01D0AA
:108AD0004846DCE700BF2878022806D1BDF8000030
:108AE000B04202DC4FF0090A0BE04FF0080A287888
:108AF000012805D16878B04202DC6878009000E077
:108B00000096BDF80000FE2801D90C20BFE7BDF893
:108B10000000401C218878542088401C2080208838
:108B200007F800A02088401C20802088BDF8001095
:108B3000084420800020AAE730B502460B46D4083E
:108B400002F00702012090401D5D284030BD70B545
:108B500004460E4600BF0CB90E2070BD00BFA661D2
:108B60001720208060801B202071002505E0A11DBA
:108B700001EBC500FFF700FE6D1C022DF7D30020AE
:108B8000EBE700002DE9F04105460E46B488022CC3
:108B900001DBBDE8F0813088242820D006DC1028D5
:108BA00009D011280CD0232823D11DE03A280CD05D
:108BB00055281ED10EE03146284601F0BBF919E0D8
:108BC0003146284601F0FAFA14E03146284601F011
:108BD0004FFB0FE03146284601F0FAFA0AE0314631
:108BE000284601F0F3F905E03146284601F08AFAFB
:108BF00000E000BF00BFA81D00EBC400007908B36F
:108C0000A81D30F8341020469EDF074697B9002192
:108C1000A81D00EBC40001710121A81D00EBC400D8
:108C20004171A81D30F8342023460749042000F084
:108C3000B1FE06E0112F04D03A460449012000F0AD
:108C40006FFE00BF00BFA4E794A8030094A903002F
:108C500001464FF08040405808B101207047002085
:108C6000FCE708B500224FF080410A5009580091F6
:108C700000BF08BD014908607047000008030040BC
:108C800000B9704700BF00BF00BF00BF00BF00BFFA
:108C900000BF00BF00BF1E4909681E4A914200D1B3
:108CA00030E000BF00BF00BF00BF00BF00BF00BF7B
:108CB00000BF00BF00BF00BF00BF00BF00BF00BFBC
:108CC00000BF00BF00BF00BF00BF00BF00BF00BFAC
:108CD00000BF00BF00BF00BF00BF00BF00BF00BF9C
:108CE00000BF00BF00BF00BF00BF00BF00BF00BF8C
:108CF00000BF00BF00BF00BF00BF00BF00BF00BF7C
:108D000000BF00BF401E00D0BDE700BFB9E70000B4
:108D100070F001200024F40000B9704700BF00BFCC
:108D200000BF00BF00BF00BF00BF00BF00BF1E49A3
:108D300009681E4A914200D130E000BF00BF00BF69
:108D400000BF00BF00BF00BF00BF00BF00BF00BF2B
:108D500000BF00BF00BF00BF00BF00BF00BF00BF1B
:108D600000BF00BF00BF00BF00BF00BF00BF00BF0B
:108D700000BF00BF00BF00BF00BF00BF00BF00BFFB
:108D800000BF00BF00BF00BF00BF00BF00BF00BFEB
:108D900000BF00BF00BF00BF00BF00BF401E00D02B
:108DA000BDE700BFB9E7000070F001200024F40027
:108DB00010B500241648007808B1852425E000206D
:108DC0001349886048600861C86000BF00BF41095E
:108DD000890001F1E021D1F8001101228240114007
:108DE00009B1012100E0002119B90721002000F09C
:108DF00035F800BF01F080FD20B901200549086069
:108E000000BF00BF012002490870204610BD0000CD
:108E100044F101201805004008B500200090684684
:108E2000FDF70EFC0848007808B9FFF7C1FF0648B7
:108E3000C068401C0449C860012088709DF800008B
:108E4000FDF704FC08BD000044F1012010B5044604
:108E500014B90020FEF7D2F810BD000070B50B4623
:108E600001461A46002907DA5407260E104C01F075
:108E70000F052D1F665503E05407250E0D4C655454
:108E800000BF00BF00F01F02012191400A4A4409BF
:108E900042F8241000BF00BF00F01F0201219140E2
:108EA0004209920002F1E022C2F8001100BF70BD39
:108EB00018ED00E000E400E080E200E070B5054657
:108EC000284601F057FA20B10021284600F07CF92D
:108ED00018E0284601F05AFAA0B12846FEF788F8B3
:108EE00004462046084951F8201021F001020649A5
:108EF00041F8202000BF012101FA04F00349086075
:108F000000BF00BF70BD0000106500400863004056
:108F10002DE9F04706460D46304601F02BFAE0B148
:108F20003046FEF765F8083822490F5CBC11032C67
:108F300008D1304600F0C0F908B1032000E002205B
:108F4000804605E0012C01D1022000E0032080468C
:108F50004146304600F038F92AE0304601F016FA72
:108F600030B33046FEF744F80446A00000F58070A8
:108F700087B22046104951F8201041F001020E49F5
:108F800041F8202000BF384600F0F4F97DB13046AA
:108F9000FEF72EF88146FDF7E3FF8046B8F1000F9B
:108FA00004D0012101FA04F000F0FEF900BF00BF77
:108FB000BDE8F087B8F10120106500402DE9FC47BD
:108FC00005460E4617464FF00008284601F0C4F942
:108FD00010B14FF0080857E0F27839462846FDF7FF
:108FE000C7FF0446601C00284BD0B07890B10195B3
:108FF00001A800F041F9814609F5E060019950F8B7
:10900000210020F0020A09F5E060019940F821A052
:1090100000BF0CE096F80190002000904B460246FD
:1090200001460190284600F097F800BF00BFF07895
:10903000D0B13078164951F82410164A1140144A1C
:1090400042F82410114651F824104FF47C5202EAE1
:1090500005224FF4403303EA00431A4311430C4AFC
:1090600042F8241000BF0EE0A4F108000A49085C91
:10907000317840EA811042B2A4F1080006490A544E
:1090800001E04FF0040800BF4046BDE8FC87000047
:1090900010650040FFC0FCFFB8F1012010B5044688
:1090A000204600F009F908B1012010BD0020FCE7BE
:1090B00070B5164890F8640010B10825284670BDB8
:1090C000002404E0204601F071F9601CC4B2302C89
:1090D000F8DB002404E02046FDF732FF601CC4B238
:1090E0000C2CF8DB07210620FFF7B8FE4FF4BE700A
:1090F00000F040F94FF0004000F056F9012003491C
:1091000081F8640000252846D9E7000058F10120C5
:10911000034890F8640008B1012070470020FCE784
:1091200058F101202DE9FF470C4615461E46DDE9A2
:109130000C78684600F090F8814644EA450040EA21
:10914000860040EA072040EA084109F5E060009AFD
:1091500040F82210BDE8FF872DE9FF470C46154671
:109160001E46DDE90C78684600F086F8814644EA40
:10917000450040EA860040EA072040EA084109F538
:10918000E060009A40F82210BDE8FF872DE9F84F13
:10919000044601252E464FF00008C146474600947C
:1091A000684600F079F8824645EA460040EA8800C1
:1091B00040EA092040EA07410AF5E060009A40F8D9
:1091C000221000BFBDE8F88F73B50D46684600F069
:1091D00053F8044604F5E060009950F8210020F4AB
:1091E000403104F5E060009A40F82210009950F8F0
:1091F000210040EA054104F5E060009A40F82210A1
:109200007CBD31B5684600F017F804460121009A8C
:1092100001FA02F0C4F80C0500BF38BD31B568464C
:1092200000F03AF804460120009A00FA02F12046C4
:1092300000F07DF838BD000001460868202802D201
:109240004FF0A0407047087800F01F000860014808
:10925000F8E700000003005001460868202802D209
:109260004FF0A0407047087800F01F0008600148E8
:10927000F8E700000003005001460868202802D2E9
:109280004FF0A0407047087800F01F0008600148C8
:10929000F8E700000003005001460868202802D2C9
:1092A0004FF0A0407047087800F01F0008600148A8
:1092B000F8E700000003005031B56846FFF7DCFF17
:1092C000044600BFD4F810050099C84000F0010022
:1092D00038BD31B56846FFF7DFFF04460120009A2C
:1092E00000FA02F1204600F025F838BDF8B5044632
:1092F0000D466DB900946846FFF7AEFF06460121A2
:10930000009A01FA02F0C6F80C0500BF00BF0DE09C
:1093100000946846FFF7A0FF06460121009A01FA73
:1093200002F0C6F8080500BF00BF00BFF8BDC0F8D6
:109330000C157047C0F80815704700003CB50B4687
:10934000084D30CDCDE90045014606E05DF82140ED
:10935000D4F810551560121D491CC4188C42F5D85C
:109360003CBD000038B10200014601480844704786
:109370000060004038B504462046FFF7F5FF0021A5
:1093800001602046FFF7F0FF0068009000BF38BD85
:1093900010B504462046FFF7E7FF0068012800D11A
:1093A00010BD0020FCE70000014908607047000084
:1093B0000463004000487047ED93020010B5044676
:1093C0000848007828B108480078844201D100207C
:1093D00010BDFCF7ABF90120024908700248047087
:1093E0000020F5E720310020213100202DE9F04F49
:1093F000C9B0894692469846DDF84CB100200690E7
:109400004646559858440590B9F1000F01D00A20FE
:1094100000E00020049001F0E5F818B1404649B0A2
:10942000BDE8F08FB8F1000F1DD109A8069A811888
:1094300006AA484601F0CEFB08B94046EFE7504681
:10944000FBF722FF0746C22F01D9C22000E03846B1
:10945000074609A9069A88183A465146FBF7F0FED6
:1094600006983844069000BF069802900298313062
:1094700004990844019009A902980C1801980D1844
:109480000020039005E020202070641C0398401CFD
:109490000390DDE903018842F5D30020079030E016
:1094A0000598864209D3202004F8010B04F8010B2B
:1094B00004F8010B05F8010B20E05E4503D2529839
:1094C000805D089004E0A6EB0B015498405C089086
:1094D00021460898FDF71AFDA41C202004F8010B72
:1094E000FBF7AAFE01680898085C00F03E0008B18E
:1094F000089800E02E2005F8010B761C0798401C08
:10950000079007981028CBD30D2005F8010B0A20EF
:1095100005F8010B202004F8010B0498433006994C
:109520000844069009A8069901F05EF808B930468B
:1095300075E701F057F808B1304670E70020069053
:109540000598864290D3304669E72DE9F04FC7B0C1
:1095500083460F4615461C46DDF840810026002054
:1095600006904FF0010A01F03DF818B1002047B015
:10957000BDE8F08F07A8069A811806AA384601F0C0
:1095800029FB08B90020F2E7B8F1070F6FD2DFE836
:1095900008F00414223244586F002846FBF774FE8A
:1095A000064606983044FF2806D807A9069A881868
:1095B00032462946FBF744FE73E02368069AC2F55B
:1095C000807107AADDF818C002EB0C002A46FCF7F0
:1095D000E1FA064665E0606800902368069AC2F5E5
:1095E000807107AADDF818C002EB0C002A46FCF7D0
:1095F000D1FA064655E0D4E90101CDE9000123681E
:10960000069AC2F5807107AADDF818C002EB0C00BB
:109610002A46FCF7BFFA064643E0D4E90221606817
:10962000CDE9012100902368069AC2F5807107AA4E
:10963000DDF818C002EB0C002A46FCF7ABFA064630
:109640002FE0D4E90123D4E90310CDE90023CDE9CB
:1096500002102368069AC2F5807107AADDF818C0C7
:1096600002EB0C002A46FCF795FA064619E017E0D3
:10967000D4E90223D4E90410CDE90123CDE9031094
:10968000606800902368069AC2F5807107AADDF829
:1096900018C002EB0C002A46FCF77CFA064600E0F4
:1096A00000BF00BF314606A8FDF7D0FA8246DDF8BC
:1096B0001890BAF1000F07D0B9F5807F04D807A839
:1096C000069900F091FF52E7002050E700487047EC
:1096D0004B95020010B50120FFF770FE10BD000091
:1096E0002DE9F04F8BB0FDF707FB18B100200BB050
:1096F000BDE8F08F6848446885682646641C06EA21
:10970000050065490C3151F820000A900FE00A98D5
:10971000C0F389100A9900EB915004442646641C5A
:1097200006EA05005C490C3151F820000A900A98BD
:1097300000F003000028EAD04FF0000A0A98C0F3B6
:10974000800000B100BF4FF0000B0A9800F003004A
:10975000022871D12046641C28404F490C3151F831
:10976000200009900A984FEA90580A98C0F3891986
:1097700004EA0500691C081A8700B84530D937B1DA
:1097800004EA050044490C3101EB800001E0424845
:109790000C3008900FB1384600E04046C0B2079048
:1097A00017B13D480C3000E00020069017B1A8EB3F
:1097B000070000E00020C0B2059005A80BC8089A79
:1097C000CDE90023CDE902100A99C1F3C200324964
:1097D0004B46D1F814C45146099AE047814615E03A
:1097E000002204EA05002C490C3101EB8000CDE990
:1097F0000182039200900A99C1F3C20026494B46A8
:10980000D1F814C45146099AE0478146C14506D1B2
:1098100008F1030004EB90044FF0010B0AE00A98F2
:1098200069F38F100A9006EA05001B490C310A9A69
:1098300041F8202025E0FFE704AF0A98800A039052
:109840000A98C0F383184FF000090AE02046641C10
:10985000284011490C3151F8200038603F1D09F1B2
:109860000109C145F2D3CDF800800A99C1F3C200C5
:10987000094904ABD1F810C45146039AE047834626
:1098800000BFBBF1000F01D003484460FDF734FA7C
:1098900080F001002BE7000018F3012030B50346EB
:1098A0000C461546FF200549886000200860486086
:1098B0002146184600F0F8F830BD000018F30120EA
:1098C0002DE9FC4104460D4600261348876801A98E
:1098D0003046FDF7C5F9E8B1104800680090002156
:1098E000009861F382000090009864F3C500009036
:1098F000009866F389100090009865F39F2000900F
:10990000DDE90021481C3940019003480C3040F843
:10991000212000BFBDE8FC8118F3012090B10200B6
:109920002DE9FC4104460D46164601271748D0F89C
:10993000088001A93846FDF793F928B31448006858
:1099400000900021009861F382000090009864F379
:10995000C5000090009867F389100090009865F3A7
:109960009F200090DDE90021481C01EA08010190D8
:1099700006480C3040F82120019800EA080003490D
:109980000C3141F8206000BFBDE8FC8118F30120D4
:1099900094B102002DE9FC4704460D46174698464F
:1099A0004FF002091948866801A94846FDF758F9A1
:1099B00048B31748006800900021009861F38200C6
:1099C0000090009864F3C5000090009869F3891036
:1099D0000090009865F39F200090DDE90020411C75
:1099E0003040019109490C3141F820200198411C77
:1099F0003040019105490C3141F820700198304008
:109A000041F8208000BFBDE8FC87000018F301206A
:109A100098B102002DE9FC4704460E4617469846C9
:109A2000DDF828A04FF003091D48856801A94846C4
:109A3000FDF716F988B31B480068009000210098D4
:109A400061F382000090009864F3C50000900098D4
:109A500069F389100090009866F39F200090DDE97B
:109A60000020411C284001910D490C3141F8202073
:109A70000198411C2840019109490C3141F820709E
:109A80000198411C2840019105490C3141F8208082
:109A90000198284041F820A000BFBDE8FC870000E5
:109AA00018F301209CB10200024AC2F81004C2F867
:109AB0001414704718F301202DE9F041054600BF4A
:109AC0000020FFF77BFC04464CB9FFF773FC064609
:109AD000FFF7FCFD07462A463146FFF7DFFE20462A
:109AE000BDE8F0810146D1F88004C1F880047047D8
:109AF0000246505808B1012070470020FCE708B525
:109B0000002242504258009200BF08BDC0F808131E
:109B100070470246D2F80403084008B1012070479C
:109B20000020FCE70122425070470146D1F8800432
:109B3000C1F8800470470246505808B101207047B0
:109B40000020FCE708B5002242504258009200BFB6
:109B500008BD014640F23C504058704770B58AB08D
:109B60000546288821287DD00CDC112863D004DC30
:109B7000012878D0102877D111E0132875D01C283F
:109B8000F9D129E1512871D004DC22286FD03B287B
:109B9000F1D1A6E052286BD05628ECD1B3E094A1C5
:109BA0000320FFF78DFEA888974908800822084601
:109BB0000188022077DF044600BF264626B100BF99
:109BC0003046FCF7A1FC00BF00BF04208DF8240044
:109BD0008DF8250009A98C4800888FDF044600BF56
:109BE000264626B100BF3046FCF78EFC00BF00BF02
:109BF000FCF7CAFB044600BF264626B100BF30462C
:109C0000FCF782FC00BF00BFA88880490A78804921
:109C1000097888DF044600BF264626B100BF3046DB
:109C2000FCF772FC00BF00BF01207A4908700846AB
:109C3000FDF7B8FBD8E078A10320FFF741FE012033
:109C4000FCF7D8FF0020FCF7D5FF0120FCF7D2FF7E
:109C50000220FCF7CFFF0320FCF7CCFF4FF6FF708C
:109C6000694906E09FE060E0BDE018E06BE0A0E03D
:109C700026E00880FCF76EFB044600BF264626B1AE
:109C800000BF3046FCF740FC00BF00BFFCF714FBF0
:109C90000020604908700846FDF784FBA4E000231B
:109CA0001A468521584800887FDF044600BF2646B3
:109CB00026B100BF3046FCF727FC00BF00BF93E091
:109CC00000231A46194650480088A9DF044600BF01
:109CD000264626B100BF3046FCF716FC00BF00BF89
:109CE00082E053A10420FFF7EBFDA888132176DF63
:109CF000044600BF264626B100BF3046FCF704FCF0
:109D000000BF00BF70E053A10420FFF7D9FDA88871
:109D1000132176DF044600BF264626B100BF304639
:109D2000FCF7F2FB00BF00BF5EE0A888002166DF01
:109D3000044600BF264626B100BF3046FCF7E4FBD0
:109D400000BF00BF50E01022A91D05A8FBF778FA5C
:109D50009DF8140030B39DF81C00042807D09DF82E
:109D60001C00062803D09DF81C0005281AD19DF878
:109D70001400022802D18DF8040002E001208DF8C1
:109D800004004FF4C170ADF80800A88801A9A8DF4D
:109D9000044600BF264626B100BF3046FCF7B4FBA0
:109DA00000BF00BF20E000200890A88808A98FDF2E
:109DB0001AE0A868089030A10420FFF781FD9DF803
:109DC000212033A10420FFF7ABFD9DF8222035A10F
:109DD0000420FFF7A5FD07E095F908600D484670DF
:109DE000FDF7E0FA00E000BF00BF0AB070BD000060
:109DF0004150503A494E464F3A436F6E6E65637418
:109E000065640D0A00000000D2300020D13000202F
:109E1000D0300020D43000204150503A494E464FB7
:109E20003A446973636F6E6E65637465640D0A000E
:109E30004150503A44454255473A474154542043D3
:109E40006C69656E742054696D656F75742E0D0AAA
:109E5000000000004150503A44454255473A4741BE
:109E60005454205365727665722054696D656F7520
:109E7000742E0D0A000000004150503A44454255EE
:109E8000473A50687920557064617465643A2000DF
:109E90004150503A44454255473A5458202D2025C8
:109EA000692C20004150503A44454255473A525897
:109EB000202D2025690D0A0070B50546287868B95F
:109EC0003B210748008876DF044600BF264626B1BE
:109ED00000BF3046FCF718FB00BF00BF70BD00009C
:109EE000D230002010B504460349A2680A60E06839
:109EF0004860FDF79BF910BDEC30002010B504461A
:109F0000A08808490880084922690A606069486099
:109F10000020064908700648C08908B9FDF786F98F
:109F200010BD0000EA300020EC300020E8300020B6
:109F300008F101202DE9F04105468846B8F8047083
:109F4000A81D00EBC7042879A07198F80F0001281C
:109F500002D0022806D102E02888208003E0688829
:109F6000208000E000BF00BF2088618888421CDD9F
:109F700022883B4612490420FFF70CFD2188384611
:109F80009EDF064616B9012060710EE0112E07D142
:109F9000012020713A460B490420FFF7C1FC04E080
:109FA000324609490120FFF7BBFCA079E1798842DC
:109FB00003DD29463846FDF77BF9BDE8F081000056
:109FC00070AB0300A4AC030094A9030070B592B079
:109FD00004460E463C22311D03A8FBF731F9BDF8BB
:109FE0000C50BDF81000C1B2A01D00EBC500C1713E
:109FF000A01D00EBC500C2792B4618490420FFF7CD
:10A00000C9FCBDF8122016A10420FFF789FCBDF899
:10A0100010201DA10420FFF783FCBDF8162024A109
:10A020000420FFF77DFCBDF814202BA10420FFF7CE
:10A0300077FCA06980B1324903C9CDE90101ADF8CF
:10A040000650A01D00EBC500C0798DF8080001A9DD
:10A050002046A269904700BF12B070BD60AC0300FB
:10A060006E72665F626C655F676174743A44454204
:10A0700055473A6D61785F72785F6F63746574738A
:10A080003A2025750D0A00006E72665F626C655F8E
:10A09000676174743A44454255473A6D61785F741C
:10A0A000785F6F63746574733A2025750D0A00003C
:10A0B0006E72665F626C655F676174743A444542B4
:10A0C00055473A6D61785F72785F74696D653A20C3
:10A0D00025750D0A000000006E72665F626C655F98
:10A0E000676174743A44454255473A6D61785F74CC
:10A0F000785F74696D653A2025750D0A00000000CF
:10A1000020B102002DE9FC47074688460020009058
:10A11000019008F104042188B81D00EBC10994F8EE
:10A1200004A02288534612490420FFF733FC99F813
:10A130000600504502DA99F8060000E0504606464F
:10A14000ADF80060ADF8026023883246094904206A
:10A15000FFF720FC20880022694690DF054625B1E4
:10A160002A4605490120FFF7DBFBBDE8FC8700001C
:10A1700040A90300C4AB030048AA030070B505461C
:10A180004FF6FF7009490880002009490870094806
:10A190000068FCF73DFA044634B10748806918B1FD
:10A1A000054881692046884770BD0000EA300020DC
:10A1B000E83000200CB1020008F1012070B504461F
:10A1C0000D46AA88A11D01EBC200FEF7D5FA70BDAD
:10A1D0002DE9FC4706468846B8F80450B8F80690C2
:10A1E000B01D00EBC5044B462A461D490420FFF76D
:10A1F000D1FBB9F1170F01DA172000E0484681467C
:10A200002088484501DD484600E020886080002025
:10A21000207100952388628812490420FFF7FAFB19
:10A2200021882846ADDF074627B13A460E4901206E
:10A23000FFF776FB607908B1BDE8FC87B06968B1CB
:10A240000A4903C9CDE90001ADF802506088ADF8B4
:10A25000040069463046B269904700BF00BFEBE793
:10A26000F0A803001CAB0300F0A9030018B1020022
:10A270002DE9FC4105460F46BE88B7F80A80A81DA7
:10A2800000EBC6042088404501DD404600E0208800
:10A2900060806088172801DA172000E060886080FD
:10A2A000628833460D490420FFF774FBA86978B132
:10A2B000607968B10A4903C9CDE90001ADF80260CF
:10A2C0006088ADF8040069462846AA69904700BF37
:10A2D000002060712071BDE8FC81000044A80300EB
:10A2E00010B1020070B50546AC1D20880E49C98921
:10A2F000884218D16089022815D104F10C00FCF7BE
:10A3000087FB10B1FCF792FF0DE008480068FCF7EE
:10A310007FF9064636B10448806918B10248816960
:10A320003046884700BF70BD08F101200CB1020023
:10A3300070B504460D46AE1D30886188884209D14B
:10A340007089012806D1606920B1327BA888214636
:10A350006369984770BD00000146054840560122D8
:10A3600002EBE07008B1012070470020FCE700001C
:10A3700088F10120014604484056082801DB0120ED
:10A3800070470020FCE7000088F1012001460648E4
:10A390004056002805DB04484056082801DA012011
:10A3A00070470020FCE7000088F10120FF220149EE
:10A3B0000A54704788F1012070B53EDF044600BFA3
:10A3C000254625B100BF2846FCF79EF800BF00BF18
:10A3D00070BD000001490860704700004015014051
:10A3E00001480068704700000415014010B504469C
:10A3F0000348046007211120FBF742F910BD00005B
:10A400000815014010B54FF480300A4908600A4928
:10A41000C1F804031120FBF7F9F81120FBF70EF93E
:10A420000120054908602F20FEF776FC0120034932
:10A43000087010BD44130140001001401E3100207F
:10A4400010B51120012181400E4A430942F8231022
:10A4500000BF4FF480300C4908600C49C1F8080374
:10A46000012048602F20FEF757FC01200749886033
:10A470000020074908602F20FEF74EFC0020054908
:10A48000087010BD80E100E0481301400010014059
:10A49000103100201E31002070B505460C46E07DCD
:10A4A00040B94FF484712846FFF729FB00BFD5F867
:10A4B000180570BD4FF484712846FFF720FB00BFDC
:10A4C000D5F81805C0B2627EE1688854607E401CF1
:10A4D000607600BFEDE77FB504460D4616460120C5
:10A4E0008DF800008DF8085001966846D4E90012F6
:10A4F00090477FBD10B504462046FBF787FB10B997
:10A5000042F2010010BD2146002906DA184A01F086
:10A510000F031B1FD25C520902E0164A525C52091B
:10A520001046082801D3002107E018B1012801D006
:10A53000042801D1002100E0012111B942F20200FA
:10A54000E0E70D48806868B160090B4951F82000C8
:10A5500004F01F020121914008436109064A42F8B4
:10A56000210002E02046FBF774F80020CAE7000053
:10A5700018ED00E000E400E00CF3012070B50446A3
:10A58000FBF760FB054614488068D8B901201249E2
:10A59000886012480068124908400F490860104856
:10A5A0004FF0E021C1F880010C488038D0F88400D9
:10A5B000094948604FF0FF310848001D0160002044
:10A5C000207001E0012020701DB900BF62B600BFFD
:10A5D00000BF002070BD00000CF3012080E100E00E
:10A5E000FC06FFBD002070472DE9F04706460F46E8
:10A5F0004FF0010A4FF000083D464FF00A0900BF36
:10A6000006EB08012A460020FBF79CF80446A0440C
:10A610002D1B2CB9A9F10109B9F1000F00D101E0FE
:10A62000002DEDD100BF5046BDE8F0872DE9F04781
:10A6300007460E4614469A46B86A10B90720BDE888
:10A64000F0874FF0000836E008EB4801B86A00EBED
:10A650008105A88800F10209B9F1FE0F01D90C208B
:10A66000EDE709F10100218870542088401C20800A
:10A670001620218870542088401C2080228891193F
:10A68000288800F033FC218808442080A88800280E
:10A690000DDDA86808B90720D1E7AA882388981992
:10A6A000A968FAF7CDFD2088A9880844208008F120
:10A6B000010000F0FF0897F82C004045C4DC0020A2
:10A6C000BDE7000038B50848009069460748FCF728
:10A6D00039F9044600BF254625B100BF2846FBF7DF
:10A6E00013FF00BF00BF38BDD986020098F00120DB
:10A6F00008B501460020024A0092009A0A6008BD8F
:10A70000D0300020014600BF09B90E20704700BFBD
:10A71000014801600020F9E73C310020F8B504460B
:10A720002068009014A10420009AFFF7F9F8684609
:10A7300060DF054620680099884215D016A10220E6
:10A74000009AFFF7EDF800BF4FF0005000BF1F491F
:10A7500009688902084400BF0099461A32461CA1C4
:10A760000220FFF7DDF805E025B12A4625A10120EA
:10A77000FFF7D6F82846F8BD5344483A44454255B9
:10A78000473A52414D2073746172742061742030D5
:10A790007825782E0D0A00005344483A5741524E0E
:10A7A000494E473A52414D20737461727420736868
:10A7B0006F756C642062652061646A75737465648A
:10A7C00020746F20307825782E0D0A000C010010BF
:10A7D0005344483A5741524E494E473A52414D2010
:10A7E00073697A652073686F756C64206265206197
:10A7F000646A757374656420746F20307825782ED0
:10A800000D0A00005344483A4552524F523A73647D
:10A810005F626C655F656E61626C65282920726598
:10A820007475726E656420756E65787065637465A5
:10A83000642076616C75653A20307825782E0D0A93
:10A840000000000070B504460D4616463246294603
:10A850002046FBF703FE70BD2DE9F04781460C460C
:10A860001746984614B90720BDE8F087204600F047
:10A87000030109B9012100E0002109B90720F3E72C
:10A8800018480460184807801848C0F80080002065
:10A890004109890001F1E021D1F800110122824033
:10A8A000114009B1012100E000210E4600BF16B1A0
:10A8B0000020FAF7B7FE0E49484610DF05462DB1D5
:10A8C00016B10020FAF7C5FE2846CDE70120094958
:10A8D0000870FEF7A1FA1620FFF70CFE0546284681
:10A8E000C2E7000034310020383100202831002038
:10A8F00045A8020030310020014800787047000070
:10A90000303100200146C87808B107207047002088
:10A91000FCE70246501A20F07F40704710B504460D
:10A92000D4E90510884710BD2DE9FC4100200190B5
:10A9300000260E4804680E4807686846FCF7C0FE0B
:10A9400005462DB101AA21460098FCF73FFF0126DC
:10A950000198FDF71BFF00B1012616B13846FCF740
:10A9600065FB002003490870BDE8FC811031002020
:10A970000C3100201F31002010B51420FAF774FEAE
:10A9800010BD000010B51849096811B916490860D2
:10A9900028E0154A01681268126891420DD81249E0
:10A9A000096809680268891A0F4A126811600E491D
:10A9B0000968C1610C49086014E002680A4C236808
:10A9C000216803E00C68121B0B46C96911B10C68C1
:10A9D0009442F7D311B10C68A41A0C600260C161F3
:10A9E000D86100BF10BD00000C3100202DE9F041FE
:10A9F00006461C48D0F8008005682C4604E0B442A6
:10AA000000D103E02546E469002CF8D100BF14B959
:10AA10000020BDE8F081A54213D112480068C0694A
:10AA2000104908600846006858B901200E4988603E
:10AA300000200E49086001200D4908702F20FEF704
:10AA40006BF92768E069E861EC6914B12068384463
:10AA5000206004480068804501D00120D9E700202B
:10AA6000D7E700000C310020001001401031002019
:10AA70001F3100202DE9FC4705460E461746984633
:10AA80004FF00009002000906846FBF7D9FD01A8AF
:10AA900000F07AFA044614B94FF004090DE00120E1
:10AAA00020706560FFF79CFCA060E6602761C4F839
:10AAB00014809DF8040000F085FA9DF80000FBF773
:10AAC000C5FDB9F1000F01D1FFF756FF4846BDE8BB
:10AAD000FC872DE9FC4105460E460027002000902A
